{"abi":[{"anonymous":false,"inputs":[{"indexed":true,"internalType":"address","name":"tokenOwner","type":"address"},{"indexed":true,"internalType":"address","name":"spender","type":"address"},{"indexed":false,"internalType":"uint256","name":"tokens","type":"uint256"}],"name":"Approval","type":"event"},{"anonymous":false,"inputs":[{"indexed":true,"internalType":"address","name":"from","type":"address"},{"indexed":true,"internalType":"address","name":"to","type":"address"},{"indexed":false,"internalType":"uint256","name":"tokens","type":"uint256"}],"name":"Transfer","type":"event"},{"inputs":[],"name":"ICO_Constructor","outputs":[],"stateMutability":"nonpayable","type":"function"},{"inputs":[],"name":"allContributers","outputs":[{"internalType":"uint256","name":"","type":"uint256"}],"stateMutability":"view","type":"function"},{"inputs":[{"internalType":"address","name":"tokenOwner","type":"address"},{"internalType":"address","name":"spender","type":"address"}],"name":"allowance","outputs":[{"internalType":"uint256","name":"remaining","type":"uint256"}],"stateMutability":"view","type":"function"},{"inputs":[{"internalType":"address","name":"spender","type":"address"},{"internalType":"uint256","name":"tokens","type":"uint256"}],"name":"approve","outputs":[{"internalType":"bool","name":"success","type":"bool"}],"stateMutability":"nonpayable","type":"function"},{"inputs":[{"internalType":"address","name":"tokenOwner","type":"address"}],"name":"balanceOf","outputs":[{"internalType":"uint256","name":"balance","type":"uint256"}],"stateMutability":"view","type":"function"},{"inputs":[{"internalType":"address","name":"","type":"address"}],"name":"balances","outputs":[{"internalType":"uint256","name":"","type":"uint256"}],"stateMutability":"view","type":"function"},{"inputs":[],"name":"bonusEnds","outputs":[{"internalType":"uint256","name":"","type":"uint256"}],"stateMutability":"view","type":"function"},{"inputs":[],"name":"buyTokens","outputs":[],"stateMutability":"payable","type":"function"},{"inputs":[],"name":"decimals","outputs":[{"internalType":"uint256","name":"","type":"uint256"}],"stateMutability":"view","type":"function"},{"inputs":[],"name":"endSale","outputs":[],"stateMutability":"nonpayable","type":"function"},{"inputs":[],"name":"icoEnds","outputs":[{"internalType":"uint256","name":"","type":"uint256"}],"stateMutability":"view","type":"function"},{"inputs":[],"name":"icoStarts","outputs":[{"internalType":"uint256","name":"","type":"uint256"}],"stateMutability":"view","type":"function"},{"inputs":[],"name":"myAddress","outputs":[{"internalType":"address","name":"","type":"address"}],"stateMutability":"view","type":"function"},{"inputs":[],"name":"myBalance","outputs":[{"internalType":"uint256","name":"","type":"uint256"}],"stateMutability":"view","type":"function"},{"inputs":[],"name":"name","outputs":[{"internalType":"string","name":"","type":"string"}],"stateMutability":"view","type":"function"},{"inputs":[],"name":"symbol","outputs":[{"internalType":"string","name":"","type":"string"}],"stateMutability":"view","type":"function"},{"inputs":[],"name":"totalSupply","outputs":[{"internalType":"uint256","name":"","type":"uint256"}],"stateMutability":"view","type":"function"},{"inputs":[{"internalType":"address","name":"to","type":"address"},{"internalType":"uint256","name":"tokens","type":"uint256"}],"name":"transfer","outputs":[{"internalType":"bool","name":"success","type":"bool"}],"stateMutability":"nonpayable","type":"function"},{"inputs":[{"internalType":"address","name":"from","type":"address"},{"internalType":"address","name":"to","type":"address"},{"internalType":"uint256","name":"tokens","type":"uint256"}],"name":"transferFrom","outputs":[{"internalType":"bool","name":"success","type":"bool"}],"stateMutability":"nonpayable","type":"function"}],"devdoc":{"kind":"dev","methods":{},"version":1},"evm":{"assembly":"    /* \"ICO.sol\":1342:4271  contract ICO is ERC20Interface{... */\n  mstore(0x40, 0x80)\n  callvalue\n  dup1\n  iszero\n  tag_1\n  jumpi\n  0x00\n  dup1\n  revert\ntag_1:\n  pop\n  dataSize(sub_0)\n  dup1\n  dataOffset(sub_0)\n  0x00\n  codecopy\n  0x00\n  return\nstop\n\nsub_0: assembly {\n        /* \"ICO.sol\":1342:4271  contract ICO is ERC20Interface{... */\n      mstore(0x40, 0x80)\n      jumpi(tag_1, lt(calldatasize, 0x04))\n      shr(0xe0, calldataload(0x00))\n      dup1\n      0x40c65003\n      gt\n      tag_21\n      jumpi\n      dup1\n      0xa9059cbb\n      gt\n      tag_22\n      jumpi\n      dup1\n      0xa9059cbb\n      eq\n      tag_16\n      jumpi\n      dup1\n      0xc9116b69\n      eq\n      tag_17\n      jumpi\n      dup1\n      0xd0febe4c\n      eq\n      tag_18\n      jumpi\n      dup1\n      0xdd62ed3e\n      eq\n      tag_19\n      jumpi\n      dup1\n      0xf2a94299\n      eq\n      tag_20\n      jumpi\n      jump(tag_1)\n    tag_22:\n      dup1\n      0x40c65003\n      eq\n      tag_11\n      jumpi\n      dup1\n      0x70a08231\n      eq\n      tag_12\n      jumpi\n      dup1\n      0x95d89b41\n      eq\n      tag_13\n      jumpi\n      dup1\n      0x9a8ca12c\n      eq\n      tag_14\n      jumpi\n      dup1\n      0x9c3e0f3f\n      eq\n      tag_15\n      jumpi\n      jump(tag_1)\n    tag_21:\n      dup1\n      0x23b872dd\n      gt\n      tag_23\n      jumpi\n      dup1\n      0x23b872dd\n      eq\n      tag_6\n      jumpi\n      dup1\n      0x26b85ee1\n      eq\n      tag_7\n      jumpi\n      dup1\n      0x27e235e3\n      eq\n      tag_8\n      jumpi\n      dup1\n      0x313ce567\n      eq\n      tag_9\n      jumpi\n      dup1\n      0x380d831b\n      eq\n      tag_10\n      jumpi\n      jump(tag_1)\n    tag_23:\n      dup1\n      0x06fdde03\n      eq\n      tag_2\n      jumpi\n      dup1\n      0x095ea7b3\n      eq\n      tag_3\n      jumpi\n      dup1\n      0x18160ddd\n      eq\n      tag_4\n      jumpi\n      dup1\n      0x1f88cb60\n      eq\n      tag_5\n      jumpi\n    tag_1:\n      0x00\n      dup1\n      revert\n        /* \"ICO.sol\":1409:1427  string public name */\n    tag_2:\n      callvalue\n      dup1\n      iszero\n      tag_24\n      jumpi\n      0x00\n      dup1\n      revert\n    tag_24:\n      pop\n      tag_25\n      tag_26\n      jump\t// in\n    tag_25:\n      mload(0x40)\n      tag_27\n      swap2\n      swap1\n      tag_28\n      jump\t// in\n    tag_27:\n      mload(0x40)\n      dup1\n      swap2\n      sub\n      swap1\n      return\n        /* \"ICO.sol\":3131:3348  function approve(address spender, uint tokens) public override returns (bool success) {... */\n    tag_3:\n      callvalue\n      dup1\n      iszero\n      tag_29\n      jumpi\n      0x00\n      dup1\n      revert\n    tag_29:\n      pop\n      tag_30\n      0x04\n      dup1\n      calldatasize\n      sub\n      dup2\n      add\n      swap1\n      tag_31\n      swap2\n      swap1\n      tag_32\n      jump\t// in\n    tag_31:\n      tag_33\n      jump\t// in\n    tag_30:\n      mload(0x40)\n      tag_34\n      swap2\n      swap1\n      tag_35\n      jump\t// in\n    tag_34:\n      mload(0x40)\n      dup1\n      swap2\n      sub\n      swap1\n      return\n        /* \"ICO.sol\":2600:2702  function totalSupply() public virtual override view returns (uint) {... */\n    tag_4:\n      callvalue\n      dup1\n      iszero\n      tag_36\n      jumpi\n      0x00\n      dup1\n      revert\n    tag_36:\n      pop\n      tag_37\n      tag_38\n      jump\t// in\n    tag_37:\n      mload(0x40)\n      tag_39\n      swap2\n      swap1\n      tag_40\n      jump\t// in\n    tag_39:\n      mload(0x40)\n      dup1\n      swap2\n      sub\n      swap1\n      return\n        /* \"ICO.sol\":1570:1597  uint public allContributers */\n    tag_5:\n      callvalue\n      dup1\n      iszero\n      tag_41\n      jumpi\n      0x00\n      dup1\n      revert\n    tag_41:\n      pop\n      tag_42\n      tag_43\n      jump\t// in\n    tag_42:\n      mload(0x40)\n      tag_44\n      swap2\n      swap1\n      tag_40\n      jump\t// in\n    tag_44:\n      mload(0x40)\n      dup1\n      swap2\n      sub\n      swap1\n      return\n        /* \"ICO.sol\":3356:3708  function transferFrom(address from, address to, uint tokens) public override returns (bool success) {... */\n    tag_6:\n      callvalue\n      dup1\n      iszero\n      tag_45\n      jumpi\n      0x00\n      dup1\n      revert\n    tag_45:\n      pop\n      tag_46\n      0x04\n      dup1\n      calldatasize\n      sub\n      dup2\n      add\n      swap1\n      tag_47\n      swap2\n      swap1\n      tag_48\n      jump\t// in\n    tag_47:\n      tag_49\n      jump\t// in\n    tag_46:\n      mload(0x40)\n      tag_50\n      swap2\n      swap1\n      tag_35\n      jump\t// in\n    tag_50:\n      mload(0x40)\n      dup1\n      swap2\n      sub\n      swap1\n      return\n        /* \"ICO.sol\":4001:4128  function myAddress() public virtual view returns (address) {... */\n    tag_7:\n      callvalue\n      dup1\n      iszero\n      tag_51\n      jumpi\n      0x00\n      dup1\n      revert\n    tag_51:\n      pop\n      tag_52\n      tag_53\n      jump\t// in\n    tag_52:\n      mload(0x40)\n      tag_54\n      swap2\n      swap1\n      tag_55\n      jump\t// in\n    tag_54:\n      mload(0x40)\n      dup1\n      swap2\n      sub\n      swap1\n      return\n        /* \"ICO.sol\":1645:1686  mapping (address => uint) public balances */\n    tag_8:\n      callvalue\n      dup1\n      iszero\n      tag_56\n      jumpi\n      0x00\n      dup1\n      revert\n    tag_56:\n      pop\n      tag_57\n      0x04\n      dup1\n      calldatasize\n      sub\n      dup2\n      add\n      swap1\n      tag_58\n      swap2\n      swap1\n      tag_59\n      jump\t// in\n    tag_58:\n      tag_60\n      jump\t// in\n    tag_57:\n      mload(0x40)\n      tag_61\n      swap2\n      swap1\n      tag_40\n      jump\t// in\n    tag_61:\n      mload(0x40)\n      dup1\n      swap2\n      sub\n      swap1\n      return\n        /* \"ICO.sol\":1461:1481  uint public decimals */\n    tag_9:\n      callvalue\n      dup1\n      iszero\n      tag_62\n      jumpi\n      0x00\n      dup1\n      revert\n    tag_62:\n      pop\n      tag_63\n      tag_64\n      jump\t// in\n    tag_63:\n      mload(0x40)\n      tag_65\n      swap2\n      swap1\n      tag_40\n      jump\t// in\n    tag_65:\n      mload(0x40)\n      dup1\n      swap2\n      sub\n      swap1\n      return\n        /* \"ICO.sol\":4136:4266  function endSale() public {... */\n    tag_10:\n      callvalue\n      dup1\n      iszero\n      tag_66\n      jumpi\n      0x00\n      dup1\n      revert\n    tag_66:\n      pop\n      tag_67\n      tag_68\n      jump\t// in\n    tag_67:\n      stop\n        /* \"ICO.sol\":1488:1509  uint public bonusEnds */\n    tag_11:\n      callvalue\n      dup1\n      iszero\n      tag_69\n      jumpi\n      0x00\n      dup1\n      revert\n    tag_69:\n      pop\n      tag_70\n      tag_71\n      jump\t// in\n    tag_70:\n      mload(0x40)\n      tag_72\n      swap2\n      swap1\n      tag_40\n      jump\t// in\n    tag_72:\n      mload(0x40)\n      dup1\n      swap2\n      sub\n      swap1\n      return\n        /* \"ICO.sol\":2710:2839  function balanceOf(address tokenOwner) public override view returns (uint balance) {... */\n    tag_12:\n      callvalue\n      dup1\n      iszero\n      tag_73\n      jumpi\n      0x00\n      dup1\n      revert\n    tag_73:\n      pop\n      tag_74\n      0x04\n      dup1\n      calldatasize\n      sub\n      dup2\n      add\n      swap1\n      tag_75\n      swap2\n      swap1\n      tag_59\n      jump\t// in\n    tag_75:\n      tag_76\n      jump\t// in\n    tag_74:\n      mload(0x40)\n      tag_77\n      swap2\n      swap1\n      tag_40\n      jump\t// in\n    tag_77:\n      mload(0x40)\n      dup1\n      swap2\n      sub\n      swap1\n      return\n        /* \"ICO.sol\":1434:1454  string public symbol */\n    tag_13:\n      callvalue\n      dup1\n      iszero\n      tag_78\n      jumpi\n      0x00\n      dup1\n      revert\n    tag_78:\n      pop\n      tag_79\n      tag_80\n      jump\t// in\n    tag_79:\n      mload(0x40)\n      tag_81\n      swap2\n      swap1\n      tag_28\n      jump\t// in\n    tag_81:\n      mload(0x40)\n      dup1\n      swap2\n      sub\n      swap1\n      return\n        /* \"ICO.sol\":1516:1535  uint public icoEnds */\n    tag_14:\n      callvalue\n      dup1\n      iszero\n      tag_82\n      jumpi\n      0x00\n      dup1\n      revert\n    tag_82:\n      pop\n      tag_83\n      tag_84\n      jump\t// in\n    tag_83:\n      mload(0x40)\n      tag_85\n      swap2\n      swap1\n      tag_40\n      jump\t// in\n    tag_85:\n      mload(0x40)\n      dup1\n      swap2\n      sub\n      swap1\n      return\n        /* \"ICO.sol\":1542:1563  uint public icoStarts */\n    tag_15:\n      callvalue\n      dup1\n      iszero\n      tag_86\n      jumpi\n      0x00\n      dup1\n      revert\n    tag_86:\n      pop\n      tag_87\n      tag_88\n      jump\t// in\n    tag_87:\n      mload(0x40)\n      tag_89\n      swap2\n      swap1\n      tag_40\n      jump\t// in\n    tag_89:\n      mload(0x40)\n      dup1\n      swap2\n      sub\n      swap1\n      return\n        /* \"ICO.sol\":2847:3123  function transfer(address to, uint tokens) public override returns (bool success) {... */\n    tag_16:\n      callvalue\n      dup1\n      iszero\n      tag_90\n      jumpi\n      0x00\n      dup1\n      revert\n    tag_90:\n      pop\n      tag_91\n      0x04\n      dup1\n      calldatasize\n      sub\n      dup2\n      add\n      swap1\n      tag_92\n      swap2\n      swap1\n      tag_32\n      jump\t// in\n    tag_92:\n      tag_93\n      jump\t// in\n    tag_91:\n      mload(0x40)\n      tag_94\n      swap2\n      swap1\n      tag_35\n      jump\t// in\n    tag_94:\n      mload(0x40)\n      dup1\n      swap2\n      sub\n      swap1\n      return\n        /* \"ICO.sol\":3889:3993  function myBalance() public virtual view returns (uint) {... */\n    tag_17:\n      callvalue\n      dup1\n      iszero\n      tag_95\n      jumpi\n      0x00\n      dup1\n      revert\n    tag_95:\n      pop\n      tag_96\n      tag_97\n      jump\t// in\n    tag_96:\n      mload(0x40)\n      tag_98\n      swap2\n      swap1\n      tag_40\n      jump\t// in\n    tag_98:\n      mload(0x40)\n      dup1\n      swap2\n      sub\n      swap1\n      return\n        /* \"ICO.sol\":2135:2592  function buyTokens() public payable {... */\n    tag_18:\n      tag_99\n      tag_100\n      jump\t// in\n    tag_99:\n      stop\n        /* \"ICO.sol\":3717:3881  function allowance(address tokenOwner, address spender) public virtual override view returns (uint remaining) {... */\n    tag_19:\n      callvalue\n      dup1\n      iszero\n      tag_101\n      jumpi\n      0x00\n      dup1\n      revert\n    tag_101:\n      pop\n      tag_102\n      0x04\n      dup1\n      calldatasize\n      sub\n      dup2\n      add\n      swap1\n      tag_103\n      swap2\n      swap1\n      tag_104\n      jump\t// in\n    tag_103:\n      tag_105\n      jump\t// in\n    tag_102:\n      mload(0x40)\n      tag_106\n      swap2\n      swap1\n      tag_40\n      jump\t// in\n    tag_106:\n      mload(0x40)\n      dup1\n      swap2\n      sub\n      swap1\n      return\n        /* \"ICO.sol\":1754:2127  function ICO_Constructor() public {... */\n    tag_20:\n      callvalue\n      dup1\n      iszero\n      tag_107\n      jumpi\n      0x00\n      dup1\n      revert\n    tag_107:\n      pop\n      tag_108\n      tag_109\n      jump\t// in\n    tag_108:\n      stop\n        /* \"ICO.sol\":1409:1427  string public name */\n    tag_26:\n      0x00\n      dup1\n      sload\n      tag_110\n      swap1\n      tag_111\n      jump\t// in\n    tag_110:\n      dup1\n      0x1f\n      add\n      0x20\n      dup1\n      swap2\n      div\n      mul\n      0x20\n      add\n      mload(0x40)\n      swap1\n      dup2\n      add\n      0x40\n      mstore\n      dup1\n      swap3\n      swap2\n      swap1\n      dup2\n      dup2\n      mstore\n      0x20\n      add\n      dup3\n      dup1\n      sload\n      tag_112\n      swap1\n      tag_111\n      jump\t// in\n    tag_112:\n      dup1\n      iszero\n      tag_113\n      jumpi\n      dup1\n      0x1f\n      lt\n      tag_114\n      jumpi\n      0x0100\n      dup1\n      dup4\n      sload\n      div\n      mul\n      dup4\n      mstore\n      swap2\n      0x20\n      add\n      swap2\n      jump(tag_113)\n    tag_114:\n      dup3\n      add\n      swap2\n      swap1\n      0x00\n      mstore\n      keccak256(0x00, 0x20)\n      swap1\n    tag_115:\n      dup2\n      sload\n      dup2\n      mstore\n      swap1\n      0x01\n      add\n      swap1\n      0x20\n      add\n      dup1\n      dup4\n      gt\n      tag_115\n      jumpi\n      dup3\n      swap1\n      sub\n      0x1f\n      and\n      dup3\n      add\n      swap2\n    tag_113:\n      pop\n      pop\n      pop\n      pop\n      pop\n      dup2\n      jump\t// out\n        /* \"ICO.sol\":3131:3348  function approve(address spender, uint tokens) public override returns (bool success) {... */\n    tag_33:\n        /* \"ICO.sol\":3203:3215  bool success */\n      0x00\n        /* \"ICO.sol\":3259:3265  tokens */\n      dup2\n        /* \"ICO.sol\":3228:3235  allowed */\n      0x0a\n        /* \"ICO.sol\":3228:3247  allowed[msg.sender] */\n      0x00\n        /* \"ICO.sol\":3236:3246  msg.sender */\n      caller\n        /* \"ICO.sol\":3228:3247  allowed[msg.sender] */\n      0xffffffffffffffffffffffffffffffffffffffff\n      and\n      0xffffffffffffffffffffffffffffffffffffffff\n      and\n      dup2\n      mstore\n      0x20\n      add\n      swap1\n      dup2\n      mstore\n      0x20\n      add\n      0x00\n      keccak256\n        /* \"ICO.sol\":3228:3256  allowed[msg.sender][spender] */\n      0x00\n        /* \"ICO.sol\":3248:3255  spender */\n      dup6\n        /* \"ICO.sol\":3228:3256  allowed[msg.sender][spender] */\n      0xffffffffffffffffffffffffffffffffffffffff\n      and\n      0xffffffffffffffffffffffffffffffffffffffff\n      and\n      dup2\n      mstore\n      0x20\n      add\n      swap1\n      dup2\n      mstore\n      0x20\n      add\n      0x00\n      keccak256\n        /* \"ICO.sol\":3228:3265  allowed[msg.sender][spender] = tokens */\n      dup2\n      swap1\n      sstore\n      pop\n        /* \"ICO.sol\":3302:3309  spender */\n      dup3\n        /* \"ICO.sol\":3281:3318  Approval(msg.sender, spender, tokens) */\n      0xffffffffffffffffffffffffffffffffffffffff\n      and\n        /* \"ICO.sol\":3290:3300  msg.sender */\n      caller\n        /* \"ICO.sol\":3281:3318  Approval(msg.sender, spender, tokens) */\n      0xffffffffffffffffffffffffffffffffffffffff\n      and\n      0x8c5be1e5ebec7d5bd14f71427d1e84f3dd0314c0f7b2291e5b200ac8c7c3b925\n        /* \"ICO.sol\":3311:3317  tokens */\n      dup5\n        /* \"ICO.sol\":3281:3318  Approval(msg.sender, spender, tokens) */\n      mload(0x40)\n      tag_117\n      swap2\n      swap1\n      tag_40\n      jump\t// in\n    tag_117:\n      mload(0x40)\n      dup1\n      swap2\n      sub\n      swap1\n      log3\n        /* \"ICO.sol\":3336:3340  true */\n      0x01\n        /* \"ICO.sol\":3329:3340  return true */\n      swap1\n      pop\n        /* \"ICO.sol\":3131:3348  function approve(address spender, uint tokens) public override returns (bool success) {... */\n      swap3\n      swap2\n      pop\n      pop\n      jump\t// out\n        /* \"ICO.sol\":2600:2702  function totalSupply() public virtual override view returns (uint) {... */\n    tag_38:\n        /* \"ICO.sol\":2661:2665  uint */\n      0x00\n        /* \"ICO.sol\":2685:2694  allTokens */\n      sload(0x07)\n        /* \"ICO.sol\":2678:2694  return allTokens */\n      swap1\n      pop\n        /* \"ICO.sol\":2600:2702  function totalSupply() public virtual override view returns (uint) {... */\n      swap1\n      jump\t// out\n        /* \"ICO.sol\":1570:1597  uint public allContributers */\n    tag_43:\n      sload(0x06)\n      dup2\n      jump\t// out\n        /* \"ICO.sol\":3356:3708  function transferFrom(address from, address to, uint tokens) public override returns (bool success) {... */\n    tag_49:\n        /* \"ICO.sol\":3442:3454  bool success */\n      0x00\n        /* \"ICO.sol\":3484:3510  balances[from].sub(tokens) */\n      tag_120\n        /* \"ICO.sol\":3503:3509  tokens */\n      dup3\n        /* \"ICO.sol\":3484:3492  balances */\n      0x09\n        /* \"ICO.sol\":3484:3498  balances[from] */\n      0x00\n        /* \"ICO.sol\":3493:3497  from */\n      dup8\n        /* \"ICO.sol\":3484:3498  balances[from] */\n      0xffffffffffffffffffffffffffffffffffffffff\n      and\n      0xffffffffffffffffffffffffffffffffffffffff\n      and\n      dup2\n      mstore\n      0x20\n      add\n      swap1\n      dup2\n      mstore\n      0x20\n      add\n      0x00\n      keccak256\n      sload\n        /* \"ICO.sol\":3484:3502  balances[from].sub */\n      tag_121\n      swap1\n        /* \"ICO.sol\":3484:3510  balances[from].sub(tokens) */\n      swap2\n      swap1\n      0xffffffff\n      and\n      jump\t// in\n    tag_120:\n        /* \"ICO.sol\":3467:3475  balances */\n      0x09\n        /* \"ICO.sol\":3467:3481  balances[from] */\n      0x00\n        /* \"ICO.sol\":3476:3480  from */\n      dup7\n        /* \"ICO.sol\":3467:3481  balances[from] */\n      0xffffffffffffffffffffffffffffffffffffffff\n      and\n      0xffffffffffffffffffffffffffffffffffffffff\n      and\n      dup2\n      mstore\n      0x20\n      add\n      swap1\n      dup2\n      mstore\n      0x20\n      add\n      0x00\n      keccak256\n        /* \"ICO.sol\":3467:3510  balances[from] = balances[from].sub(tokens) */\n      dup2\n      swap1\n      sstore\n      pop\n        /* \"ICO.sol\":3549:3586  allowed[from][msg.sender].sub(tokens) */\n      tag_122\n        /* \"ICO.sol\":3579:3585  tokens */\n      dup3\n        /* \"ICO.sol\":3549:3556  allowed */\n      0x0a\n        /* \"ICO.sol\":3549:3562  allowed[from] */\n      0x00\n        /* \"ICO.sol\":3557:3561  from */\n      dup8\n        /* \"ICO.sol\":3549:3562  allowed[from] */\n      0xffffffffffffffffffffffffffffffffffffffff\n      and\n      0xffffffffffffffffffffffffffffffffffffffff\n      and\n      dup2\n      mstore\n      0x20\n      add\n      swap1\n      dup2\n      mstore\n      0x20\n      add\n      0x00\n      keccak256\n        /* \"ICO.sol\":3549:3574  allowed[from][msg.sender] */\n      0x00\n        /* \"ICO.sol\":3563:3573  msg.sender */\n      caller\n        /* \"ICO.sol\":3549:3574  allowed[from][msg.sender] */\n      0xffffffffffffffffffffffffffffffffffffffff\n      and\n      0xffffffffffffffffffffffffffffffffffffffff\n      and\n      dup2\n      mstore\n      0x20\n      add\n      swap1\n      dup2\n      mstore\n      0x20\n      add\n      0x00\n      keccak256\n      sload\n        /* \"ICO.sol\":3549:3578  allowed[from][msg.sender].sub */\n      tag_121\n      swap1\n        /* \"ICO.sol\":3549:3586  allowed[from][msg.sender].sub(tokens) */\n      swap2\n      swap1\n      0xffffffff\n      and\n      jump\t// in\n    tag_122:\n        /* \"ICO.sol\":3521:3528  allowed */\n      0x0a\n        /* \"ICO.sol\":3521:3534  allowed[from] */\n      0x00\n        /* \"ICO.sol\":3529:3533  from */\n      dup7\n        /* \"ICO.sol\":3521:3534  allowed[from] */\n      0xffffffffffffffffffffffffffffffffffffffff\n      and\n      0xffffffffffffffffffffffffffffffffffffffff\n      and\n      dup2\n      mstore\n      0x20\n      add\n      swap1\n      dup2\n      mstore\n      0x20\n      add\n      0x00\n      keccak256\n        /* \"ICO.sol\":3521:3546  allowed[from][msg.sender] */\n      0x00\n        /* \"ICO.sol\":3535:3545  msg.sender */\n      caller\n        /* \"ICO.sol\":3521:3546  allowed[from][msg.sender] */\n      0xffffffffffffffffffffffffffffffffffffffff\n      and\n      0xffffffffffffffffffffffffffffffffffffffff\n      and\n      dup2\n      mstore\n      0x20\n      add\n      swap1\n      dup2\n      mstore\n      0x20\n      add\n      0x00\n      keccak256\n        /* \"ICO.sol\":3521:3586  allowed[from][msg.sender] = allowed[from][msg.sender].sub(tokens) */\n      dup2\n      swap1\n      sstore\n      pop\n        /* \"ICO.sol\":3612:3636  balances[to].add(tokens) */\n      tag_123\n        /* \"ICO.sol\":3629:3635  tokens */\n      dup3\n        /* \"ICO.sol\":3612:3620  balances */\n      0x09\n        /* \"ICO.sol\":3612:3624  balances[to] */\n      0x00\n        /* \"ICO.sol\":3621:3623  to */\n      dup7\n        /* \"ICO.sol\":3612:3624  balances[to] */\n      0xffffffffffffffffffffffffffffffffffffffff\n      and\n      0xffffffffffffffffffffffffffffffffffffffff\n      and\n      dup2\n      mstore\n      0x20\n      add\n      swap1\n      dup2\n      mstore\n      0x20\n      add\n      0x00\n      keccak256\n      sload\n        /* \"ICO.sol\":3612:3628  balances[to].add */\n      tag_124\n      swap1\n        /* \"ICO.sol\":3612:3636  balances[to].add(tokens) */\n      swap2\n      swap1\n      0xffffffff\n      and\n      jump\t// in\n    tag_123:\n        /* \"ICO.sol\":3597:3605  balances */\n      0x09\n        /* \"ICO.sol\":3597:3609  balances[to] */\n      0x00\n        /* \"ICO.sol\":3606:3608  to */\n      dup6\n        /* \"ICO.sol\":3597:3609  balances[to] */\n      0xffffffffffffffffffffffffffffffffffffffff\n      and\n      0xffffffffffffffffffffffffffffffffffffffff\n      and\n      dup2\n      mstore\n      0x20\n      add\n      swap1\n      dup2\n      mstore\n      0x20\n      add\n      0x00\n      keccak256\n        /* \"ICO.sol\":3597:3636  balances[to] = balances[to].add(tokens) */\n      dup2\n      swap1\n      sstore\n      pop\n        /* \"ICO.sol\":3667:3669  to */\n      dup3\n        /* \"ICO.sol\":3652:3678  Transfer(from, to, tokens) */\n      0xffffffffffffffffffffffffffffffffffffffff\n      and\n        /* \"ICO.sol\":3661:3665  from */\n      dup5\n        /* \"ICO.sol\":3652:3678  Transfer(from, to, tokens) */\n      0xffffffffffffffffffffffffffffffffffffffff\n      and\n      0xddf252ad1be2c89b69c2b068fc378daa952ba7f163c4a11628f55a4df523b3ef\n        /* \"ICO.sol\":3671:3677  tokens */\n      dup5\n        /* \"ICO.sol\":3652:3678  Transfer(from, to, tokens) */\n      mload(0x40)\n      tag_125\n      swap2\n      swap1\n      tag_40\n      jump\t// in\n    tag_125:\n      mload(0x40)\n      dup1\n      swap2\n      sub\n      swap1\n      log3\n        /* \"ICO.sol\":3696:3700  true */\n      0x01\n        /* \"ICO.sol\":3689:3700  return true */\n      swap1\n      pop\n        /* \"ICO.sol\":3356:3708  function transferFrom(address from, address to, uint tokens) public override returns (bool success) {... */\n      swap4\n      swap3\n      pop\n      pop\n      pop\n      jump\t// out\n        /* \"ICO.sol\":4001:4128  function myAddress() public virtual view returns (address) {... */\n    tag_53:\n        /* \"ICO.sol\":4051:4058  address */\n      0x00\n        /* \"ICO.sol\":4071:4084  address myAdr */\n      dup1\n        /* \"ICO.sol\":4087:4097  msg.sender */\n      caller\n        /* \"ICO.sol\":4071:4097  address myAdr = msg.sender */\n      swap1\n      pop\n        /* \"ICO.sol\":4115:4120  myAdr */\n      dup1\n        /* \"ICO.sol\":4108:4120  return myAdr */\n      swap2\n      pop\n      pop\n        /* \"ICO.sol\":4001:4128  function myAddress() public virtual view returns (address) {... */\n      swap1\n      jump\t// out\n        /* \"ICO.sol\":1645:1686  mapping (address => uint) public balances */\n    tag_60:\n      mstore(0x20, 0x09)\n      dup1\n      0x00\n      mstore\n      keccak256(0x00, 0x40)\n      0x00\n      swap2\n      pop\n      swap1\n      pop\n      sload\n      dup2\n      jump\t// out\n        /* \"ICO.sol\":1461:1481  uint public decimals */\n    tag_64:\n      sload(0x02)\n      dup2\n      jump\t// out\n        /* \"ICO.sol\":4136:4266  function endSale() public {... */\n    tag_68:\n        /* \"ICO.sol\":4195:4200  admin */\n      0x08\n      0x00\n      swap1\n      sload\n      swap1\n      0x0100\n      exp\n      swap1\n      div\n      0xffffffffffffffffffffffffffffffffffffffff\n      and\n        /* \"ICO.sol\":4181:4200  msg.sender == admin */\n      0xffffffffffffffffffffffffffffffffffffffff\n      and\n        /* \"ICO.sol\":4181:4191  msg.sender */\n      caller\n        /* \"ICO.sol\":4181:4200  msg.sender == admin */\n      0xffffffffffffffffffffffffffffffffffffffff\n      and\n      eq\n        /* \"ICO.sol\":4173:4201  require(msg.sender == admin) */\n      tag_128\n      jumpi\n      0x00\n      dup1\n      revert\n    tag_128:\n        /* \"ICO.sol\":4220:4225  admin */\n      0x08\n      0x00\n      swap1\n      sload\n      swap1\n      0x0100\n      exp\n      swap1\n      div\n      0xffffffffffffffffffffffffffffffffffffffff\n      and\n        /* \"ICO.sol\":4212:4235  payable(admin).transfer */\n      0xffffffffffffffffffffffffffffffffffffffff\n      and\n        /* \"ICO.sol\":4212:4258  payable(admin).transfer(address(this).balance) */\n      0x08fc\n        /* \"ICO.sol\":4236:4257  address(this).balance */\n      selfbalance\n        /* \"ICO.sol\":4212:4258  payable(admin).transfer(address(this).balance) */\n      swap1\n      dup2\n      iszero\n      mul\n      swap1\n      mload(0x40)\n      0x00\n      mload(0x40)\n      dup1\n      dup4\n      sub\n      dup2\n      dup6\n      dup9\n      dup9\n      call\n      swap4\n      pop\n      pop\n      pop\n      pop\n      iszero\n      dup1\n      iszero\n      tag_130\n      jumpi\n      returndatasize\n      0x00\n      dup1\n      returndatacopy\n      revert(0x00, returndatasize)\n    tag_130:\n      pop\n        /* \"ICO.sol\":4136:4266  function endSale() public {... */\n      jump\t// out\n        /* \"ICO.sol\":1488:1509  uint public bonusEnds */\n    tag_71:\n      sload(0x03)\n      dup2\n      jump\t// out\n        /* \"ICO.sol\":2710:2839  function balanceOf(address tokenOwner) public override view returns (uint balance) {... */\n    tag_76:\n        /* \"ICO.sol\":2779:2791  uint balance */\n      0x00\n        /* \"ICO.sol\":2811:2819  balances */\n      0x09\n        /* \"ICO.sol\":2811:2831  balances[tokenOwner] */\n      0x00\n        /* \"ICO.sol\":2820:2830  tokenOwner */\n      dup4\n        /* \"ICO.sol\":2811:2831  balances[tokenOwner] */\n      0xffffffffffffffffffffffffffffffffffffffff\n      and\n      0xffffffffffffffffffffffffffffffffffffffff\n      and\n      dup2\n      mstore\n      0x20\n      add\n      swap1\n      dup2\n      mstore\n      0x20\n      add\n      0x00\n      keccak256\n      sload\n        /* \"ICO.sol\":2804:2831  return balances[tokenOwner] */\n      swap1\n      pop\n        /* \"ICO.sol\":2710:2839  function balanceOf(address tokenOwner) public override view returns (uint balance) {... */\n      swap2\n      swap1\n      pop\n      jump\t// out\n        /* \"ICO.sol\":1434:1454  string public symbol */\n    tag_80:\n      0x01\n      dup1\n      sload\n      tag_132\n      swap1\n      tag_111\n      jump\t// in\n    tag_132:\n      dup1\n      0x1f\n      add\n      0x20\n      dup1\n      swap2\n      div\n      mul\n      0x20\n      add\n      mload(0x40)\n      swap1\n      dup2\n      add\n      0x40\n      mstore\n      dup1\n      swap3\n      swap2\n      swap1\n      dup2\n      dup2\n      mstore\n      0x20\n      add\n      dup3\n      dup1\n      sload\n      tag_133\n      swap1\n      tag_111\n      jump\t// in\n    tag_133:\n      dup1\n      iszero\n      tag_134\n      jumpi\n      dup1\n      0x1f\n      lt\n      tag_135\n      jumpi\n      0x0100\n      dup1\n      dup4\n      sload\n      div\n      mul\n      dup4\n      mstore\n      swap2\n      0x20\n      add\n      swap2\n      jump(tag_134)\n    tag_135:\n      dup3\n      add\n      swap2\n      swap1\n      0x00\n      mstore\n      keccak256(0x00, 0x20)\n      swap1\n    tag_136:\n      dup2\n      sload\n      dup2\n      mstore\n      swap1\n      0x01\n      add\n      swap1\n      0x20\n      add\n      dup1\n      dup4\n      gt\n      tag_136\n      jumpi\n      dup3\n      swap1\n      sub\n      0x1f\n      and\n      dup3\n      add\n      swap2\n    tag_134:\n      pop\n      pop\n      pop\n      pop\n      pop\n      dup2\n      jump\t// out\n        /* \"ICO.sol\":1516:1535  uint public icoEnds */\n    tag_84:\n      sload(0x04)\n      dup2\n      jump\t// out\n        /* \"ICO.sol\":1542:1563  uint public icoStarts */\n    tag_88:\n      sload(0x05)\n      dup2\n      jump\t// out\n        /* \"ICO.sol\":2847:3123  function transfer(address to, uint tokens) public override returns (bool success) {... */\n    tag_93:\n        /* \"ICO.sol\":2915:2927  bool success */\n      0x00\n        /* \"ICO.sol\":2963:2995  balances[msg.sender].sub(tokens) */\n      tag_138\n        /* \"ICO.sol\":2988:2994  tokens */\n      dup3\n        /* \"ICO.sol\":2963:2971  balances */\n      0x09\n        /* \"ICO.sol\":2963:2983  balances[msg.sender] */\n      0x00\n        /* \"ICO.sol\":2972:2982  msg.sender */\n      caller\n        /* \"ICO.sol\":2963:2983  balances[msg.sender] */\n      0xffffffffffffffffffffffffffffffffffffffff\n      and\n      0xffffffffffffffffffffffffffffffffffffffff\n      and\n      dup2\n      mstore\n      0x20\n      add\n      swap1\n      dup2\n      mstore\n      0x20\n      add\n      0x00\n      keccak256\n      sload\n        /* \"ICO.sol\":2963:2987  balances[msg.sender].sub */\n      tag_121\n      swap1\n        /* \"ICO.sol\":2963:2995  balances[msg.sender].sub(tokens) */\n      swap2\n      swap1\n      0xffffffff\n      and\n      jump\t// in\n    tag_138:\n        /* \"ICO.sol\":2940:2948  balances */\n      0x09\n        /* \"ICO.sol\":2940:2960  balances[msg.sender] */\n      0x00\n        /* \"ICO.sol\":2949:2959  msg.sender */\n      caller\n        /* \"ICO.sol\":2940:2960  balances[msg.sender] */\n      0xffffffffffffffffffffffffffffffffffffffff\n      and\n      0xffffffffffffffffffffffffffffffffffffffff\n      and\n      dup2\n      mstore\n      0x20\n      add\n      swap1\n      dup2\n      mstore\n      0x20\n      add\n      0x00\n      keccak256\n        /* \"ICO.sol\":2940:2995  balances[msg.sender] = balances[msg.sender].sub(tokens) */\n      dup2\n      swap1\n      sstore\n      pop\n        /* \"ICO.sol\":3021:3045  balances[to].add(tokens) */\n      tag_139\n        /* \"ICO.sol\":3038:3044  tokens */\n      dup3\n        /* \"ICO.sol\":3021:3029  balances */\n      0x09\n        /* \"ICO.sol\":3021:3033  balances[to] */\n      0x00\n        /* \"ICO.sol\":3030:3032  to */\n      dup7\n        /* \"ICO.sol\":3021:3033  balances[to] */\n      0xffffffffffffffffffffffffffffffffffffffff\n      and\n      0xffffffffffffffffffffffffffffffffffffffff\n      and\n      dup2\n      mstore\n      0x20\n      add\n      swap1\n      dup2\n      mstore\n      0x20\n      add\n      0x00\n      keccak256\n      sload\n        /* \"ICO.sol\":3021:3037  balances[to].add */\n      tag_124\n      swap1\n        /* \"ICO.sol\":3021:3045  balances[to].add(tokens) */\n      swap2\n      swap1\n      0xffffffff\n      and\n      jump\t// in\n    tag_139:\n        /* \"ICO.sol\":3006:3014  balances */\n      0x09\n        /* \"ICO.sol\":3006:3018  balances[to] */\n      0x00\n        /* \"ICO.sol\":3015:3017  to */\n      dup6\n        /* \"ICO.sol\":3006:3018  balances[to] */\n      0xffffffffffffffffffffffffffffffffffffffff\n      and\n      0xffffffffffffffffffffffffffffffffffffffff\n      and\n      dup2\n      mstore\n      0x20\n      add\n      swap1\n      dup2\n      mstore\n      0x20\n      add\n      0x00\n      keccak256\n        /* \"ICO.sol\":3006:3045  balances[to] = balances[to].add(tokens) */\n      dup2\n      swap1\n      sstore\n      pop\n        /* \"ICO.sol\":3082:3084  to */\n      dup3\n        /* \"ICO.sol\":3061:3093  Transfer(msg.sender, to, tokens) */\n      0xffffffffffffffffffffffffffffffffffffffff\n      and\n        /* \"ICO.sol\":3070:3080  msg.sender */\n      caller\n        /* \"ICO.sol\":3061:3093  Transfer(msg.sender, to, tokens) */\n      0xffffffffffffffffffffffffffffffffffffffff\n      and\n      0xddf252ad1be2c89b69c2b068fc378daa952ba7f163c4a11628f55a4df523b3ef\n        /* \"ICO.sol\":3086:3092  tokens */\n      dup5\n        /* \"ICO.sol\":3061:3093  Transfer(msg.sender, to, tokens) */\n      mload(0x40)\n      tag_140\n      swap2\n      swap1\n      tag_40\n      jump\t// in\n    tag_140:\n      mload(0x40)\n      dup1\n      swap2\n      sub\n      swap1\n      log3\n        /* \"ICO.sol\":3111:3115  true */\n      0x01\n        /* \"ICO.sol\":3104:3115  return true */\n      swap1\n      pop\n        /* \"ICO.sol\":2847:3123  function transfer(address to, uint tokens) public override returns (bool success) {... */\n      swap3\n      swap2\n      pop\n      pop\n      jump\t// out\n        /* \"ICO.sol\":3889:3993  function myBalance() public virtual view returns (uint) {... */\n    tag_97:\n        /* \"ICO.sol\":3939:3943  uint */\n      0x00\n        /* \"ICO.sol\":3964:3972  balances */\n      0x09\n        /* \"ICO.sol\":3964:3984  balances[msg.sender] */\n      0x00\n        /* \"ICO.sol\":3973:3983  msg.sender */\n      caller\n        /* \"ICO.sol\":3964:3984  balances[msg.sender] */\n      0xffffffffffffffffffffffffffffffffffffffff\n      and\n      0xffffffffffffffffffffffffffffffffffffffff\n      and\n      dup2\n      mstore\n      0x20\n      add\n      swap1\n      dup2\n      mstore\n      0x20\n      add\n      0x00\n      keccak256\n      sload\n        /* \"ICO.sol\":3956:3985  return (balances[msg.sender]) */\n      swap1\n      pop\n        /* \"ICO.sol\":3889:3993  function myBalance() public virtual view returns (uint) {... */\n      swap1\n      jump\t// out\n        /* \"ICO.sol\":2135:2592  function buyTokens() public payable {... */\n    tag_100:\n        /* \"ICO.sol\":2182:2193  uint tokens */\n      0x00\n        /* \"ICO.sol\":2227:2236  bonusEnds */\n      sload(0x03)\n        /* \"ICO.sol\":2208:2223  block.timestamp */\n      timestamp\n        /* \"ICO.sol\":2208:2236  block.timestamp <= bonusEnds */\n      gt\n        /* \"ICO.sol\":2204:2351  if (block.timestamp <= bonusEnds) {... */\n      tag_143\n      jumpi\n        /* \"ICO.sol\":2262:2280  msg.value.mul(125) */\n      tag_144\n        /* \"ICO.sol\":2276:2279  125 */\n      0x7d\n        /* \"ICO.sol\":2262:2271  msg.value */\n      callvalue\n        /* \"ICO.sol\":2262:2275  msg.value.mul */\n      tag_145\n      swap1\n        /* \"ICO.sol\":2262:2280  msg.value.mul(125) */\n      swap2\n      swap1\n      0xffffffff\n      and\n      jump\t// in\n    tag_144:\n        /* \"ICO.sol\":2253:2280  tokens = msg.value.mul(125) */\n      swap1\n      pop\n        /* \"ICO.sol\":2204:2351  if (block.timestamp <= bonusEnds) {... */\n      jump(tag_146)\n    tag_143:\n        /* \"ICO.sol\":2321:2339  msg.value.mul(100) */\n      tag_147\n        /* \"ICO.sol\":2335:2338  100 */\n      0x64\n        /* \"ICO.sol\":2321:2330  msg.value */\n      callvalue\n        /* \"ICO.sol\":2321:2334  msg.value.mul */\n      tag_145\n      swap1\n        /* \"ICO.sol\":2321:2339  msg.value.mul(100) */\n      swap2\n      swap1\n      0xffffffff\n      and\n      jump\t// in\n    tag_147:\n        /* \"ICO.sol\":2312:2339  tokens = msg.value.mul(100) */\n      swap1\n      pop\n        /* \"ICO.sol\":2204:2351  if (block.timestamp <= bonusEnds) {... */\n    tag_146:\n        /* \"ICO.sol\":2372:2390  msg.value.mul(100) */\n      tag_148\n        /* \"ICO.sol\":2386:2389  100 */\n      0x64\n        /* \"ICO.sol\":2372:2381  msg.value */\n      callvalue\n        /* \"ICO.sol\":2372:2385  msg.value.mul */\n      tag_145\n      swap1\n        /* \"ICO.sol\":2372:2390  msg.value.mul(100) */\n      swap2\n      swap1\n      0xffffffff\n      and\n      jump\t// in\n    tag_148:\n        /* \"ICO.sol\":2363:2390  tokens = msg.value.mul(100) */\n      swap1\n      pop\n        /* \"ICO.sol\":2424:2456  balances[msg.sender].add(tokens) */\n      tag_149\n        /* \"ICO.sol\":2449:2455  tokens */\n      dup2\n        /* \"ICO.sol\":2424:2432  balances */\n      0x09\n        /* \"ICO.sol\":2424:2444  balances[msg.sender] */\n      0x00\n        /* \"ICO.sol\":2433:2443  msg.sender */\n      caller\n        /* \"ICO.sol\":2424:2444  balances[msg.sender] */\n      0xffffffffffffffffffffffffffffffffffffffff\n      and\n      0xffffffffffffffffffffffffffffffffffffffff\n      and\n      dup2\n      mstore\n      0x20\n      add\n      swap1\n      dup2\n      mstore\n      0x20\n      add\n      0x00\n      keccak256\n      sload\n        /* \"ICO.sol\":2424:2448  balances[msg.sender].add */\n      tag_124\n      swap1\n        /* \"ICO.sol\":2424:2456  balances[msg.sender].add(tokens) */\n      swap2\n      swap1\n      0xffffffff\n      and\n      jump\t// in\n    tag_149:\n        /* \"ICO.sol\":2401:2409  balances */\n      0x09\n        /* \"ICO.sol\":2401:2421  balances[msg.sender] */\n      0x00\n        /* \"ICO.sol\":2410:2420  msg.sender */\n      caller\n        /* \"ICO.sol\":2401:2421  balances[msg.sender] */\n      0xffffffffffffffffffffffffffffffffffffffff\n      and\n      0xffffffffffffffffffffffffffffffffffffffff\n      and\n      dup2\n      mstore\n      0x20\n      add\n      swap1\n      dup2\n      mstore\n      0x20\n      add\n      0x00\n      keccak256\n        /* \"ICO.sol\":2401:2456  balances[msg.sender] = balances[msg.sender].add(tokens) */\n      dup2\n      swap1\n      sstore\n      pop\n        /* \"ICO.sol\":2479:2500  allTokens.add(tokens) */\n      tag_150\n        /* \"ICO.sol\":2493:2499  tokens */\n      dup2\n        /* \"ICO.sol\":2479:2488  allTokens */\n      sload(0x07)\n        /* \"ICO.sol\":2479:2492  allTokens.add */\n      tag_124\n      swap1\n        /* \"ICO.sol\":2479:2500  allTokens.add(tokens) */\n      swap2\n      swap1\n      0xffffffff\n      and\n      jump\t// in\n    tag_150:\n        /* \"ICO.sol\":2467:2476  allTokens */\n      0x07\n        /* \"ICO.sol\":2467:2500  allTokens = allTokens.add(tokens) */\n      dup2\n      swap1\n      sstore\n      pop\n        /* \"ICO.sol\":2537:2547  msg.sender */\n      caller\n        /* \"ICO.sol\":2516:2556  Transfer(address(0), msg.sender, tokens) */\n      0xffffffffffffffffffffffffffffffffffffffff\n      and\n        /* \"ICO.sol\":2533:2534  0 */\n      0x00\n        /* \"ICO.sol\":2516:2556  Transfer(address(0), msg.sender, tokens) */\n      0xffffffffffffffffffffffffffffffffffffffff\n      and\n      0xddf252ad1be2c89b69c2b068fc378daa952ba7f163c4a11628f55a4df523b3ef\n        /* \"ICO.sol\":2549:2555  tokens */\n      dup4\n        /* \"ICO.sol\":2516:2556  Transfer(address(0), msg.sender, tokens) */\n      mload(0x40)\n      tag_151\n      swap2\n      swap1\n      tag_40\n      jump\t// in\n    tag_151:\n      mload(0x40)\n      dup1\n      swap2\n      sub\n      swap1\n      log3\n        /* \"ICO.sol\":2567:2582  allContributers */\n      0x06\n      0x00\n        /* \"ICO.sol\":2567:2584  allContributers++ */\n      dup2\n      sload\n      dup1\n      swap3\n      swap2\n      swap1\n      tag_152\n      swap1\n      tag_153\n      jump\t// in\n    tag_152:\n      swap2\n      swap1\n      pop\n      sstore\n      pop\n        /* \"ICO.sol\":2171:2592  {... */\n      pop\n        /* \"ICO.sol\":2135:2592  function buyTokens() public payable {... */\n      jump\t// out\n        /* \"ICO.sol\":3717:3881  function allowance(address tokenOwner, address spender) public virtual override view returns (uint remaining) {... */\n    tag_105:\n        /* \"ICO.sol\":3811:3825  uint remaining */\n      0x00\n        /* \"ICO.sol\":3845:3852  allowed */\n      0x0a\n        /* \"ICO.sol\":3845:3864  allowed[tokenOwner] */\n      0x00\n        /* \"ICO.sol\":3853:3863  tokenOwner */\n      dup5\n        /* \"ICO.sol\":3845:3864  allowed[tokenOwner] */\n      0xffffffffffffffffffffffffffffffffffffffff\n      and\n      0xffffffffffffffffffffffffffffffffffffffff\n      and\n      dup2\n      mstore\n      0x20\n      add\n      swap1\n      dup2\n      mstore\n      0x20\n      add\n      0x00\n      keccak256\n        /* \"ICO.sol\":3845:3873  allowed[tokenOwner][spender] */\n      0x00\n        /* \"ICO.sol\":3865:3872  spender */\n      dup4\n        /* \"ICO.sol\":3845:3873  allowed[tokenOwner][spender] */\n      0xffffffffffffffffffffffffffffffffffffffff\n      and\n      0xffffffffffffffffffffffffffffffffffffffff\n      and\n      dup2\n      mstore\n      0x20\n      add\n      swap1\n      dup2\n      mstore\n      0x20\n      add\n      0x00\n      keccak256\n      sload\n        /* \"ICO.sol\":3838:3873  return allowed[tokenOwner][spender] */\n      swap1\n      pop\n        /* \"ICO.sol\":3717:3881  function allowance(address tokenOwner, address spender) public virtual override view returns (uint remaining) {... */\n      swap3\n      swap2\n      pop\n      pop\n      jump\t// out\n        /* \"ICO.sol\":1754:2127  function ICO_Constructor() public {... */\n    tag_109:\n        /* \"ICO.sol\":1799:1817  name = \"Demo Coin\" */\n      mload(0x40)\n      dup1\n      0x40\n      add\n      0x40\n      mstore\n      dup1\n      0x09\n      dup2\n      mstore\n      0x20\n      add\n      0x44656d6f20436f696e0000000000000000000000000000000000000000000000\n      dup2\n      mstore\n      pop\n        /* \"ICO.sol\":1799:1803  name */\n      0x00\n        /* \"ICO.sol\":1799:1817  name = \"Demo Coin\" */\n      swap1\n      dup1\n      mload\n      swap1\n      0x20\n      add\n      swap1\n      tag_156\n      swap3\n      swap2\n      swap1\n      tag_157\n      jump\t// in\n    tag_156:\n      pop\n        /* \"ICO.sol\":1839:1841  18 */\n      0x12\n        /* \"ICO.sol\":1828:1836  decimals */\n      0x02\n        /* \"ICO.sol\":1828:1841  decimals = 18 */\n      dup2\n      swap1\n      sstore\n      pop\n        /* \"ICO.sol\":1852:1865  symbol = \"DC\" */\n      mload(0x40)\n      dup1\n      0x40\n      add\n      0x40\n      mstore\n      dup1\n      0x02\n      dup2\n      mstore\n      0x20\n      add\n      0x4443000000000000000000000000000000000000000000000000000000000000\n      dup2\n      mstore\n      pop\n        /* \"ICO.sol\":1852:1858  symbol */\n      0x01\n        /* \"ICO.sol\":1852:1865  symbol = \"DC\" */\n      swap1\n      dup1\n      mload\n      swap1\n      0x20\n      add\n      swap1\n      tag_158\n      swap3\n      swap2\n      swap1\n      tag_157\n      jump\t// in\n    tag_158:\n      pop\n        /* \"ICO.sol\":1906:1913  2 weeks */\n      0x127500\n        /* \"ICO.sol\":1888:1903  block.timestamp */\n      timestamp\n        /* \"ICO.sol\":1888:1913  block.timestamp + 2 weeks */\n      tag_159\n      swap2\n      swap1\n      tag_160\n      jump\t// in\n    tag_159:\n        /* \"ICO.sol\":1876:1885  bonusEnds */\n      0x03\n        /* \"ICO.sol\":1876:1913  bonusEnds = block.timestamp + 2 weeks */\n      dup2\n      swap1\n      sstore\n      pop\n        /* \"ICO.sol\":1952:1959  4 weeks */\n      0x24ea00\n        /* \"ICO.sol\":1934:1949  block.timestamp */\n      timestamp\n        /* \"ICO.sol\":1934:1959  block.timestamp + 4 weeks */\n      tag_161\n      swap2\n      swap1\n      tag_160\n      jump\t// in\n    tag_161:\n        /* \"ICO.sol\":1924:1931  icoEnds */\n      0x04\n        /* \"ICO.sol\":1924:1959  icoEnds = block.timestamp + 4 weeks */\n      dup2\n      swap1\n      sstore\n      pop\n        /* \"ICO.sol\":1982:1997  block.timestamp */\n      timestamp\n        /* \"ICO.sol\":1970:1979  icoStarts */\n      0x05\n        /* \"ICO.sol\":1970:1997  icoStarts = block.timestamp */\n      dup2\n      swap1\n      sstore\n      pop\n        /* \"ICO.sol\":2020:2045  1000000000000000000 * 100 */\n      0x056bc75e2d63100000\n        /* \"ICO.sol\":2008:2017  allTokens */\n      0x07\n        /* \"ICO.sol\":2008:2045  allTokens = 1000000000000000000 * 100 */\n      dup2\n      swap1\n      sstore\n      pop\n        /* \"ICO.sol\":2065:2075  msg.sender */\n      caller\n        /* \"ICO.sol\":2056:2061  admin */\n      0x08\n      0x00\n        /* \"ICO.sol\":2056:2076  admin = (msg.sender) */\n      0x0100\n      exp\n      dup2\n      sload\n      dup2\n      0xffffffffffffffffffffffffffffffffffffffff\n      mul\n      not\n      and\n      swap1\n      dup4\n      0xffffffffffffffffffffffffffffffffffffffff\n      and\n      mul\n      or\n      swap1\n      sstore\n      pop\n        /* \"ICO.sol\":2110:2119  allTokens */\n      sload(0x07)\n        /* \"ICO.sol\":2087:2095  balances */\n      0x09\n        /* \"ICO.sol\":2087:2107  balances[msg.sender] */\n      0x00\n        /* \"ICO.sol\":2096:2106  msg.sender */\n      caller\n        /* \"ICO.sol\":2087:2107  balances[msg.sender] */\n      0xffffffffffffffffffffffffffffffffffffffff\n      and\n      0xffffffffffffffffffffffffffffffffffffffff\n      and\n      dup2\n      mstore\n      0x20\n      add\n      swap1\n      dup2\n      mstore\n      0x20\n      add\n      0x00\n      keccak256\n        /* \"ICO.sol\":2087:2119  balances[msg.sender] = allTokens */\n      dup2\n      swap1\n      sstore\n      pop\n        /* \"ICO.sol\":1754:2127  function ICO_Constructor() public {... */\n      jump\t// out\n        /* \"ICO.sol\":960:1074  function sub(uint a, uint b) internal pure returns (uint c) {... */\n    tag_121:\n        /* \"ICO.sol\":1012:1018  uint c */\n      0x00\n        /* \"ICO.sol\":1044:1045  a */\n      dup3\n        /* \"ICO.sol\":1039:1040  b */\n      dup3\n        /* \"ICO.sol\":1039:1045  b <= a */\n      gt\n      iszero\n        /* \"ICO.sol\":1031:1046  require(b <= a) */\n      tag_163\n      jumpi\n      0x00\n      dup1\n      revert\n    tag_163:\n        /* \"ICO.sol\":1065:1066  b */\n      dup2\n        /* \"ICO.sol\":1061:1062  a */\n      dup4\n        /* \"ICO.sol\":1061:1066  a - b */\n      tag_164\n      swap2\n      swap1\n      tag_165\n      jump\t// in\n    tag_164:\n        /* \"ICO.sol\":1057:1066  c = a - b */\n      swap1\n      pop\n        /* \"ICO.sol\":960:1074  function sub(uint a, uint b) internal pure returns (uint c) {... */\n      swap3\n      swap2\n      pop\n      pop\n      jump\t// out\n        /* \"ICO.sol\":837:951  function add(uint a, uint b) internal pure returns (uint c) {... */\n    tag_124:\n        /* \"ICO.sol\":889:895  uint c */\n      0x00\n        /* \"ICO.sol\":916:917  b */\n      dup2\n        /* \"ICO.sol\":912:913  a */\n      dup4\n        /* \"ICO.sol\":912:917  a + b */\n      tag_167\n      swap2\n      swap1\n      tag_160\n      jump\t// in\n    tag_167:\n        /* \"ICO.sol\":908:917  c = a + b */\n      swap1\n      pop\n        /* \"ICO.sol\":941:942  a */\n      dup3\n        /* \"ICO.sol\":936:937  c */\n      dup2\n        /* \"ICO.sol\":936:942  c >= a */\n      lt\n      iszero\n        /* \"ICO.sol\":928:943  require(c >= a) */\n      tag_168\n      jumpi\n      0x00\n      dup1\n      revert\n    tag_168:\n        /* \"ICO.sol\":837:951  function add(uint a, uint b) internal pure returns (uint c) {... */\n      swap3\n      swap2\n      pop\n      pop\n      jump\t// out\n        /* \"ICO.sol\":1083:1211  function mul(uint a, uint b) internal pure returns (uint c) {... */\n    tag_145:\n        /* \"ICO.sol\":1135:1141  uint c */\n      0x00\n        /* \"ICO.sol\":1162:1163  b */\n      dup2\n        /* \"ICO.sol\":1158:1159  a */\n      dup4\n        /* \"ICO.sol\":1158:1163  a * b */\n      tag_170\n      swap2\n      swap1\n      tag_171\n      jump\t// in\n    tag_170:\n        /* \"ICO.sol\":1154:1163  c = a * b */\n      swap1\n      pop\n        /* \"ICO.sol\":1187:1188  0 */\n      0x00\n        /* \"ICO.sol\":1182:1183  a */\n      dup4\n        /* \"ICO.sol\":1182:1188  a == 0 */\n      eq\n        /* \"ICO.sol\":1182:1202  a == 0 || c / a == b */\n      dup1\n      tag_172\n      jumpi\n      pop\n        /* \"ICO.sol\":1201:1202  b */\n      dup2\n        /* \"ICO.sol\":1196:1197  a */\n      dup4\n        /* \"ICO.sol\":1192:1193  c */\n      dup3\n        /* \"ICO.sol\":1192:1197  c / a */\n      tag_173\n      swap2\n      swap1\n      tag_174\n      jump\t// in\n    tag_173:\n        /* \"ICO.sol\":1192:1202  c / a == b */\n      eq\n        /* \"ICO.sol\":1182:1202  a == 0 || c / a == b */\n    tag_172:\n        /* \"ICO.sol\":1174:1203  require(a == 0 || c / a == b) */\n      tag_175\n      jumpi\n      0x00\n      dup1\n      revert\n    tag_175:\n        /* \"ICO.sol\":1083:1211  function mul(uint a, uint b) internal pure returns (uint c) {... */\n      swap3\n      swap2\n      pop\n      pop\n      jump\t// out\n    tag_157:\n      dup3\n      dup1\n      sload\n      tag_176\n      swap1\n      tag_111\n      jump\t// in\n    tag_176:\n      swap1\n      0x00\n      mstore\n      keccak256(0x00, 0x20)\n      swap1\n      0x1f\n      add\n      0x20\n      swap1\n      div\n      dup2\n      add\n      swap3\n      dup3\n      tag_178\n      jumpi\n      0x00\n      dup6\n      sstore\n      jump(tag_177)\n    tag_178:\n      dup3\n      0x1f\n      lt\n      tag_179\n      jumpi\n      dup1\n      mload\n      not(0xff)\n      and\n      dup4\n      dup1\n      add\n      or\n      dup6\n      sstore\n      jump(tag_177)\n    tag_179:\n      dup3\n      dup1\n      add\n      0x01\n      add\n      dup6\n      sstore\n      dup3\n      iszero\n      tag_177\n      jumpi\n      swap2\n      dup3\n      add\n    tag_180:\n      dup3\n      dup2\n      gt\n      iszero\n      tag_181\n      jumpi\n      dup3\n      mload\n      dup3\n      sstore\n      swap2\n      0x20\n      add\n      swap2\n      swap1\n      0x01\n      add\n      swap1\n      jump(tag_180)\n    tag_181:\n    tag_177:\n      pop\n      swap1\n      pop\n      tag_182\n      swap2\n      swap1\n      tag_183\n      jump\t// in\n    tag_182:\n      pop\n      swap1\n      jump\t// out\n    tag_183:\n    tag_184:\n      dup1\n      dup3\n      gt\n      iszero\n      tag_185\n      jumpi\n      0x00\n      dup2\n      0x00\n      swap1\n      sstore\n      pop\n      0x01\n      add\n      jump(tag_184)\n    tag_185:\n      pop\n      swap1\n      jump\t// out\n        /* \"#utility.yul\":7:106   */\n    tag_186:\n        /* \"#utility.yul\":59:65   */\n      0x00\n        /* \"#utility.yul\":93:98   */\n      dup2\n        /* \"#utility.yul\":87:99   */\n      mload\n        /* \"#utility.yul\":77:99   */\n      swap1\n      pop\n        /* \"#utility.yul\":7:106   */\n      swap2\n      swap1\n      pop\n      jump\t// out\n        /* \"#utility.yul\":112:281   */\n    tag_187:\n        /* \"#utility.yul\":196:207   */\n      0x00\n        /* \"#utility.yul\":230:236   */\n      dup3\n        /* \"#utility.yul\":225:228   */\n      dup3\n        /* \"#utility.yul\":218:237   */\n      mstore\n        /* \"#utility.yul\":270:274   */\n      0x20\n        /* \"#utility.yul\":265:268   */\n      dup3\n        /* \"#utility.yul\":261:275   */\n      add\n        /* \"#utility.yul\":246:275   */\n      swap1\n      pop\n        /* \"#utility.yul\":112:281   */\n      swap3\n      swap2\n      pop\n      pop\n      jump\t// out\n        /* \"#utility.yul\":287:594   */\n    tag_188:\n        /* \"#utility.yul\":355:356   */\n      0x00\n        /* \"#utility.yul\":365:478   */\n    tag_212:\n        /* \"#utility.yul\":379:385   */\n      dup4\n        /* \"#utility.yul\":376:377   */\n      dup2\n        /* \"#utility.yul\":373:386   */\n      lt\n        /* \"#utility.yul\":365:478   */\n      iszero\n      tag_214\n      jumpi\n        /* \"#utility.yul\":464:465   */\n      dup1\n        /* \"#utility.yul\":459:462   */\n      dup3\n        /* \"#utility.yul\":455:466   */\n      add\n        /* \"#utility.yul\":449:467   */\n      mload\n        /* \"#utility.yul\":445:446   */\n      dup2\n        /* \"#utility.yul\":440:443   */\n      dup5\n        /* \"#utility.yul\":436:447   */\n      add\n        /* \"#utility.yul\":429:468   */\n      mstore\n        /* \"#utility.yul\":401:403   */\n      0x20\n        /* \"#utility.yul\":398:399   */\n      dup2\n        /* \"#utility.yul\":394:404   */\n      add\n        /* \"#utility.yul\":389:404   */\n      swap1\n      pop\n        /* \"#utility.yul\":365:478   */\n      jump(tag_212)\n    tag_214:\n        /* \"#utility.yul\":496:502   */\n      dup4\n        /* \"#utility.yul\":493:494   */\n      dup2\n        /* \"#utility.yul\":490:503   */\n      gt\n        /* \"#utility.yul\":487:588   */\n      iszero\n      tag_215\n      jumpi\n        /* \"#utility.yul\":576:577   */\n      0x00\n        /* \"#utility.yul\":567:573   */\n      dup5\n        /* \"#utility.yul\":562:565   */\n      dup5\n        /* \"#utility.yul\":558:574   */\n      add\n        /* \"#utility.yul\":551:578   */\n      mstore\n        /* \"#utility.yul\":487:588   */\n    tag_215:\n        /* \"#utility.yul\":336:594   */\n      pop\n        /* \"#utility.yul\":287:594   */\n      pop\n      pop\n      pop\n      jump\t// out\n        /* \"#utility.yul\":600:702   */\n    tag_189:\n        /* \"#utility.yul\":641:647   */\n      0x00\n        /* \"#utility.yul\":692:694   */\n      0x1f\n        /* \"#utility.yul\":688:695   */\n      not\n        /* \"#utility.yul\":683:685   */\n      0x1f\n        /* \"#utility.yul\":676:681   */\n      dup4\n        /* \"#utility.yul\":672:686   */\n      add\n        /* \"#utility.yul\":668:696   */\n      and\n        /* \"#utility.yul\":658:696   */\n      swap1\n      pop\n        /* \"#utility.yul\":600:702   */\n      swap2\n      swap1\n      pop\n      jump\t// out\n        /* \"#utility.yul\":708:1072   */\n    tag_190:\n        /* \"#utility.yul\":796:799   */\n      0x00\n        /* \"#utility.yul\":824:863   */\n      tag_218\n        /* \"#utility.yul\":857:862   */\n      dup3\n        /* \"#utility.yul\":824:863   */\n      tag_186\n      jump\t// in\n    tag_218:\n        /* \"#utility.yul\":879:950   */\n      tag_219\n        /* \"#utility.yul\":943:949   */\n      dup2\n        /* \"#utility.yul\":938:941   */\n      dup6\n        /* \"#utility.yul\":879:950   */\n      tag_187\n      jump\t// in\n    tag_219:\n        /* \"#utility.yul\":872:950   */\n      swap4\n      pop\n        /* \"#utility.yul\":959:1011   */\n      tag_220\n        /* \"#utility.yul\":1004:1010   */\n      dup2\n        /* \"#utility.yul\":999:1002   */\n      dup6\n        /* \"#utility.yul\":992:996   */\n      0x20\n        /* \"#utility.yul\":985:990   */\n      dup7\n        /* \"#utility.yul\":981:997   */\n      add\n        /* \"#utility.yul\":959:1011   */\n      tag_188\n      jump\t// in\n    tag_220:\n        /* \"#utility.yul\":1036:1065   */\n      tag_221\n        /* \"#utility.yul\":1058:1064   */\n      dup2\n        /* \"#utility.yul\":1036:1065   */\n      tag_189\n      jump\t// in\n    tag_221:\n        /* \"#utility.yul\":1031:1034   */\n      dup5\n        /* \"#utility.yul\":1027:1066   */\n      add\n        /* \"#utility.yul\":1020:1066   */\n      swap2\n      pop\n        /* \"#utility.yul\":800:1072   */\n      pop\n        /* \"#utility.yul\":708:1072   */\n      swap3\n      swap2\n      pop\n      pop\n      jump\t// out\n        /* \"#utility.yul\":1078:1391   */\n    tag_28:\n        /* \"#utility.yul\":1191:1195   */\n      0x00\n        /* \"#utility.yul\":1229:1231   */\n      0x20\n        /* \"#utility.yul\":1218:1227   */\n      dup3\n        /* \"#utility.yul\":1214:1232   */\n      add\n        /* \"#utility.yul\":1206:1232   */\n      swap1\n      pop\n        /* \"#utility.yul\":1278:1287   */\n      dup2\n        /* \"#utility.yul\":1272:1276   */\n      dup2\n        /* \"#utility.yul\":1268:1288   */\n      sub\n        /* \"#utility.yul\":1264:1265   */\n      0x00\n        /* \"#utility.yul\":1253:1262   */\n      dup4\n        /* \"#utility.yul\":1249:1266   */\n      add\n        /* \"#utility.yul\":1242:1289   */\n      mstore\n        /* \"#utility.yul\":1306:1384   */\n      tag_223\n        /* \"#utility.yul\":1379:1383   */\n      dup2\n        /* \"#utility.yul\":1370:1376   */\n      dup5\n        /* \"#utility.yul\":1306:1384   */\n      tag_190\n      jump\t// in\n    tag_223:\n        /* \"#utility.yul\":1298:1384   */\n      swap1\n      pop\n        /* \"#utility.yul\":1078:1391   */\n      swap3\n      swap2\n      pop\n      pop\n      jump\t// out\n        /* \"#utility.yul\":1478:1595   */\n    tag_192:\n        /* \"#utility.yul\":1587:1588   */\n      0x00\n        /* \"#utility.yul\":1584:1585   */\n      dup1\n        /* \"#utility.yul\":1577:1589   */\n      revert\n        /* \"#utility.yul\":1724:1850   */\n    tag_194:\n        /* \"#utility.yul\":1761:1768   */\n      0x00\n        /* \"#utility.yul\":1801:1843   */\n      0xffffffffffffffffffffffffffffffffffffffff\n        /* \"#utility.yul\":1794:1799   */\n      dup3\n        /* \"#utility.yul\":1790:1844   */\n      and\n        /* \"#utility.yul\":1779:1844   */\n      swap1\n      pop\n        /* \"#utility.yul\":1724:1850   */\n      swap2\n      swap1\n      pop\n      jump\t// out\n        /* \"#utility.yul\":1856:1952   */\n    tag_195:\n        /* \"#utility.yul\":1893:1900   */\n      0x00\n        /* \"#utility.yul\":1922:1946   */\n      tag_229\n        /* \"#utility.yul\":1940:1945   */\n      dup3\n        /* \"#utility.yul\":1922:1946   */\n      tag_194\n      jump\t// in\n    tag_229:\n        /* \"#utility.yul\":1911:1946   */\n      swap1\n      pop\n        /* \"#utility.yul\":1856:1952   */\n      swap2\n      swap1\n      pop\n      jump\t// out\n        /* \"#utility.yul\":1958:2080   */\n    tag_196:\n        /* \"#utility.yul\":2031:2055   */\n      tag_231\n        /* \"#utility.yul\":2049:2054   */\n      dup2\n        /* \"#utility.yul\":2031:2055   */\n      tag_195\n      jump\t// in\n    tag_231:\n        /* \"#utility.yul\":2024:2029   */\n      dup2\n        /* \"#utility.yul\":2021:2056   */\n      eq\n        /* \"#utility.yul\":2011:2074   */\n      tag_232\n      jumpi\n        /* \"#utility.yul\":2070:2071   */\n      0x00\n        /* \"#utility.yul\":2067:2068   */\n      dup1\n        /* \"#utility.yul\":2060:2072   */\n      revert\n        /* \"#utility.yul\":2011:2074   */\n    tag_232:\n        /* \"#utility.yul\":1958:2080   */\n      pop\n      jump\t// out\n        /* \"#utility.yul\":2086:2225   */\n    tag_197:\n        /* \"#utility.yul\":2132:2137   */\n      0x00\n        /* \"#utility.yul\":2170:2176   */\n      dup2\n        /* \"#utility.yul\":2157:2177   */\n      calldataload\n        /* \"#utility.yul\":2148:2177   */\n      swap1\n      pop\n        /* \"#utility.yul\":2186:2219   */\n      tag_234\n        /* \"#utility.yul\":2213:2218   */\n      dup2\n        /* \"#utility.yul\":2186:2219   */\n      tag_196\n      jump\t// in\n    tag_234:\n        /* \"#utility.yul\":2086:2225   */\n      swap3\n      swap2\n      pop\n      pop\n      jump\t// out\n        /* \"#utility.yul\":2231:2308   */\n    tag_198:\n        /* \"#utility.yul\":2268:2275   */\n      0x00\n        /* \"#utility.yul\":2297:2302   */\n      dup2\n        /* \"#utility.yul\":2286:2302   */\n      swap1\n      pop\n        /* \"#utility.yul\":2231:2308   */\n      swap2\n      swap1\n      pop\n      jump\t// out\n        /* \"#utility.yul\":2314:2436   */\n    tag_199:\n        /* \"#utility.yul\":2387:2411   */\n      tag_237\n        /* \"#utility.yul\":2405:2410   */\n      dup2\n        /* \"#utility.yul\":2387:2411   */\n      tag_198\n      jump\t// in\n    tag_237:\n        /* \"#utility.yul\":2380:2385   */\n      dup2\n        /* \"#utility.yul\":2377:2412   */\n      eq\n        /* \"#utility.yul\":2367:2430   */\n      tag_238\n      jumpi\n        /* \"#utility.yul\":2426:2427   */\n      0x00\n        /* \"#utility.yul\":2423:2424   */\n      dup1\n        /* \"#utility.yul\":2416:2428   */\n      revert\n        /* \"#utility.yul\":2367:2430   */\n    tag_238:\n        /* \"#utility.yul\":2314:2436   */\n      pop\n      jump\t// out\n        /* \"#utility.yul\":2442:2581   */\n    tag_200:\n        /* \"#utility.yul\":2488:2493   */\n      0x00\n        /* \"#utility.yul\":2526:2532   */\n      dup2\n        /* \"#utility.yul\":2513:2533   */\n      calldataload\n        /* \"#utility.yul\":2504:2533   */\n      swap1\n      pop\n        /* \"#utility.yul\":2542:2575   */\n      tag_240\n        /* \"#utility.yul\":2569:2574   */\n      dup2\n        /* \"#utility.yul\":2542:2575   */\n      tag_199\n      jump\t// in\n    tag_240:\n        /* \"#utility.yul\":2442:2581   */\n      swap3\n      swap2\n      pop\n      pop\n      jump\t// out\n        /* \"#utility.yul\":2587:3061   */\n    tag_32:\n        /* \"#utility.yul\":2655:2661   */\n      0x00\n        /* \"#utility.yul\":2663:2669   */\n      dup1\n        /* \"#utility.yul\":2712:2714   */\n      0x40\n        /* \"#utility.yul\":2700:2709   */\n      dup4\n        /* \"#utility.yul\":2691:2698   */\n      dup6\n        /* \"#utility.yul\":2687:2710   */\n      sub\n        /* \"#utility.yul\":2683:2715   */\n      slt\n        /* \"#utility.yul\":2680:2799   */\n      iszero\n      tag_242\n      jumpi\n        /* \"#utility.yul\":2718:2797   */\n      tag_243\n      tag_192\n      jump\t// in\n    tag_243:\n        /* \"#utility.yul\":2680:2799   */\n    tag_242:\n        /* \"#utility.yul\":2838:2839   */\n      0x00\n        /* \"#utility.yul\":2863:2916   */\n      tag_244\n        /* \"#utility.yul\":2908:2915   */\n      dup6\n        /* \"#utility.yul\":2899:2905   */\n      dup3\n        /* \"#utility.yul\":2888:2897   */\n      dup7\n        /* \"#utility.yul\":2884:2906   */\n      add\n        /* \"#utility.yul\":2863:2916   */\n      tag_197\n      jump\t// in\n    tag_244:\n        /* \"#utility.yul\":2853:2916   */\n      swap3\n      pop\n        /* \"#utility.yul\":2809:2926   */\n      pop\n        /* \"#utility.yul\":2965:2967   */\n      0x20\n        /* \"#utility.yul\":2991:3044   */\n      tag_245\n        /* \"#utility.yul\":3036:3043   */\n      dup6\n        /* \"#utility.yul\":3027:3033   */\n      dup3\n        /* \"#utility.yul\":3016:3025   */\n      dup7\n        /* \"#utility.yul\":3012:3034   */\n      add\n        /* \"#utility.yul\":2991:3044   */\n      tag_200\n      jump\t// in\n    tag_245:\n        /* \"#utility.yul\":2981:3044   */\n      swap2\n      pop\n        /* \"#utility.yul\":2936:3054   */\n      pop\n        /* \"#utility.yul\":2587:3061   */\n      swap3\n      pop\n      swap3\n      swap1\n      pop\n      jump\t// out\n        /* \"#utility.yul\":3067:3157   */\n    tag_201:\n        /* \"#utility.yul\":3101:3108   */\n      0x00\n        /* \"#utility.yul\":3144:3149   */\n      dup2\n        /* \"#utility.yul\":3137:3150   */\n      iszero\n        /* \"#utility.yul\":3130:3151   */\n      iszero\n        /* \"#utility.yul\":3119:3151   */\n      swap1\n      pop\n        /* \"#utility.yul\":3067:3157   */\n      swap2\n      swap1\n      pop\n      jump\t// out\n        /* \"#utility.yul\":3163:3272   */\n    tag_202:\n        /* \"#utility.yul\":3244:3265   */\n      tag_248\n        /* \"#utility.yul\":3259:3264   */\n      dup2\n        /* \"#utility.yul\":3244:3265   */\n      tag_201\n      jump\t// in\n    tag_248:\n        /* \"#utility.yul\":3239:3242   */\n      dup3\n        /* \"#utility.yul\":3232:3266   */\n      mstore\n        /* \"#utility.yul\":3163:3272   */\n      pop\n      pop\n      jump\t// out\n        /* \"#utility.yul\":3278:3488   */\n    tag_35:\n        /* \"#utility.yul\":3365:3369   */\n      0x00\n        /* \"#utility.yul\":3403:3405   */\n      0x20\n        /* \"#utility.yul\":3392:3401   */\n      dup3\n        /* \"#utility.yul\":3388:3406   */\n      add\n        /* \"#utility.yul\":3380:3406   */\n      swap1\n      pop\n        /* \"#utility.yul\":3416:3481   */\n      tag_250\n        /* \"#utility.yul\":3478:3479   */\n      0x00\n        /* \"#utility.yul\":3467:3476   */\n      dup4\n        /* \"#utility.yul\":3463:3480   */\n      add\n        /* \"#utility.yul\":3454:3460   */\n      dup5\n        /* \"#utility.yul\":3416:3481   */\n      tag_202\n      jump\t// in\n    tag_250:\n        /* \"#utility.yul\":3278:3488   */\n      swap3\n      swap2\n      pop\n      pop\n      jump\t// out\n        /* \"#utility.yul\":3494:3612   */\n    tag_203:\n        /* \"#utility.yul\":3581:3605   */\n      tag_252\n        /* \"#utility.yul\":3599:3604   */\n      dup2\n        /* \"#utility.yul\":3581:3605   */\n      tag_198\n      jump\t// in\n    tag_252:\n        /* \"#utility.yul\":3576:3579   */\n      dup3\n        /* \"#utility.yul\":3569:3606   */\n      mstore\n        /* \"#utility.yul\":3494:3612   */\n      pop\n      pop\n      jump\t// out\n        /* \"#utility.yul\":3618:3840   */\n    tag_40:\n        /* \"#utility.yul\":3711:3715   */\n      0x00\n        /* \"#utility.yul\":3749:3751   */\n      0x20\n        /* \"#utility.yul\":3738:3747   */\n      dup3\n        /* \"#utility.yul\":3734:3752   */\n      add\n        /* \"#utility.yul\":3726:3752   */\n      swap1\n      pop\n        /* \"#utility.yul\":3762:3833   */\n      tag_254\n        /* \"#utility.yul\":3830:3831   */\n      0x00\n        /* \"#utility.yul\":3819:3828   */\n      dup4\n        /* \"#utility.yul\":3815:3832   */\n      add\n        /* \"#utility.yul\":3806:3812   */\n      dup5\n        /* \"#utility.yul\":3762:3833   */\n      tag_203\n      jump\t// in\n    tag_254:\n        /* \"#utility.yul\":3618:3840   */\n      swap3\n      swap2\n      pop\n      pop\n      jump\t// out\n        /* \"#utility.yul\":3846:4465   */\n    tag_48:\n        /* \"#utility.yul\":3923:3929   */\n      0x00\n        /* \"#utility.yul\":3931:3937   */\n      dup1\n        /* \"#utility.yul\":3939:3945   */\n      0x00\n        /* \"#utility.yul\":3988:3990   */\n      0x60\n        /* \"#utility.yul\":3976:3985   */\n      dup5\n        /* \"#utility.yul\":3967:3974   */\n      dup7\n        /* \"#utility.yul\":3963:3986   */\n      sub\n        /* \"#utility.yul\":3959:3991   */\n      slt\n        /* \"#utility.yul\":3956:4075   */\n      iszero\n      tag_256\n      jumpi\n        /* \"#utility.yul\":3994:4073   */\n      tag_257\n      tag_192\n      jump\t// in\n    tag_257:\n        /* \"#utility.yul\":3956:4075   */\n    tag_256:\n        /* \"#utility.yul\":4114:4115   */\n      0x00\n        /* \"#utility.yul\":4139:4192   */\n      tag_258\n        /* \"#utility.yul\":4184:4191   */\n      dup7\n        /* \"#utility.yul\":4175:4181   */\n      dup3\n        /* \"#utility.yul\":4164:4173   */\n      dup8\n        /* \"#utility.yul\":4160:4182   */\n      add\n        /* \"#utility.yul\":4139:4192   */\n      tag_197\n      jump\t// in\n    tag_258:\n        /* \"#utility.yul\":4129:4192   */\n      swap4\n      pop\n        /* \"#utility.yul\":4085:4202   */\n      pop\n        /* \"#utility.yul\":4241:4243   */\n      0x20\n        /* \"#utility.yul\":4267:4320   */\n      tag_259\n        /* \"#utility.yul\":4312:4319   */\n      dup7\n        /* \"#utility.yul\":4303:4309   */\n      dup3\n        /* \"#utility.yul\":4292:4301   */\n      dup8\n        /* \"#utility.yul\":4288:4310   */\n      add\n        /* \"#utility.yul\":4267:4320   */\n      tag_197\n      jump\t// in\n    tag_259:\n        /* \"#utility.yul\":4257:4320   */\n      swap3\n      pop\n        /* \"#utility.yul\":4212:4330   */\n      pop\n        /* \"#utility.yul\":4369:4371   */\n      0x40\n        /* \"#utility.yul\":4395:4448   */\n      tag_260\n        /* \"#utility.yul\":4440:4447   */\n      dup7\n        /* \"#utility.yul\":4431:4437   */\n      dup3\n        /* \"#utility.yul\":4420:4429   */\n      dup8\n        /* \"#utility.yul\":4416:4438   */\n      add\n        /* \"#utility.yul\":4395:4448   */\n      tag_200\n      jump\t// in\n    tag_260:\n        /* \"#utility.yul\":4385:4448   */\n      swap2\n      pop\n        /* \"#utility.yul\":4340:4458   */\n      pop\n        /* \"#utility.yul\":3846:4465   */\n      swap3\n      pop\n      swap3\n      pop\n      swap3\n      jump\t// out\n        /* \"#utility.yul\":4471:4589   */\n    tag_204:\n        /* \"#utility.yul\":4558:4582   */\n      tag_262\n        /* \"#utility.yul\":4576:4581   */\n      dup2\n        /* \"#utility.yul\":4558:4582   */\n      tag_195\n      jump\t// in\n    tag_262:\n        /* \"#utility.yul\":4553:4556   */\n      dup3\n        /* \"#utility.yul\":4546:4583   */\n      mstore\n        /* \"#utility.yul\":4471:4589   */\n      pop\n      pop\n      jump\t// out\n        /* \"#utility.yul\":4595:4817   */\n    tag_55:\n        /* \"#utility.yul\":4688:4692   */\n      0x00\n        /* \"#utility.yul\":4726:4728   */\n      0x20\n        /* \"#utility.yul\":4715:4724   */\n      dup3\n        /* \"#utility.yul\":4711:4729   */\n      add\n        /* \"#utility.yul\":4703:4729   */\n      swap1\n      pop\n        /* \"#utility.yul\":4739:4810   */\n      tag_264\n        /* \"#utility.yul\":4807:4808   */\n      0x00\n        /* \"#utility.yul\":4796:4805   */\n      dup4\n        /* \"#utility.yul\":4792:4809   */\n      add\n        /* \"#utility.yul\":4783:4789   */\n      dup5\n        /* \"#utility.yul\":4739:4810   */\n      tag_204\n      jump\t// in\n    tag_264:\n        /* \"#utility.yul\":4595:4817   */\n      swap3\n      swap2\n      pop\n      pop\n      jump\t// out\n        /* \"#utility.yul\":4823:5152   */\n    tag_59:\n        /* \"#utility.yul\":4882:4888   */\n      0x00\n        /* \"#utility.yul\":4931:4933   */\n      0x20\n        /* \"#utility.yul\":4919:4928   */\n      dup3\n        /* \"#utility.yul\":4910:4917   */\n      dup5\n        /* \"#utility.yul\":4906:4929   */\n      sub\n        /* \"#utility.yul\":4902:4934   */\n      slt\n        /* \"#utility.yul\":4899:5018   */\n      iszero\n      tag_266\n      jumpi\n        /* \"#utility.yul\":4937:5016   */\n      tag_267\n      tag_192\n      jump\t// in\n    tag_267:\n        /* \"#utility.yul\":4899:5018   */\n    tag_266:\n        /* \"#utility.yul\":5057:5058   */\n      0x00\n        /* \"#utility.yul\":5082:5135   */\n      tag_268\n        /* \"#utility.yul\":5127:5134   */\n      dup5\n        /* \"#utility.yul\":5118:5124   */\n      dup3\n        /* \"#utility.yul\":5107:5116   */\n      dup6\n        /* \"#utility.yul\":5103:5125   */\n      add\n        /* \"#utility.yul\":5082:5135   */\n      tag_197\n      jump\t// in\n    tag_268:\n        /* \"#utility.yul\":5072:5135   */\n      swap2\n      pop\n        /* \"#utility.yul\":5028:5145   */\n      pop\n        /* \"#utility.yul\":4823:5152   */\n      swap3\n      swap2\n      pop\n      pop\n      jump\t// out\n        /* \"#utility.yul\":5158:5632   */\n    tag_104:\n        /* \"#utility.yul\":5226:5232   */\n      0x00\n        /* \"#utility.yul\":5234:5240   */\n      dup1\n        /* \"#utility.yul\":5283:5285   */\n      0x40\n        /* \"#utility.yul\":5271:5280   */\n      dup4\n        /* \"#utility.yul\":5262:5269   */\n      dup6\n        /* \"#utility.yul\":5258:5281   */\n      sub\n        /* \"#utility.yul\":5254:5286   */\n      slt\n        /* \"#utility.yul\":5251:5370   */\n      iszero\n      tag_270\n      jumpi\n        /* \"#utility.yul\":5289:5368   */\n      tag_271\n      tag_192\n      jump\t// in\n    tag_271:\n        /* \"#utility.yul\":5251:5370   */\n    tag_270:\n        /* \"#utility.yul\":5409:5410   */\n      0x00\n        /* \"#utility.yul\":5434:5487   */\n      tag_272\n        /* \"#utility.yul\":5479:5486   */\n      dup6\n        /* \"#utility.yul\":5470:5476   */\n      dup3\n        /* \"#utility.yul\":5459:5468   */\n      dup7\n        /* \"#utility.yul\":5455:5477   */\n      add\n        /* \"#utility.yul\":5434:5487   */\n      tag_197\n      jump\t// in\n    tag_272:\n        /* \"#utility.yul\":5424:5487   */\n      swap3\n      pop\n        /* \"#utility.yul\":5380:5497   */\n      pop\n        /* \"#utility.yul\":5536:5538   */\n      0x20\n        /* \"#utility.yul\":5562:5615   */\n      tag_273\n        /* \"#utility.yul\":5607:5614   */\n      dup6\n        /* \"#utility.yul\":5598:5604   */\n      dup3\n        /* \"#utility.yul\":5587:5596   */\n      dup7\n        /* \"#utility.yul\":5583:5605   */\n      add\n        /* \"#utility.yul\":5562:5615   */\n      tag_197\n      jump\t// in\n    tag_273:\n        /* \"#utility.yul\":5552:5615   */\n      swap2\n      pop\n        /* \"#utility.yul\":5507:5625   */\n      pop\n        /* \"#utility.yul\":5158:5632   */\n      swap3\n      pop\n      swap3\n      swap1\n      pop\n      jump\t// out\n        /* \"#utility.yul\":5638:5818   */\n    tag_205:\n        /* \"#utility.yul\":5686:5763   */\n      0x4e487b7100000000000000000000000000000000000000000000000000000000\n        /* \"#utility.yul\":5683:5684   */\n      0x00\n        /* \"#utility.yul\":5676:5764   */\n      mstore\n        /* \"#utility.yul\":5783:5787   */\n      0x22\n        /* \"#utility.yul\":5780:5781   */\n      0x04\n        /* \"#utility.yul\":5773:5788   */\n      mstore\n        /* \"#utility.yul\":5807:5811   */\n      0x24\n        /* \"#utility.yul\":5804:5805   */\n      0x00\n        /* \"#utility.yul\":5797:5812   */\n      revert\n        /* \"#utility.yul\":5824:6144   */\n    tag_111:\n        /* \"#utility.yul\":5868:5874   */\n      0x00\n        /* \"#utility.yul\":5905:5906   */\n      0x02\n        /* \"#utility.yul\":5899:5903   */\n      dup3\n        /* \"#utility.yul\":5895:5907   */\n      div\n        /* \"#utility.yul\":5885:5907   */\n      swap1\n      pop\n        /* \"#utility.yul\":5952:5953   */\n      0x01\n        /* \"#utility.yul\":5946:5950   */\n      dup3\n        /* \"#utility.yul\":5942:5954   */\n      and\n        /* \"#utility.yul\":5973:5991   */\n      dup1\n        /* \"#utility.yul\":5963:6044   */\n      tag_276\n      jumpi\n        /* \"#utility.yul\":6029:6033   */\n      0x7f\n        /* \"#utility.yul\":6021:6027   */\n      dup3\n        /* \"#utility.yul\":6017:6034   */\n      and\n        /* \"#utility.yul\":6007:6034   */\n      swap2\n      pop\n        /* \"#utility.yul\":5963:6044   */\n    tag_276:\n        /* \"#utility.yul\":6091:6093   */\n      0x20\n        /* \"#utility.yul\":6083:6089   */\n      dup3\n        /* \"#utility.yul\":6080:6094   */\n      lt\n        /* \"#utility.yul\":6060:6078   */\n      dup2\n        /* \"#utility.yul\":6057:6095   */\n      eq\n        /* \"#utility.yul\":6054:6138   */\n      iszero\n      tag_277\n      jumpi\n        /* \"#utility.yul\":6110:6128   */\n      tag_278\n      tag_205\n      jump\t// in\n    tag_278:\n        /* \"#utility.yul\":6054:6138   */\n    tag_277:\n        /* \"#utility.yul\":5875:6144   */\n      pop\n        /* \"#utility.yul\":5824:6144   */\n      swap2\n      swap1\n      pop\n      jump\t// out\n        /* \"#utility.yul\":6150:6330   */\n    tag_206:\n        /* \"#utility.yul\":6198:6275   */\n      0x4e487b7100000000000000000000000000000000000000000000000000000000\n        /* \"#utility.yul\":6195:6196   */\n      0x00\n        /* \"#utility.yul\":6188:6276   */\n      mstore\n        /* \"#utility.yul\":6295:6299   */\n      0x11\n        /* \"#utility.yul\":6292:6293   */\n      0x04\n        /* \"#utility.yul\":6285:6300   */\n      mstore\n        /* \"#utility.yul\":6319:6323   */\n      0x24\n        /* \"#utility.yul\":6316:6317   */\n      0x00\n        /* \"#utility.yul\":6309:6324   */\n      revert\n        /* \"#utility.yul\":6336:6569   */\n    tag_153:\n        /* \"#utility.yul\":6375:6378   */\n      0x00\n        /* \"#utility.yul\":6398:6422   */\n      tag_281\n        /* \"#utility.yul\":6416:6421   */\n      dup3\n        /* \"#utility.yul\":6398:6422   */\n      tag_198\n      jump\t// in\n    tag_281:\n        /* \"#utility.yul\":6389:6422   */\n      swap2\n      pop\n        /* \"#utility.yul\":6444:6510   */\n      0xffffffffffffffffffffffffffffffffffffffffffffffffffffffffffffffff\n        /* \"#utility.yul\":6437:6442   */\n      dup3\n        /* \"#utility.yul\":6434:6511   */\n      eq\n        /* \"#utility.yul\":6431:6534   */\n      iszero\n      tag_282\n      jumpi\n        /* \"#utility.yul\":6514:6532   */\n      tag_283\n      tag_206\n      jump\t// in\n    tag_283:\n        /* \"#utility.yul\":6431:6534   */\n    tag_282:\n        /* \"#utility.yul\":6561:6562   */\n      0x01\n        /* \"#utility.yul\":6554:6559   */\n      dup3\n        /* \"#utility.yul\":6550:6563   */\n      add\n        /* \"#utility.yul\":6543:6563   */\n      swap1\n      pop\n        /* \"#utility.yul\":6336:6569   */\n      swap2\n      swap1\n      pop\n      jump\t// out\n        /* \"#utility.yul\":6575:6880   */\n    tag_160:\n        /* \"#utility.yul\":6615:6618   */\n      0x00\n        /* \"#utility.yul\":6634:6654   */\n      tag_285\n        /* \"#utility.yul\":6652:6653   */\n      dup3\n        /* \"#utility.yul\":6634:6654   */\n      tag_198\n      jump\t// in\n    tag_285:\n        /* \"#utility.yul\":6629:6654   */\n      swap2\n      pop\n        /* \"#utility.yul\":6668:6688   */\n      tag_286\n        /* \"#utility.yul\":6686:6687   */\n      dup4\n        /* \"#utility.yul\":6668:6688   */\n      tag_198\n      jump\t// in\n    tag_286:\n        /* \"#utility.yul\":6663:6688   */\n      swap3\n      pop\n        /* \"#utility.yul\":6822:6823   */\n      dup3\n        /* \"#utility.yul\":6754:6820   */\n      0xffffffffffffffffffffffffffffffffffffffffffffffffffffffffffffffff\n        /* \"#utility.yul\":6750:6824   */\n      sub\n        /* \"#utility.yul\":6747:6748   */\n      dup3\n        /* \"#utility.yul\":6744:6825   */\n      gt\n        /* \"#utility.yul\":6741:6848   */\n      iszero\n      tag_287\n      jumpi\n        /* \"#utility.yul\":6828:6846   */\n      tag_288\n      tag_206\n      jump\t// in\n    tag_288:\n        /* \"#utility.yul\":6741:6848   */\n    tag_287:\n        /* \"#utility.yul\":6872:6873   */\n      dup3\n        /* \"#utility.yul\":6869:6870   */\n      dup3\n        /* \"#utility.yul\":6865:6874   */\n      add\n        /* \"#utility.yul\":6858:6874   */\n      swap1\n      pop\n        /* \"#utility.yul\":6575:6880   */\n      swap3\n      swap2\n      pop\n      pop\n      jump\t// out\n        /* \"#utility.yul\":6886:7077   */\n    tag_165:\n        /* \"#utility.yul\":6926:6930   */\n      0x00\n        /* \"#utility.yul\":6946:6966   */\n      tag_290\n        /* \"#utility.yul\":6964:6965   */\n      dup3\n        /* \"#utility.yul\":6946:6966   */\n      tag_198\n      jump\t// in\n    tag_290:\n        /* \"#utility.yul\":6941:6966   */\n      swap2\n      pop\n        /* \"#utility.yul\":6980:7000   */\n      tag_291\n        /* \"#utility.yul\":6998:6999   */\n      dup4\n        /* \"#utility.yul\":6980:7000   */\n      tag_198\n      jump\t// in\n    tag_291:\n        /* \"#utility.yul\":6975:7000   */\n      swap3\n      pop\n        /* \"#utility.yul\":7019:7020   */\n      dup3\n        /* \"#utility.yul\":7016:7017   */\n      dup3\n        /* \"#utility.yul\":7013:7021   */\n      lt\n        /* \"#utility.yul\":7010:7044   */\n      iszero\n      tag_292\n      jumpi\n        /* \"#utility.yul\":7024:7042   */\n      tag_293\n      tag_206\n      jump\t// in\n    tag_293:\n        /* \"#utility.yul\":7010:7044   */\n    tag_292:\n        /* \"#utility.yul\":7069:7070   */\n      dup3\n        /* \"#utility.yul\":7066:7067   */\n      dup3\n        /* \"#utility.yul\":7062:7071   */\n      sub\n        /* \"#utility.yul\":7054:7071   */\n      swap1\n      pop\n        /* \"#utility.yul\":6886:7077   */\n      swap3\n      swap2\n      pop\n      pop\n      jump\t// out\n        /* \"#utility.yul\":7083:7431   */\n    tag_171:\n        /* \"#utility.yul\":7123:7130   */\n      0x00\n        /* \"#utility.yul\":7146:7166   */\n      tag_295\n        /* \"#utility.yul\":7164:7165   */\n      dup3\n        /* \"#utility.yul\":7146:7166   */\n      tag_198\n      jump\t// in\n    tag_295:\n        /* \"#utility.yul\":7141:7166   */\n      swap2\n      pop\n        /* \"#utility.yul\":7180:7200   */\n      tag_296\n        /* \"#utility.yul\":7198:7199   */\n      dup4\n        /* \"#utility.yul\":7180:7200   */\n      tag_198\n      jump\t// in\n    tag_296:\n        /* \"#utility.yul\":7175:7200   */\n      swap3\n      pop\n        /* \"#utility.yul\":7368:7369   */\n      dup2\n        /* \"#utility.yul\":7300:7366   */\n      0xffffffffffffffffffffffffffffffffffffffffffffffffffffffffffffffff\n        /* \"#utility.yul\":7296:7370   */\n      div\n        /* \"#utility.yul\":7293:7294   */\n      dup4\n        /* \"#utility.yul\":7290:7371   */\n      gt\n        /* \"#utility.yul\":7285:7286   */\n      dup3\n        /* \"#utility.yul\":7278:7287   */\n      iszero\n        /* \"#utility.yul\":7271:7288   */\n      iszero\n        /* \"#utility.yul\":7267:7372   */\n      and\n        /* \"#utility.yul\":7264:7395   */\n      iszero\n      tag_297\n      jumpi\n        /* \"#utility.yul\":7375:7393   */\n      tag_298\n      tag_206\n      jump\t// in\n    tag_298:\n        /* \"#utility.yul\":7264:7395   */\n    tag_297:\n        /* \"#utility.yul\":7423:7424   */\n      dup3\n        /* \"#utility.yul\":7420:7421   */\n      dup3\n        /* \"#utility.yul\":7416:7425   */\n      mul\n        /* \"#utility.yul\":7405:7425   */\n      swap1\n      pop\n        /* \"#utility.yul\":7083:7431   */\n      swap3\n      swap2\n      pop\n      pop\n      jump\t// out\n        /* \"#utility.yul\":7437:7617   */\n    tag_207:\n        /* \"#utility.yul\":7485:7562   */\n      0x4e487b7100000000000000000000000000000000000000000000000000000000\n        /* \"#utility.yul\":7482:7483   */\n      0x00\n        /* \"#utility.yul\":7475:7563   */\n      mstore\n        /* \"#utility.yul\":7582:7586   */\n      0x12\n        /* \"#utility.yul\":7579:7580   */\n      0x04\n        /* \"#utility.yul\":7572:7587   */\n      mstore\n        /* \"#utility.yul\":7606:7610   */\n      0x24\n        /* \"#utility.yul\":7603:7604   */\n      0x00\n        /* \"#utility.yul\":7596:7611   */\n      revert\n        /* \"#utility.yul\":7623:7808   */\n    tag_174:\n        /* \"#utility.yul\":7663:7664   */\n      0x00\n        /* \"#utility.yul\":7680:7700   */\n      tag_301\n        /* \"#utility.yul\":7698:7699   */\n      dup3\n        /* \"#utility.yul\":7680:7700   */\n      tag_198\n      jump\t// in\n    tag_301:\n        /* \"#utility.yul\":7675:7700   */\n      swap2\n      pop\n        /* \"#utility.yul\":7714:7734   */\n      tag_302\n        /* \"#utility.yul\":7732:7733   */\n      dup4\n        /* \"#utility.yul\":7714:7734   */\n      tag_198\n      jump\t// in\n    tag_302:\n        /* \"#utility.yul\":7709:7734   */\n      swap3\n      pop\n        /* \"#utility.yul\":7753:7754   */\n      dup3\n        /* \"#utility.yul\":7743:7778   */\n      tag_303\n      jumpi\n        /* \"#utility.yul\":7758:7776   */\n      tag_304\n      tag_207\n      jump\t// in\n    tag_304:\n        /* \"#utility.yul\":7743:7778   */\n    tag_303:\n        /* \"#utility.yul\":7800:7801   */\n      dup3\n        /* \"#utility.yul\":7797:7798   */\n      dup3\n        /* \"#utility.yul\":7793:7802   */\n      div\n        /* \"#utility.yul\":7788:7802   */\n      swap1\n      pop\n        /* \"#utility.yul\":7623:7808   */\n      swap3\n      swap2\n      pop\n      pop\n      jump\t// out\n\n    auxdata: 0xa264697066735822122094e152947132476148651fabaebe9a95f7f86f7d86a675a836e9d4ff858fc95164736f6c634300080b0033\n}\n","bytecode":{"linkReferences":{},"object":"608060405234801561001057600080fd5b5061162a806100206000396000f3fe6080604052600436106101145760003560e01c806340c65003116100a0578063a9059cbb11610064578063a9059cbb146103a7578063c9116b69146103e4578063d0febe4c1461040f578063dd62ed3e14610419578063f2a942991461045657610114565b806340c65003146102be57806370a08231146102e957806395d89b41146103265780639a8ca12c146103515780639c3e0f3f1461037c57610114565b806323b872dd116100e757806323b872dd146101d757806326b85ee11461021457806327e235e31461023f578063313ce5671461027c578063380d831b146102a757610114565b806306fdde0314610119578063095ea7b31461014457806318160ddd146101815780631f88cb60146101ac575b600080fd5b34801561012557600080fd5b5061012e61046d565b60405161013b9190611192565b60405180910390f35b34801561015057600080fd5b5061016b6004803603810190610166919061124d565b6104fb565b60405161017891906112a8565b60405180910390f35b34801561018d57600080fd5b506101966105ed565b6040516101a391906112d2565b60405180910390f35b3480156101b857600080fd5b506101c16105f7565b6040516101ce91906112d2565b60405180910390f35b3480156101e357600080fd5b506101fe60048036038101906101f991906112ed565b6105fd565b60405161020b91906112a8565b60405180910390f35b34801561022057600080fd5b506102296108a8565b604051610236919061134f565b60405180910390f35b34801561024b57600080fd5b506102666004803603810190610261919061136a565b6108b5565b60405161027391906112d2565b60405180910390f35b34801561028857600080fd5b506102916108cd565b60405161029e91906112d2565b60405180910390f35b3480156102b357600080fd5b506102bc6108d3565b005b3480156102ca57600080fd5b506102d3610998565b6040516102e091906112d2565b60405180910390f35b3480156102f557600080fd5b50610310600480360381019061030b919061136a565b61099e565b60405161031d91906112d2565b60405180910390f35b34801561033257600080fd5b5061033b6109e7565b6040516103489190611192565b60405180910390f35b34801561035d57600080fd5b50610366610a75565b60405161037391906112d2565b60405180910390f35b34801561038857600080fd5b50610391610a7b565b60405161039e91906112d2565b60405180910390f35b3480156103b357600080fd5b506103ce60048036038101906103c9919061124d565b610a81565b6040516103db91906112a8565b60405180910390f35b3480156103f057600080fd5b506103f9610c1c565b60405161040691906112d2565b60405180910390f35b610417610c63565b005b34801561042557600080fd5b50610440600480360381019061043b9190611397565b610de7565b60405161044d91906112d2565b60405180910390f35b34801561046257600080fd5b5061046b610e6e565b005b6000805461047a90611406565b80601f01602080910402602001604051908101604052809291908181526020018280546104a690611406565b80156104f35780601f106104c8576101008083540402835291602001916104f3565b820191906000526020600020905b8154815290600101906020018083116104d657829003601f168201915b505050505081565b600081600a60003373ffffffffffffffffffffffffffffffffffffffff1673ffffffffffffffffffffffffffffffffffffffff16815260200190815260200160002060008573ffffffffffffffffffffffffffffffffffffffff1673ffffffffffffffffffffffffffffffffffffffff168152602001908152602001600020819055508273ffffffffffffffffffffffffffffffffffffffff163373ffffffffffffffffffffffffffffffffffffffff167f8c5be1e5ebec7d5bd14f71427d1e84f3dd0314c0f7b2291e5b200ac8c7c3b925846040516105db91906112d2565b60405180910390a36001905092915050565b6000600754905090565b60065481565b600061065182600960008773ffffffffffffffffffffffffffffffffffffffff1673ffffffffffffffffffffffffffffffffffffffff16815260200190815260200160002054610fd890919063ffffffff16565b600960008673ffffffffffffffffffffffffffffffffffffffff1673ffffffffffffffffffffffffffffffffffffffff1681526020019081526020016000208190555061072382600a60008773ffffffffffffffffffffffffffffffffffffffff1673ffffffffffffffffffffffffffffffffffffffff16815260200190815260200160002060003373ffffffffffffffffffffffffffffffffffffffff1673ffffffffffffffffffffffffffffffffffffffff16815260200190815260200160002054610fd890919063ffffffff16565b600a60008673ffffffffffffffffffffffffffffffffffffffff1673ffffffffffffffffffffffffffffffffffffffff16815260200190815260200160002060003373ffffffffffffffffffffffffffffffffffffffff1673ffffffffffffffffffffffffffffffffffffffff168152602001908152602001600020819055506107f582600960008673ffffffffffffffffffffffffffffffffffffffff1673ffffffffffffffffffffffffffffffffffffffff16815260200190815260200160002054610ffb90919063ffffffff16565b600960008573ffffffffffffffffffffffffffffffffffffffff1673ffffffffffffffffffffffffffffffffffffffff168152602001908152602001600020819055508273ffffffffffffffffffffffffffffffffffffffff168473ffffffffffffffffffffffffffffffffffffffff167fddf252ad1be2c89b69c2b068fc378daa952ba7f163c4a11628f55a4df523b3ef8460405161089591906112d2565b60405180910390a3600190509392505050565b6000803390508091505090565b60096020528060005260406000206000915090505481565b60025481565b600860009054906101000a900473ffffffffffffffffffffffffffffffffffffffff1673ffffffffffffffffffffffffffffffffffffffff163373ffffffffffffffffffffffffffffffffffffffff161461092d57600080fd5b600860009054906101000a900473ffffffffffffffffffffffffffffffffffffffff1673ffffffffffffffffffffffffffffffffffffffff166108fc479081150290604051600060405180830381858888f19350505050158015610995573d6000803e3d6000fd5b50565b60035481565b6000600960008373ffffffffffffffffffffffffffffffffffffffff1673ffffffffffffffffffffffffffffffffffffffff168152602001908152602001600020549050919050565b600180546109f490611406565b80601f0160208091040260200160405190810160405280929190818152602001828054610a2090611406565b8015610a6d5780601f10610a4257610100808354040283529160200191610a6d565b820191906000526020600020905b815481529060010190602001808311610a5057829003601f168201915b505050505081565b60045481565b60055481565b6000610ad582600960003373ffffffffffffffffffffffffffffffffffffffff1673ffffffffffffffffffffffffffffffffffffffff16815260200190815260200160002054610fd890919063ffffffff16565b600960003373ffffffffffffffffffffffffffffffffffffffff1673ffffffffffffffffffffffffffffffffffffffff16815260200190815260200160002081905550610b6a82600960008673ffffffffffffffffffffffffffffffffffffffff1673ffffffffffffffffffffffffffffffffffffffff16815260200190815260200160002054610ffb90919063ffffffff16565b600960008573ffffffffffffffffffffffffffffffffffffffff1673ffffffffffffffffffffffffffffffffffffffff168152602001908152602001600020819055508273ffffffffffffffffffffffffffffffffffffffff163373ffffffffffffffffffffffffffffffffffffffff167fddf252ad1be2c89b69c2b068fc378daa952ba7f163c4a11628f55a4df523b3ef84604051610c0a91906112d2565b60405180910390a36001905092915050565b6000600960003373ffffffffffffffffffffffffffffffffffffffff1673ffffffffffffffffffffffffffffffffffffffff16815260200190815260200160002054905090565b60006003544211610c8957610c82607d3461101e90919063ffffffff16565b9050610ca0565b610c9d60643461101e90919063ffffffff16565b90505b610cb460643461101e90919063ffffffff16565b9050610d0881600960003373ffffffffffffffffffffffffffffffffffffffff1673ffffffffffffffffffffffffffffffffffffffff16815260200190815260200160002054610ffb90919063ffffffff16565b600960003373ffffffffffffffffffffffffffffffffffffffff1673ffffffffffffffffffffffffffffffffffffffff16815260200190815260200160002081905550610d6081600754610ffb90919063ffffffff16565b6007819055503373ffffffffffffffffffffffffffffffffffffffff16600073ffffffffffffffffffffffffffffffffffffffff167fddf252ad1be2c89b69c2b068fc378daa952ba7f163c4a11628f55a4df523b3ef83604051610dc491906112d2565b60405180910390a360066000815480929190610ddf90611467565b919050555050565b6000600a60008473ffffffffffffffffffffffffffffffffffffffff1673ffffffffffffffffffffffffffffffffffffffff16815260200190815260200160002060008373ffffffffffffffffffffffffffffffffffffffff1673ffffffffffffffffffffffffffffffffffffffff16815260200190815260200160002054905092915050565b6040518060400160405280600981526020017f44656d6f20436f696e000000000000000000000000000000000000000000000081525060009080519060200190610eb9929190611056565b5060126002819055506040518060400160405280600281526020017f444300000000000000000000000000000000000000000000000000000000000081525060019080519060200190610f0d929190611056565b506212750042610f1d91906114b0565b6003819055506224ea0042610f3291906114b0565b6004819055504260058190555068056bc75e2d6310000060078190555033600860006101000a81548173ffffffffffffffffffffffffffffffffffffffff021916908373ffffffffffffffffffffffffffffffffffffffff160217905550600754600960003373ffffffffffffffffffffffffffffffffffffffff1673ffffffffffffffffffffffffffffffffffffffff16815260200190815260200160002081905550565b600082821115610fe757600080fd5b8183610ff39190611506565b905092915050565b6000818361100991906114b0565b90508281101561101857600080fd5b92915050565b6000818361102c919061153a565b90506000831480611047575081838261104591906115c3565b145b61105057600080fd5b92915050565b82805461106290611406565b90600052602060002090601f01602090048101928261108457600085556110cb565b82601f1061109d57805160ff19168380011785556110cb565b828001600101855582156110cb579182015b828111156110ca5782518255916020019190600101906110af565b5b5090506110d891906110dc565b5090565b5b808211156110f55760008160009055506001016110dd565b5090565b600081519050919050565b600082825260208201905092915050565b60005b83811015611133578082015181840152602081019050611118565b83811115611142576000848401525b50505050565b6000601f19601f8301169050919050565b6000611164826110f9565b61116e8185611104565b935061117e818560208601611115565b61118781611148565b840191505092915050565b600060208201905081810360008301526111ac8184611159565b905092915050565b600080fd5b600073ffffffffffffffffffffffffffffffffffffffff82169050919050565b60006111e4826111b9565b9050919050565b6111f4816111d9565b81146111ff57600080fd5b50565b600081359050611211816111eb565b92915050565b6000819050919050565b61122a81611217565b811461123557600080fd5b50565b60008135905061124781611221565b92915050565b60008060408385031215611264576112636111b4565b5b600061127285828601611202565b925050602061128385828601611238565b9150509250929050565b60008115159050919050565b6112a28161128d565b82525050565b60006020820190506112bd6000830184611299565b92915050565b6112cc81611217565b82525050565b60006020820190506112e760008301846112c3565b92915050565b600080600060608486031215611306576113056111b4565b5b600061131486828701611202565b935050602061132586828701611202565b925050604061133686828701611238565b9150509250925092565b611349816111d9565b82525050565b60006020820190506113646000830184611340565b92915050565b6000602082840312156113805761137f6111b4565b5b600061138e84828501611202565b91505092915050565b600080604083850312156113ae576113ad6111b4565b5b60006113bc85828601611202565b92505060206113cd85828601611202565b9150509250929050565b7f4e487b7100000000000000000000000000000000000000000000000000000000600052602260045260246000fd5b6000600282049050600182168061141e57607f821691505b60208210811415611432576114316113d7565b5b50919050565b7f4e487b7100000000000000000000000000000000000000000000000000000000600052601160045260246000fd5b600061147282611217565b91507fffffffffffffffffffffffffffffffffffffffffffffffffffffffffffffffff8214156114a5576114a4611438565b5b600182019050919050565b60006114bb82611217565b91506114c683611217565b9250827fffffffffffffffffffffffffffffffffffffffffffffffffffffffffffffffff038211156114fb576114fa611438565b5b828201905092915050565b600061151182611217565b915061151c83611217565b92508282101561152f5761152e611438565b5b828203905092915050565b600061154582611217565b915061155083611217565b9250817fffffffffffffffffffffffffffffffffffffffffffffffffffffffffffffffff048311821515161561158957611588611438565b5b828202905092915050565b7f4e487b7100000000000000000000000000000000000000000000000000000000600052601260045260246000fd5b60006115ce82611217565b91506115d983611217565b9250826115e9576115e8611594565b5b82820490509291505056fea264697066735822122094e152947132476148651fabaebe9a95f7f86f7d86a675a836e9d4ff858fc95164736f6c634300080b0033","opcodes":"PUSH1 0x80 PUSH1 0x40 MSTORE CALLVALUE DUP1 ISZERO PUSH2 0x10 JUMPI PUSH1 0x0 DUP1 REVERT JUMPDEST POP PUSH2 0x162A DUP1 PUSH2 0x20 PUSH1 0x0 CODECOPY PUSH1 0x0 RETURN INVALID PUSH1 0x80 PUSH1 0x40 MSTORE PUSH1 0x4 CALLDATASIZE LT PUSH2 0x114 JUMPI PUSH1 0x0 CALLDATALOAD PUSH1 0xE0 SHR DUP1 PUSH4 0x40C65003 GT PUSH2 0xA0 JUMPI DUP1 PUSH4 0xA9059CBB GT PUSH2 0x64 JUMPI DUP1 PUSH4 0xA9059CBB EQ PUSH2 0x3A7 JUMPI DUP1 PUSH4 0xC9116B69 EQ PUSH2 0x3E4 JUMPI DUP1 PUSH4 0xD0FEBE4C EQ PUSH2 0x40F JUMPI DUP1 PUSH4 0xDD62ED3E EQ PUSH2 0x419 JUMPI DUP1 PUSH4 0xF2A94299 EQ PUSH2 0x456 JUMPI PUSH2 0x114 JUMP JUMPDEST DUP1 PUSH4 0x40C65003 EQ PUSH2 0x2BE JUMPI DUP1 PUSH4 0x70A08231 EQ PUSH2 0x2E9 JUMPI DUP1 PUSH4 0x95D89B41 EQ PUSH2 0x326 JUMPI DUP1 PUSH4 0x9A8CA12C EQ PUSH2 0x351 JUMPI DUP1 PUSH4 0x9C3E0F3F EQ PUSH2 0x37C JUMPI PUSH2 0x114 JUMP JUMPDEST DUP1 PUSH4 0x23B872DD GT PUSH2 0xE7 JUMPI DUP1 PUSH4 0x23B872DD EQ PUSH2 0x1D7 JUMPI DUP1 PUSH4 0x26B85EE1 EQ PUSH2 0x214 JUMPI DUP1 PUSH4 0x27E235E3 EQ PUSH2 0x23F JUMPI DUP1 PUSH4 0x313CE567 EQ PUSH2 0x27C JUMPI DUP1 PUSH4 0x380D831B EQ PUSH2 0x2A7 JUMPI PUSH2 0x114 JUMP JUMPDEST DUP1 PUSH4 0x6FDDE03 EQ PUSH2 0x119 JUMPI DUP1 PUSH4 0x95EA7B3 EQ PUSH2 0x144 JUMPI DUP1 PUSH4 0x18160DDD EQ PUSH2 0x181 JUMPI DUP1 PUSH4 0x1F88CB60 EQ PUSH2 0x1AC JUMPI JUMPDEST PUSH1 0x0 DUP1 REVERT JUMPDEST CALLVALUE DUP1 ISZERO PUSH2 0x125 JUMPI PUSH1 0x0 DUP1 REVERT JUMPDEST POP PUSH2 0x12E PUSH2 0x46D JUMP JUMPDEST PUSH1 0x40 MLOAD PUSH2 0x13B SWAP2 SWAP1 PUSH2 0x1192 JUMP JUMPDEST PUSH1 0x40 MLOAD DUP1 SWAP2 SUB SWAP1 RETURN JUMPDEST CALLVALUE DUP1 ISZERO PUSH2 0x150 JUMPI PUSH1 0x0 DUP1 REVERT JUMPDEST POP PUSH2 0x16B PUSH1 0x4 DUP1 CALLDATASIZE SUB DUP2 ADD SWAP1 PUSH2 0x166 SWAP2 SWAP1 PUSH2 0x124D JUMP JUMPDEST PUSH2 0x4FB JUMP JUMPDEST PUSH1 0x40 MLOAD PUSH2 0x178 SWAP2 SWAP1 PUSH2 0x12A8 JUMP JUMPDEST PUSH1 0x40 MLOAD DUP1 SWAP2 SUB SWAP1 RETURN JUMPDEST CALLVALUE DUP1 ISZERO PUSH2 0x18D JUMPI PUSH1 0x0 DUP1 REVERT JUMPDEST POP PUSH2 0x196 PUSH2 0x5ED JUMP JUMPDEST PUSH1 0x40 MLOAD PUSH2 0x1A3 SWAP2 SWAP1 PUSH2 0x12D2 JUMP JUMPDEST PUSH1 0x40 MLOAD DUP1 SWAP2 SUB SWAP1 RETURN JUMPDEST CALLVALUE DUP1 ISZERO PUSH2 0x1B8 JUMPI PUSH1 0x0 DUP1 REVERT JUMPDEST POP PUSH2 0x1C1 PUSH2 0x5F7 JUMP JUMPDEST PUSH1 0x40 MLOAD PUSH2 0x1CE SWAP2 SWAP1 PUSH2 0x12D2 JUMP JUMPDEST PUSH1 0x40 MLOAD DUP1 SWAP2 SUB SWAP1 RETURN JUMPDEST CALLVALUE DUP1 ISZERO PUSH2 0x1E3 JUMPI PUSH1 0x0 DUP1 REVERT JUMPDEST POP PUSH2 0x1FE PUSH1 0x4 DUP1 CALLDATASIZE SUB DUP2 ADD SWAP1 PUSH2 0x1F9 SWAP2 SWAP1 PUSH2 0x12ED JUMP JUMPDEST PUSH2 0x5FD JUMP JUMPDEST PUSH1 0x40 MLOAD PUSH2 0x20B SWAP2 SWAP1 PUSH2 0x12A8 JUMP JUMPDEST PUSH1 0x40 MLOAD DUP1 SWAP2 SUB SWAP1 RETURN JUMPDEST CALLVALUE DUP1 ISZERO PUSH2 0x220 JUMPI PUSH1 0x0 DUP1 REVERT JUMPDEST POP PUSH2 0x229 PUSH2 0x8A8 JUMP JUMPDEST PUSH1 0x40 MLOAD PUSH2 0x236 SWAP2 SWAP1 PUSH2 0x134F JUMP JUMPDEST PUSH1 0x40 MLOAD DUP1 SWAP2 SUB SWAP1 RETURN JUMPDEST CALLVALUE DUP1 ISZERO PUSH2 0x24B JUMPI PUSH1 0x0 DUP1 REVERT JUMPDEST POP PUSH2 0x266 PUSH1 0x4 DUP1 CALLDATASIZE SUB DUP2 ADD SWAP1 PUSH2 0x261 SWAP2 SWAP1 PUSH2 0x136A JUMP JUMPDEST PUSH2 0x8B5 JUMP JUMPDEST PUSH1 0x40 MLOAD PUSH2 0x273 SWAP2 SWAP1 PUSH2 0x12D2 JUMP JUMPDEST PUSH1 0x40 MLOAD DUP1 SWAP2 SUB SWAP1 RETURN JUMPDEST CALLVALUE DUP1 ISZERO PUSH2 0x288 JUMPI PUSH1 0x0 DUP1 REVERT JUMPDEST POP PUSH2 0x291 PUSH2 0x8CD JUMP JUMPDEST PUSH1 0x40 MLOAD PUSH2 0x29E SWAP2 SWAP1 PUSH2 0x12D2 JUMP JUMPDEST PUSH1 0x40 MLOAD DUP1 SWAP2 SUB SWAP1 RETURN JUMPDEST CALLVALUE DUP1 ISZERO PUSH2 0x2B3 JUMPI PUSH1 0x0 DUP1 REVERT JUMPDEST POP PUSH2 0x2BC PUSH2 0x8D3 JUMP JUMPDEST STOP JUMPDEST CALLVALUE DUP1 ISZERO PUSH2 0x2CA JUMPI PUSH1 0x0 DUP1 REVERT JUMPDEST POP PUSH2 0x2D3 PUSH2 0x998 JUMP JUMPDEST PUSH1 0x40 MLOAD PUSH2 0x2E0 SWAP2 SWAP1 PUSH2 0x12D2 JUMP JUMPDEST PUSH1 0x40 MLOAD DUP1 SWAP2 SUB SWAP1 RETURN JUMPDEST CALLVALUE DUP1 ISZERO PUSH2 0x2F5 JUMPI PUSH1 0x0 DUP1 REVERT JUMPDEST POP PUSH2 0x310 PUSH1 0x4 DUP1 CALLDATASIZE SUB DUP2 ADD SWAP1 PUSH2 0x30B SWAP2 SWAP1 PUSH2 0x136A JUMP JUMPDEST PUSH2 0x99E JUMP JUMPDEST PUSH1 0x40 MLOAD PUSH2 0x31D SWAP2 SWAP1 PUSH2 0x12D2 JUMP JUMPDEST PUSH1 0x40 MLOAD DUP1 SWAP2 SUB SWAP1 RETURN JUMPDEST CALLVALUE DUP1 ISZERO PUSH2 0x332 JUMPI PUSH1 0x0 DUP1 REVERT JUMPDEST POP PUSH2 0x33B PUSH2 0x9E7 JUMP JUMPDEST PUSH1 0x40 MLOAD PUSH2 0x348 SWAP2 SWAP1 PUSH2 0x1192 JUMP JUMPDEST PUSH1 0x40 MLOAD DUP1 SWAP2 SUB SWAP1 RETURN JUMPDEST CALLVALUE DUP1 ISZERO PUSH2 0x35D JUMPI PUSH1 0x0 DUP1 REVERT JUMPDEST POP PUSH2 0x366 PUSH2 0xA75 JUMP JUMPDEST PUSH1 0x40 MLOAD PUSH2 0x373 SWAP2 SWAP1 PUSH2 0x12D2 JUMP JUMPDEST PUSH1 0x40 MLOAD DUP1 SWAP2 SUB SWAP1 RETURN JUMPDEST CALLVALUE DUP1 ISZERO PUSH2 0x388 JUMPI PUSH1 0x0 DUP1 REVERT JUMPDEST POP PUSH2 0x391 PUSH2 0xA7B JUMP JUMPDEST PUSH1 0x40 MLOAD PUSH2 0x39E SWAP2 SWAP1 PUSH2 0x12D2 JUMP JUMPDEST PUSH1 0x40 MLOAD DUP1 SWAP2 SUB SWAP1 RETURN JUMPDEST CALLVALUE DUP1 ISZERO PUSH2 0x3B3 JUMPI PUSH1 0x0 DUP1 REVERT JUMPDEST POP PUSH2 0x3CE PUSH1 0x4 DUP1 CALLDATASIZE SUB DUP2 ADD SWAP1 PUSH2 0x3C9 SWAP2 SWAP1 PUSH2 0x124D JUMP JUMPDEST PUSH2 0xA81 JUMP JUMPDEST PUSH1 0x40 MLOAD PUSH2 0x3DB SWAP2 SWAP1 PUSH2 0x12A8 JUMP JUMPDEST PUSH1 0x40 MLOAD DUP1 SWAP2 SUB SWAP1 RETURN JUMPDEST CALLVALUE DUP1 ISZERO PUSH2 0x3F0 JUMPI PUSH1 0x0 DUP1 REVERT JUMPDEST POP PUSH2 0x3F9 PUSH2 0xC1C JUMP JUMPDEST PUSH1 0x40 MLOAD PUSH2 0x406 SWAP2 SWAP1 PUSH2 0x12D2 JUMP JUMPDEST PUSH1 0x40 MLOAD DUP1 SWAP2 SUB SWAP1 RETURN JUMPDEST PUSH2 0x417 PUSH2 0xC63 JUMP JUMPDEST STOP JUMPDEST CALLVALUE DUP1 ISZERO PUSH2 0x425 JUMPI PUSH1 0x0 DUP1 REVERT JUMPDEST POP PUSH2 0x440 PUSH1 0x4 DUP1 CALLDATASIZE SUB DUP2 ADD SWAP1 PUSH2 0x43B SWAP2 SWAP1 PUSH2 0x1397 JUMP JUMPDEST PUSH2 0xDE7 JUMP JUMPDEST PUSH1 0x40 MLOAD PUSH2 0x44D SWAP2 SWAP1 PUSH2 0x12D2 JUMP JUMPDEST PUSH1 0x40 MLOAD DUP1 SWAP2 SUB SWAP1 RETURN JUMPDEST CALLVALUE DUP1 ISZERO PUSH2 0x462 JUMPI PUSH1 0x0 DUP1 REVERT JUMPDEST POP PUSH2 0x46B PUSH2 0xE6E JUMP JUMPDEST STOP JUMPDEST PUSH1 0x0 DUP1 SLOAD PUSH2 0x47A SWAP1 PUSH2 0x1406 JUMP JUMPDEST DUP1 PUSH1 0x1F ADD PUSH1 0x20 DUP1 SWAP2 DIV MUL PUSH1 0x20 ADD PUSH1 0x40 MLOAD SWAP1 DUP2 ADD PUSH1 0x40 MSTORE DUP1 SWAP3 SWAP2 SWAP1 DUP2 DUP2 MSTORE PUSH1 0x20 ADD DUP3 DUP1 SLOAD PUSH2 0x4A6 SWAP1 PUSH2 0x1406 JUMP JUMPDEST DUP1 ISZERO PUSH2 0x4F3 JUMPI DUP1 PUSH1 0x1F LT PUSH2 0x4C8 JUMPI PUSH2 0x100 DUP1 DUP4 SLOAD DIV MUL DUP4 MSTORE SWAP2 PUSH1 0x20 ADD SWAP2 PUSH2 0x4F3 JUMP JUMPDEST DUP3 ADD SWAP2 SWAP1 PUSH1 0x0 MSTORE PUSH1 0x20 PUSH1 0x0 KECCAK256 SWAP1 JUMPDEST DUP2 SLOAD DUP2 MSTORE SWAP1 PUSH1 0x1 ADD SWAP1 PUSH1 0x20 ADD DUP1 DUP4 GT PUSH2 0x4D6 JUMPI DUP3 SWAP1 SUB PUSH1 0x1F AND DUP3 ADD SWAP2 JUMPDEST POP POP POP POP POP DUP2 JUMP JUMPDEST PUSH1 0x0 DUP2 PUSH1 0xA PUSH1 0x0 CALLER PUSH20 0xFFFFFFFFFFFFFFFFFFFFFFFFFFFFFFFFFFFFFFFF AND PUSH20 0xFFFFFFFFFFFFFFFFFFFFFFFFFFFFFFFFFFFFFFFF AND DUP2 MSTORE PUSH1 0x20 ADD SWAP1 DUP2 MSTORE PUSH1 0x20 ADD PUSH1 0x0 KECCAK256 PUSH1 0x0 DUP6 PUSH20 0xFFFFFFFFFFFFFFFFFFFFFFFFFFFFFFFFFFFFFFFF AND PUSH20 0xFFFFFFFFFFFFFFFFFFFFFFFFFFFFFFFFFFFFFFFF AND DUP2 MSTORE PUSH1 0x20 ADD SWAP1 DUP2 MSTORE PUSH1 0x20 ADD PUSH1 0x0 KECCAK256 DUP2 SWAP1 SSTORE POP DUP3 PUSH20 0xFFFFFFFFFFFFFFFFFFFFFFFFFFFFFFFFFFFFFFFF AND CALLER PUSH20 0xFFFFFFFFFFFFFFFFFFFFFFFFFFFFFFFFFFFFFFFF AND PUSH32 0x8C5BE1E5EBEC7D5BD14F71427D1E84F3DD0314C0F7B2291E5B200AC8C7C3B925 DUP5 PUSH1 0x40 MLOAD PUSH2 0x5DB SWAP2 SWAP1 PUSH2 0x12D2 JUMP JUMPDEST PUSH1 0x40 MLOAD DUP1 SWAP2 SUB SWAP1 LOG3 PUSH1 0x1 SWAP1 POP SWAP3 SWAP2 POP POP JUMP JUMPDEST PUSH1 0x0 PUSH1 0x7 SLOAD SWAP1 POP SWAP1 JUMP JUMPDEST PUSH1 0x6 SLOAD DUP2 JUMP JUMPDEST PUSH1 0x0 PUSH2 0x651 DUP3 PUSH1 0x9 PUSH1 0x0 DUP8 PUSH20 0xFFFFFFFFFFFFFFFFFFFFFFFFFFFFFFFFFFFFFFFF AND PUSH20 0xFFFFFFFFFFFFFFFFFFFFFFFFFFFFFFFFFFFFFFFF AND DUP2 MSTORE PUSH1 0x20 ADD SWAP1 DUP2 MSTORE PUSH1 0x20 ADD PUSH1 0x0 KECCAK256 SLOAD PUSH2 0xFD8 SWAP1 SWAP2 SWAP1 PUSH4 0xFFFFFFFF AND JUMP JUMPDEST PUSH1 0x9 PUSH1 0x0 DUP7 PUSH20 0xFFFFFFFFFFFFFFFFFFFFFFFFFFFFFFFFFFFFFFFF AND PUSH20 0xFFFFFFFFFFFFFFFFFFFFFFFFFFFFFFFFFFFFFFFF AND DUP2 MSTORE PUSH1 0x20 ADD SWAP1 DUP2 MSTORE PUSH1 0x20 ADD PUSH1 0x0 KECCAK256 DUP2 SWAP1 SSTORE POP PUSH2 0x723 DUP3 PUSH1 0xA PUSH1 0x0 DUP8 PUSH20 0xFFFFFFFFFFFFFFFFFFFFFFFFFFFFFFFFFFFFFFFF AND PUSH20 0xFFFFFFFFFFFFFFFFFFFFFFFFFFFFFFFFFFFFFFFF AND DUP2 MSTORE PUSH1 0x20 ADD SWAP1 DUP2 MSTORE PUSH1 0x20 ADD PUSH1 0x0 KECCAK256 PUSH1 0x0 CALLER PUSH20 0xFFFFFFFFFFFFFFFFFFFFFFFFFFFFFFFFFFFFFFFF AND PUSH20 0xFFFFFFFFFFFFFFFFFFFFFFFFFFFFFFFFFFFFFFFF AND DUP2 MSTORE PUSH1 0x20 ADD SWAP1 DUP2 MSTORE PUSH1 0x20 ADD PUSH1 0x0 KECCAK256 SLOAD PUSH2 0xFD8 SWAP1 SWAP2 SWAP1 PUSH4 0xFFFFFFFF AND JUMP JUMPDEST PUSH1 0xA PUSH1 0x0 DUP7 PUSH20 0xFFFFFFFFFFFFFFFFFFFFFFFFFFFFFFFFFFFFFFFF AND PUSH20 0xFFFFFFFFFFFFFFFFFFFFFFFFFFFFFFFFFFFFFFFF AND DUP2 MSTORE PUSH1 0x20 ADD SWAP1 DUP2 MSTORE PUSH1 0x20 ADD PUSH1 0x0 KECCAK256 PUSH1 0x0 CALLER PUSH20 0xFFFFFFFFFFFFFFFFFFFFFFFFFFFFFFFFFFFFFFFF AND PUSH20 0xFFFFFFFFFFFFFFFFFFFFFFFFFFFFFFFFFFFFFFFF AND DUP2 MSTORE PUSH1 0x20 ADD SWAP1 DUP2 MSTORE PUSH1 0x20 ADD PUSH1 0x0 KECCAK256 DUP2 SWAP1 SSTORE POP PUSH2 0x7F5 DUP3 PUSH1 0x9 PUSH1 0x0 DUP7 PUSH20 0xFFFFFFFFFFFFFFFFFFFFFFFFFFFFFFFFFFFFFFFF AND PUSH20 0xFFFFFFFFFFFFFFFFFFFFFFFFFFFFFFFFFFFFFFFF AND DUP2 MSTORE PUSH1 0x20 ADD SWAP1 DUP2 MSTORE PUSH1 0x20 ADD PUSH1 0x0 KECCAK256 SLOAD PUSH2 0xFFB SWAP1 SWAP2 SWAP1 PUSH4 0xFFFFFFFF AND JUMP JUMPDEST PUSH1 0x9 PUSH1 0x0 DUP6 PUSH20 0xFFFFFFFFFFFFFFFFFFFFFFFFFFFFFFFFFFFFFFFF AND PUSH20 0xFFFFFFFFFFFFFFFFFFFFFFFFFFFFFFFFFFFFFFFF AND DUP2 MSTORE PUSH1 0x20 ADD SWAP1 DUP2 MSTORE PUSH1 0x20 ADD PUSH1 0x0 KECCAK256 DUP2 SWAP1 SSTORE POP DUP3 PUSH20 0xFFFFFFFFFFFFFFFFFFFFFFFFFFFFFFFFFFFFFFFF AND DUP5 PUSH20 0xFFFFFFFFFFFFFFFFFFFFFFFFFFFFFFFFFFFFFFFF AND PUSH32 0xDDF252AD1BE2C89B69C2B068FC378DAA952BA7F163C4A11628F55A4DF523B3EF DUP5 PUSH1 0x40 MLOAD PUSH2 0x895 SWAP2 SWAP1 PUSH2 0x12D2 JUMP JUMPDEST PUSH1 0x40 MLOAD DUP1 SWAP2 SUB SWAP1 LOG3 PUSH1 0x1 SWAP1 POP SWAP4 SWAP3 POP POP POP JUMP JUMPDEST PUSH1 0x0 DUP1 CALLER SWAP1 POP DUP1 SWAP2 POP POP SWAP1 JUMP JUMPDEST PUSH1 0x9 PUSH1 0x20 MSTORE DUP1 PUSH1 0x0 MSTORE PUSH1 0x40 PUSH1 0x0 KECCAK256 PUSH1 0x0 SWAP2 POP SWAP1 POP SLOAD DUP2 JUMP JUMPDEST PUSH1 0x2 SLOAD DUP2 JUMP JUMPDEST PUSH1 0x8 PUSH1 0x0 SWAP1 SLOAD SWAP1 PUSH2 0x100 EXP SWAP1 DIV PUSH20 0xFFFFFFFFFFFFFFFFFFFFFFFFFFFFFFFFFFFFFFFF AND PUSH20 0xFFFFFFFFFFFFFFFFFFFFFFFFFFFFFFFFFFFFFFFF AND CALLER PUSH20 0xFFFFFFFFFFFFFFFFFFFFFFFFFFFFFFFFFFFFFFFF AND EQ PUSH2 0x92D JUMPI PUSH1 0x0 DUP1 REVERT JUMPDEST PUSH1 0x8 PUSH1 0x0 SWAP1 SLOAD SWAP1 PUSH2 0x100 EXP SWAP1 DIV PUSH20 0xFFFFFFFFFFFFFFFFFFFFFFFFFFFFFFFFFFFFFFFF AND PUSH20 0xFFFFFFFFFFFFFFFFFFFFFFFFFFFFFFFFFFFFFFFF AND PUSH2 0x8FC SELFBALANCE SWAP1 DUP2 ISZERO MUL SWAP1 PUSH1 0x40 MLOAD PUSH1 0x0 PUSH1 0x40 MLOAD DUP1 DUP4 SUB DUP2 DUP6 DUP9 DUP9 CALL SWAP4 POP POP POP POP ISZERO DUP1 ISZERO PUSH2 0x995 JUMPI RETURNDATASIZE PUSH1 0x0 DUP1 RETURNDATACOPY RETURNDATASIZE PUSH1 0x0 REVERT JUMPDEST POP JUMP JUMPDEST PUSH1 0x3 SLOAD DUP2 JUMP JUMPDEST PUSH1 0x0 PUSH1 0x9 PUSH1 0x0 DUP4 PUSH20 0xFFFFFFFFFFFFFFFFFFFFFFFFFFFFFFFFFFFFFFFF AND PUSH20 0xFFFFFFFFFFFFFFFFFFFFFFFFFFFFFFFFFFFFFFFF AND DUP2 MSTORE PUSH1 0x20 ADD SWAP1 DUP2 MSTORE PUSH1 0x20 ADD PUSH1 0x0 KECCAK256 SLOAD SWAP1 POP SWAP2 SWAP1 POP JUMP JUMPDEST PUSH1 0x1 DUP1 SLOAD PUSH2 0x9F4 SWAP1 PUSH2 0x1406 JUMP JUMPDEST DUP1 PUSH1 0x1F ADD PUSH1 0x20 DUP1 SWAP2 DIV MUL PUSH1 0x20 ADD PUSH1 0x40 MLOAD SWAP1 DUP2 ADD PUSH1 0x40 MSTORE DUP1 SWAP3 SWAP2 SWAP1 DUP2 DUP2 MSTORE PUSH1 0x20 ADD DUP3 DUP1 SLOAD PUSH2 0xA20 SWAP1 PUSH2 0x1406 JUMP JUMPDEST DUP1 ISZERO PUSH2 0xA6D JUMPI DUP1 PUSH1 0x1F LT PUSH2 0xA42 JUMPI PUSH2 0x100 DUP1 DUP4 SLOAD DIV MUL DUP4 MSTORE SWAP2 PUSH1 0x20 ADD SWAP2 PUSH2 0xA6D JUMP JUMPDEST DUP3 ADD SWAP2 SWAP1 PUSH1 0x0 MSTORE PUSH1 0x20 PUSH1 0x0 KECCAK256 SWAP1 JUMPDEST DUP2 SLOAD DUP2 MSTORE SWAP1 PUSH1 0x1 ADD SWAP1 PUSH1 0x20 ADD DUP1 DUP4 GT PUSH2 0xA50 JUMPI DUP3 SWAP1 SUB PUSH1 0x1F AND DUP3 ADD SWAP2 JUMPDEST POP POP POP POP POP DUP2 JUMP JUMPDEST PUSH1 0x4 SLOAD DUP2 JUMP JUMPDEST PUSH1 0x5 SLOAD DUP2 JUMP JUMPDEST PUSH1 0x0 PUSH2 0xAD5 DUP3 PUSH1 0x9 PUSH1 0x0 CALLER PUSH20 0xFFFFFFFFFFFFFFFFFFFFFFFFFFFFFFFFFFFFFFFF AND PUSH20 0xFFFFFFFFFFFFFFFFFFFFFFFFFFFFFFFFFFFFFFFF AND DUP2 MSTORE PUSH1 0x20 ADD SWAP1 DUP2 MSTORE PUSH1 0x20 ADD PUSH1 0x0 KECCAK256 SLOAD PUSH2 0xFD8 SWAP1 SWAP2 SWAP1 PUSH4 0xFFFFFFFF AND JUMP JUMPDEST PUSH1 0x9 PUSH1 0x0 CALLER PUSH20 0xFFFFFFFFFFFFFFFFFFFFFFFFFFFFFFFFFFFFFFFF AND PUSH20 0xFFFFFFFFFFFFFFFFFFFFFFFFFFFFFFFFFFFFFFFF AND DUP2 MSTORE PUSH1 0x20 ADD SWAP1 DUP2 MSTORE PUSH1 0x20 ADD PUSH1 0x0 KECCAK256 DUP2 SWAP1 SSTORE POP PUSH2 0xB6A DUP3 PUSH1 0x9 PUSH1 0x0 DUP7 PUSH20 0xFFFFFFFFFFFFFFFFFFFFFFFFFFFFFFFFFFFFFFFF AND PUSH20 0xFFFFFFFFFFFFFFFFFFFFFFFFFFFFFFFFFFFFFFFF AND DUP2 MSTORE PUSH1 0x20 ADD SWAP1 DUP2 MSTORE PUSH1 0x20 ADD PUSH1 0x0 KECCAK256 SLOAD PUSH2 0xFFB SWAP1 SWAP2 SWAP1 PUSH4 0xFFFFFFFF AND JUMP JUMPDEST PUSH1 0x9 PUSH1 0x0 DUP6 PUSH20 0xFFFFFFFFFFFFFFFFFFFFFFFFFFFFFFFFFFFFFFFF AND PUSH20 0xFFFFFFFFFFFFFFFFFFFFFFFFFFFFFFFFFFFFFFFF AND DUP2 MSTORE PUSH1 0x20 ADD SWAP1 DUP2 MSTORE PUSH1 0x20 ADD PUSH1 0x0 KECCAK256 DUP2 SWAP1 SSTORE POP DUP3 PUSH20 0xFFFFFFFFFFFFFFFFFFFFFFFFFFFFFFFFFFFFFFFF AND CALLER PUSH20 0xFFFFFFFFFFFFFFFFFFFFFFFFFFFFFFFFFFFFFFFF AND PUSH32 0xDDF252AD1BE2C89B69C2B068FC378DAA952BA7F163C4A11628F55A4DF523B3EF DUP5 PUSH1 0x40 MLOAD PUSH2 0xC0A SWAP2 SWAP1 PUSH2 0x12D2 JUMP JUMPDEST PUSH1 0x40 MLOAD DUP1 SWAP2 SUB SWAP1 LOG3 PUSH1 0x1 SWAP1 POP SWAP3 SWAP2 POP POP JUMP JUMPDEST PUSH1 0x0 PUSH1 0x9 PUSH1 0x0 CALLER PUSH20 0xFFFFFFFFFFFFFFFFFFFFFFFFFFFFFFFFFFFFFFFF AND PUSH20 0xFFFFFFFFFFFFFFFFFFFFFFFFFFFFFFFFFFFFFFFF AND DUP2 MSTORE PUSH1 0x20 ADD SWAP1 DUP2 MSTORE PUSH1 0x20 ADD PUSH1 0x0 KECCAK256 SLOAD SWAP1 POP SWAP1 JUMP JUMPDEST PUSH1 0x0 PUSH1 0x3 SLOAD TIMESTAMP GT PUSH2 0xC89 JUMPI PUSH2 0xC82 PUSH1 0x7D CALLVALUE PUSH2 0x101E SWAP1 SWAP2 SWAP1 PUSH4 0xFFFFFFFF AND JUMP JUMPDEST SWAP1 POP PUSH2 0xCA0 JUMP JUMPDEST PUSH2 0xC9D PUSH1 0x64 CALLVALUE PUSH2 0x101E SWAP1 SWAP2 SWAP1 PUSH4 0xFFFFFFFF AND JUMP JUMPDEST SWAP1 POP JUMPDEST PUSH2 0xCB4 PUSH1 0x64 CALLVALUE PUSH2 0x101E SWAP1 SWAP2 SWAP1 PUSH4 0xFFFFFFFF AND JUMP JUMPDEST SWAP1 POP PUSH2 0xD08 DUP2 PUSH1 0x9 PUSH1 0x0 CALLER PUSH20 0xFFFFFFFFFFFFFFFFFFFFFFFFFFFFFFFFFFFFFFFF AND PUSH20 0xFFFFFFFFFFFFFFFFFFFFFFFFFFFFFFFFFFFFFFFF AND DUP2 MSTORE PUSH1 0x20 ADD SWAP1 DUP2 MSTORE PUSH1 0x20 ADD PUSH1 0x0 KECCAK256 SLOAD PUSH2 0xFFB SWAP1 SWAP2 SWAP1 PUSH4 0xFFFFFFFF AND JUMP JUMPDEST PUSH1 0x9 PUSH1 0x0 CALLER PUSH20 0xFFFFFFFFFFFFFFFFFFFFFFFFFFFFFFFFFFFFFFFF AND PUSH20 0xFFFFFFFFFFFFFFFFFFFFFFFFFFFFFFFFFFFFFFFF AND DUP2 MSTORE PUSH1 0x20 ADD SWAP1 DUP2 MSTORE PUSH1 0x20 ADD PUSH1 0x0 KECCAK256 DUP2 SWAP1 SSTORE POP PUSH2 0xD60 DUP2 PUSH1 0x7 SLOAD PUSH2 0xFFB SWAP1 SWAP2 SWAP1 PUSH4 0xFFFFFFFF AND JUMP JUMPDEST PUSH1 0x7 DUP2 SWAP1 SSTORE POP CALLER PUSH20 0xFFFFFFFFFFFFFFFFFFFFFFFFFFFFFFFFFFFFFFFF AND PUSH1 0x0 PUSH20 0xFFFFFFFFFFFFFFFFFFFFFFFFFFFFFFFFFFFFFFFF AND PUSH32 0xDDF252AD1BE2C89B69C2B068FC378DAA952BA7F163C4A11628F55A4DF523B3EF DUP4 PUSH1 0x40 MLOAD PUSH2 0xDC4 SWAP2 SWAP1 PUSH2 0x12D2 JUMP JUMPDEST PUSH1 0x40 MLOAD DUP1 SWAP2 SUB SWAP1 LOG3 PUSH1 0x6 PUSH1 0x0 DUP2 SLOAD DUP1 SWAP3 SWAP2 SWAP1 PUSH2 0xDDF SWAP1 PUSH2 0x1467 JUMP JUMPDEST SWAP2 SWAP1 POP SSTORE POP POP JUMP JUMPDEST PUSH1 0x0 PUSH1 0xA PUSH1 0x0 DUP5 PUSH20 0xFFFFFFFFFFFFFFFFFFFFFFFFFFFFFFFFFFFFFFFF AND PUSH20 0xFFFFFFFFFFFFFFFFFFFFFFFFFFFFFFFFFFFFFFFF AND DUP2 MSTORE PUSH1 0x20 ADD SWAP1 DUP2 MSTORE PUSH1 0x20 ADD PUSH1 0x0 KECCAK256 PUSH1 0x0 DUP4 PUSH20 0xFFFFFFFFFFFFFFFFFFFFFFFFFFFFFFFFFFFFFFFF AND PUSH20 0xFFFFFFFFFFFFFFFFFFFFFFFFFFFFFFFFFFFFFFFF AND DUP2 MSTORE PUSH1 0x20 ADD SWAP1 DUP2 MSTORE PUSH1 0x20 ADD PUSH1 0x0 KECCAK256 SLOAD SWAP1 POP SWAP3 SWAP2 POP POP JUMP JUMPDEST PUSH1 0x40 MLOAD DUP1 PUSH1 0x40 ADD PUSH1 0x40 MSTORE DUP1 PUSH1 0x9 DUP2 MSTORE PUSH1 0x20 ADD PUSH32 0x44656D6F20436F696E0000000000000000000000000000000000000000000000 DUP2 MSTORE POP PUSH1 0x0 SWAP1 DUP1 MLOAD SWAP1 PUSH1 0x20 ADD SWAP1 PUSH2 0xEB9 SWAP3 SWAP2 SWAP1 PUSH2 0x1056 JUMP JUMPDEST POP PUSH1 0x12 PUSH1 0x2 DUP2 SWAP1 SSTORE POP PUSH1 0x40 MLOAD DUP1 PUSH1 0x40 ADD PUSH1 0x40 MSTORE DUP1 PUSH1 0x2 DUP2 MSTORE PUSH1 0x20 ADD PUSH32 0x4443000000000000000000000000000000000000000000000000000000000000 DUP2 MSTORE POP PUSH1 0x1 SWAP1 DUP1 MLOAD SWAP1 PUSH1 0x20 ADD SWAP1 PUSH2 0xF0D SWAP3 SWAP2 SWAP1 PUSH2 0x1056 JUMP JUMPDEST POP PUSH3 0x127500 TIMESTAMP PUSH2 0xF1D SWAP2 SWAP1 PUSH2 0x14B0 JUMP JUMPDEST PUSH1 0x3 DUP2 SWAP1 SSTORE POP PUSH3 0x24EA00 TIMESTAMP PUSH2 0xF32 SWAP2 SWAP1 PUSH2 0x14B0 JUMP JUMPDEST PUSH1 0x4 DUP2 SWAP1 SSTORE POP TIMESTAMP PUSH1 0x5 DUP2 SWAP1 SSTORE POP PUSH9 0x56BC75E2D63100000 PUSH1 0x7 DUP2 SWAP1 SSTORE POP CALLER PUSH1 0x8 PUSH1 0x0 PUSH2 0x100 EXP DUP2 SLOAD DUP2 PUSH20 0xFFFFFFFFFFFFFFFFFFFFFFFFFFFFFFFFFFFFFFFF MUL NOT AND SWAP1 DUP4 PUSH20 0xFFFFFFFFFFFFFFFFFFFFFFFFFFFFFFFFFFFFFFFF AND MUL OR SWAP1 SSTORE POP PUSH1 0x7 SLOAD PUSH1 0x9 PUSH1 0x0 CALLER PUSH20 0xFFFFFFFFFFFFFFFFFFFFFFFFFFFFFFFFFFFFFFFF AND PUSH20 0xFFFFFFFFFFFFFFFFFFFFFFFFFFFFFFFFFFFFFFFF AND DUP2 MSTORE PUSH1 0x20 ADD SWAP1 DUP2 MSTORE PUSH1 0x20 ADD PUSH1 0x0 KECCAK256 DUP2 SWAP1 SSTORE POP JUMP JUMPDEST PUSH1 0x0 DUP3 DUP3 GT ISZERO PUSH2 0xFE7 JUMPI PUSH1 0x0 DUP1 REVERT JUMPDEST DUP2 DUP4 PUSH2 0xFF3 SWAP2 SWAP1 PUSH2 0x1506 JUMP JUMPDEST SWAP1 POP SWAP3 SWAP2 POP POP JUMP JUMPDEST PUSH1 0x0 DUP2 DUP4 PUSH2 0x1009 SWAP2 SWAP1 PUSH2 0x14B0 JUMP JUMPDEST SWAP1 POP DUP3 DUP2 LT ISZERO PUSH2 0x1018 JUMPI PUSH1 0x0 DUP1 REVERT JUMPDEST SWAP3 SWAP2 POP POP JUMP JUMPDEST PUSH1 0x0 DUP2 DUP4 PUSH2 0x102C SWAP2 SWAP1 PUSH2 0x153A JUMP JUMPDEST SWAP1 POP PUSH1 0x0 DUP4 EQ DUP1 PUSH2 0x1047 JUMPI POP DUP2 DUP4 DUP3 PUSH2 0x1045 SWAP2 SWAP1 PUSH2 0x15C3 JUMP JUMPDEST EQ JUMPDEST PUSH2 0x1050 JUMPI PUSH1 0x0 DUP1 REVERT JUMPDEST SWAP3 SWAP2 POP POP JUMP JUMPDEST DUP3 DUP1 SLOAD PUSH2 0x1062 SWAP1 PUSH2 0x1406 JUMP JUMPDEST SWAP1 PUSH1 0x0 MSTORE PUSH1 0x20 PUSH1 0x0 KECCAK256 SWAP1 PUSH1 0x1F ADD PUSH1 0x20 SWAP1 DIV DUP2 ADD SWAP3 DUP3 PUSH2 0x1084 JUMPI PUSH1 0x0 DUP6 SSTORE PUSH2 0x10CB JUMP JUMPDEST DUP3 PUSH1 0x1F LT PUSH2 0x109D JUMPI DUP1 MLOAD PUSH1 0xFF NOT AND DUP4 DUP1 ADD OR DUP6 SSTORE PUSH2 0x10CB JUMP JUMPDEST DUP3 DUP1 ADD PUSH1 0x1 ADD DUP6 SSTORE DUP3 ISZERO PUSH2 0x10CB JUMPI SWAP2 DUP3 ADD JUMPDEST DUP3 DUP2 GT ISZERO PUSH2 0x10CA JUMPI DUP3 MLOAD DUP3 SSTORE SWAP2 PUSH1 0x20 ADD SWAP2 SWAP1 PUSH1 0x1 ADD SWAP1 PUSH2 0x10AF JUMP JUMPDEST JUMPDEST POP SWAP1 POP PUSH2 0x10D8 SWAP2 SWAP1 PUSH2 0x10DC JUMP JUMPDEST POP SWAP1 JUMP JUMPDEST JUMPDEST DUP1 DUP3 GT ISZERO PUSH2 0x10F5 JUMPI PUSH1 0x0 DUP2 PUSH1 0x0 SWAP1 SSTORE POP PUSH1 0x1 ADD PUSH2 0x10DD JUMP JUMPDEST POP SWAP1 JUMP JUMPDEST PUSH1 0x0 DUP2 MLOAD SWAP1 POP SWAP2 SWAP1 POP JUMP JUMPDEST PUSH1 0x0 DUP3 DUP3 MSTORE PUSH1 0x20 DUP3 ADD SWAP1 POP SWAP3 SWAP2 POP POP JUMP JUMPDEST PUSH1 0x0 JUMPDEST DUP4 DUP2 LT ISZERO PUSH2 0x1133 JUMPI DUP1 DUP3 ADD MLOAD DUP2 DUP5 ADD MSTORE PUSH1 0x20 DUP2 ADD SWAP1 POP PUSH2 0x1118 JUMP JUMPDEST DUP4 DUP2 GT ISZERO PUSH2 0x1142 JUMPI PUSH1 0x0 DUP5 DUP5 ADD MSTORE JUMPDEST POP POP POP POP JUMP JUMPDEST PUSH1 0x0 PUSH1 0x1F NOT PUSH1 0x1F DUP4 ADD AND SWAP1 POP SWAP2 SWAP1 POP JUMP JUMPDEST PUSH1 0x0 PUSH2 0x1164 DUP3 PUSH2 0x10F9 JUMP JUMPDEST PUSH2 0x116E DUP2 DUP6 PUSH2 0x1104 JUMP JUMPDEST SWAP4 POP PUSH2 0x117E DUP2 DUP6 PUSH1 0x20 DUP7 ADD PUSH2 0x1115 JUMP JUMPDEST PUSH2 0x1187 DUP2 PUSH2 0x1148 JUMP JUMPDEST DUP5 ADD SWAP2 POP POP SWAP3 SWAP2 POP POP JUMP JUMPDEST PUSH1 0x0 PUSH1 0x20 DUP3 ADD SWAP1 POP DUP2 DUP2 SUB PUSH1 0x0 DUP4 ADD MSTORE PUSH2 0x11AC DUP2 DUP5 PUSH2 0x1159 JUMP JUMPDEST SWAP1 POP SWAP3 SWAP2 POP POP JUMP JUMPDEST PUSH1 0x0 DUP1 REVERT JUMPDEST PUSH1 0x0 PUSH20 0xFFFFFFFFFFFFFFFFFFFFFFFFFFFFFFFFFFFFFFFF DUP3 AND SWAP1 POP SWAP2 SWAP1 POP JUMP JUMPDEST PUSH1 0x0 PUSH2 0x11E4 DUP3 PUSH2 0x11B9 JUMP JUMPDEST SWAP1 POP SWAP2 SWAP1 POP JUMP JUMPDEST PUSH2 0x11F4 DUP2 PUSH2 0x11D9 JUMP JUMPDEST DUP2 EQ PUSH2 0x11FF JUMPI PUSH1 0x0 DUP1 REVERT JUMPDEST POP JUMP JUMPDEST PUSH1 0x0 DUP2 CALLDATALOAD SWAP1 POP PUSH2 0x1211 DUP2 PUSH2 0x11EB JUMP JUMPDEST SWAP3 SWAP2 POP POP JUMP JUMPDEST PUSH1 0x0 DUP2 SWAP1 POP SWAP2 SWAP1 POP JUMP JUMPDEST PUSH2 0x122A DUP2 PUSH2 0x1217 JUMP JUMPDEST DUP2 EQ PUSH2 0x1235 JUMPI PUSH1 0x0 DUP1 REVERT JUMPDEST POP JUMP JUMPDEST PUSH1 0x0 DUP2 CALLDATALOAD SWAP1 POP PUSH2 0x1247 DUP2 PUSH2 0x1221 JUMP JUMPDEST SWAP3 SWAP2 POP POP JUMP JUMPDEST PUSH1 0x0 DUP1 PUSH1 0x40 DUP4 DUP6 SUB SLT ISZERO PUSH2 0x1264 JUMPI PUSH2 0x1263 PUSH2 0x11B4 JUMP JUMPDEST JUMPDEST PUSH1 0x0 PUSH2 0x1272 DUP6 DUP3 DUP7 ADD PUSH2 0x1202 JUMP JUMPDEST SWAP3 POP POP PUSH1 0x20 PUSH2 0x1283 DUP6 DUP3 DUP7 ADD PUSH2 0x1238 JUMP JUMPDEST SWAP2 POP POP SWAP3 POP SWAP3 SWAP1 POP JUMP JUMPDEST PUSH1 0x0 DUP2 ISZERO ISZERO SWAP1 POP SWAP2 SWAP1 POP JUMP JUMPDEST PUSH2 0x12A2 DUP2 PUSH2 0x128D JUMP JUMPDEST DUP3 MSTORE POP POP JUMP JUMPDEST PUSH1 0x0 PUSH1 0x20 DUP3 ADD SWAP1 POP PUSH2 0x12BD PUSH1 0x0 DUP4 ADD DUP5 PUSH2 0x1299 JUMP JUMPDEST SWAP3 SWAP2 POP POP JUMP JUMPDEST PUSH2 0x12CC DUP2 PUSH2 0x1217 JUMP JUMPDEST DUP3 MSTORE POP POP JUMP JUMPDEST PUSH1 0x0 PUSH1 0x20 DUP3 ADD SWAP1 POP PUSH2 0x12E7 PUSH1 0x0 DUP4 ADD DUP5 PUSH2 0x12C3 JUMP JUMPDEST SWAP3 SWAP2 POP POP JUMP JUMPDEST PUSH1 0x0 DUP1 PUSH1 0x0 PUSH1 0x60 DUP5 DUP7 SUB SLT ISZERO PUSH2 0x1306 JUMPI PUSH2 0x1305 PUSH2 0x11B4 JUMP JUMPDEST JUMPDEST PUSH1 0x0 PUSH2 0x1314 DUP7 DUP3 DUP8 ADD PUSH2 0x1202 JUMP JUMPDEST SWAP4 POP POP PUSH1 0x20 PUSH2 0x1325 DUP7 DUP3 DUP8 ADD PUSH2 0x1202 JUMP JUMPDEST SWAP3 POP POP PUSH1 0x40 PUSH2 0x1336 DUP7 DUP3 DUP8 ADD PUSH2 0x1238 JUMP JUMPDEST SWAP2 POP POP SWAP3 POP SWAP3 POP SWAP3 JUMP JUMPDEST PUSH2 0x1349 DUP2 PUSH2 0x11D9 JUMP JUMPDEST DUP3 MSTORE POP POP JUMP JUMPDEST PUSH1 0x0 PUSH1 0x20 DUP3 ADD SWAP1 POP PUSH2 0x1364 PUSH1 0x0 DUP4 ADD DUP5 PUSH2 0x1340 JUMP JUMPDEST SWAP3 SWAP2 POP POP JUMP JUMPDEST PUSH1 0x0 PUSH1 0x20 DUP3 DUP5 SUB SLT ISZERO PUSH2 0x1380 JUMPI PUSH2 0x137F PUSH2 0x11B4 JUMP JUMPDEST JUMPDEST PUSH1 0x0 PUSH2 0x138E DUP5 DUP3 DUP6 ADD PUSH2 0x1202 JUMP JUMPDEST SWAP2 POP POP SWAP3 SWAP2 POP POP JUMP JUMPDEST PUSH1 0x0 DUP1 PUSH1 0x40 DUP4 DUP6 SUB SLT ISZERO PUSH2 0x13AE JUMPI PUSH2 0x13AD PUSH2 0x11B4 JUMP JUMPDEST JUMPDEST PUSH1 0x0 PUSH2 0x13BC DUP6 DUP3 DUP7 ADD PUSH2 0x1202 JUMP JUMPDEST SWAP3 POP POP PUSH1 0x20 PUSH2 0x13CD DUP6 DUP3 DUP7 ADD PUSH2 0x1202 JUMP JUMPDEST SWAP2 POP POP SWAP3 POP SWAP3 SWAP1 POP JUMP JUMPDEST PUSH32 0x4E487B7100000000000000000000000000000000000000000000000000000000 PUSH1 0x0 MSTORE PUSH1 0x22 PUSH1 0x4 MSTORE PUSH1 0x24 PUSH1 0x0 REVERT JUMPDEST PUSH1 0x0 PUSH1 0x2 DUP3 DIV SWAP1 POP PUSH1 0x1 DUP3 AND DUP1 PUSH2 0x141E JUMPI PUSH1 0x7F DUP3 AND SWAP2 POP JUMPDEST PUSH1 0x20 DUP3 LT DUP2 EQ ISZERO PUSH2 0x1432 JUMPI PUSH2 0x1431 PUSH2 0x13D7 JUMP JUMPDEST JUMPDEST POP SWAP2 SWAP1 POP JUMP JUMPDEST PUSH32 0x4E487B7100000000000000000000000000000000000000000000000000000000 PUSH1 0x0 MSTORE PUSH1 0x11 PUSH1 0x4 MSTORE PUSH1 0x24 PUSH1 0x0 REVERT JUMPDEST PUSH1 0x0 PUSH2 0x1472 DUP3 PUSH2 0x1217 JUMP JUMPDEST SWAP2 POP PUSH32 0xFFFFFFFFFFFFFFFFFFFFFFFFFFFFFFFFFFFFFFFFFFFFFFFFFFFFFFFFFFFFFFFF DUP3 EQ ISZERO PUSH2 0x14A5 JUMPI PUSH2 0x14A4 PUSH2 0x1438 JUMP JUMPDEST JUMPDEST PUSH1 0x1 DUP3 ADD SWAP1 POP SWAP2 SWAP1 POP JUMP JUMPDEST PUSH1 0x0 PUSH2 0x14BB DUP3 PUSH2 0x1217 JUMP JUMPDEST SWAP2 POP PUSH2 0x14C6 DUP4 PUSH2 0x1217 JUMP JUMPDEST SWAP3 POP DUP3 PUSH32 0xFFFFFFFFFFFFFFFFFFFFFFFFFFFFFFFFFFFFFFFFFFFFFFFFFFFFFFFFFFFFFFFF SUB DUP3 GT ISZERO PUSH2 0x14FB JUMPI PUSH2 0x14FA PUSH2 0x1438 JUMP JUMPDEST JUMPDEST DUP3 DUP3 ADD SWAP1 POP SWAP3 SWAP2 POP POP JUMP JUMPDEST PUSH1 0x0 PUSH2 0x1511 DUP3 PUSH2 0x1217 JUMP JUMPDEST SWAP2 POP PUSH2 0x151C DUP4 PUSH2 0x1217 JUMP JUMPDEST SWAP3 POP DUP3 DUP3 LT ISZERO PUSH2 0x152F JUMPI PUSH2 0x152E PUSH2 0x1438 JUMP JUMPDEST JUMPDEST DUP3 DUP3 SUB SWAP1 POP SWAP3 SWAP2 POP POP JUMP JUMPDEST PUSH1 0x0 PUSH2 0x1545 DUP3 PUSH2 0x1217 JUMP JUMPDEST SWAP2 POP PUSH2 0x1550 DUP4 PUSH2 0x1217 JUMP JUMPDEST SWAP3 POP DUP2 PUSH32 0xFFFFFFFFFFFFFFFFFFFFFFFFFFFFFFFFFFFFFFFFFFFFFFFFFFFFFFFFFFFFFFFF DIV DUP4 GT DUP3 ISZERO ISZERO AND ISZERO PUSH2 0x1589 JUMPI PUSH2 0x1588 PUSH2 0x1438 JUMP JUMPDEST JUMPDEST DUP3 DUP3 MUL SWAP1 POP SWAP3 SWAP2 POP POP JUMP JUMPDEST PUSH32 0x4E487B7100000000000000000000000000000000000000000000000000000000 PUSH1 0x0 MSTORE PUSH1 0x12 PUSH1 0x4 MSTORE PUSH1 0x24 PUSH1 0x0 REVERT JUMPDEST PUSH1 0x0 PUSH2 0x15CE DUP3 PUSH2 0x1217 JUMP JUMPDEST SWAP2 POP PUSH2 0x15D9 DUP4 PUSH2 0x1217 JUMP JUMPDEST SWAP3 POP DUP3 PUSH2 0x15E9 JUMPI PUSH2 0x15E8 PUSH2 0x1594 JUMP JUMPDEST JUMPDEST DUP3 DUP3 DIV SWAP1 POP SWAP3 SWAP2 POP POP JUMP INVALID LOG2 PUSH5 0x6970667358 0x22 SLT KECCAK256 SWAP5 0xE1 MSTORE SWAP5 PUSH18 0x32476148651FABAEBE9A95F7F86F7D86A675 0xA8 CALLDATASIZE 0xE9 0xD4 SELFDESTRUCT DUP6 DUP16 0xC9 MLOAD PUSH5 0x736F6C6343 STOP ADDMOD SIGNEXTEND STOP CALLER "},"gasEstimates":{"creation":{"codeDepositCost":"1134800","executionCost":"1180","totalCost":"1135980"},"external":{"ICO_Constructor()":"infinite","allContributers()":"2519","allowance(address,address)":"infinite","approve(address,uint256)":"infinite","balanceOf(address)":"2886","balances(address)":"2881","bonusEnds()":"2452","buyTokens()":"infinite","decimals()":"2518","endSale()":"infinite","icoEnds()":"2518","icoStarts()":"2540","myAddress()":"443","myBalance()":"2570","name()":"infinite","symbol()":"infinite","totalSupply()":"2505","transfer(address,uint256)":"infinite","transferFrom(address,address,uint256)":"infinite"}},"methodIdentifiers":{"ICO_Constructor()":"f2a94299","allContributers()":"1f88cb60","allowance(address,address)":"dd62ed3e","approve(address,uint256)":"095ea7b3","balanceOf(address)":"70a08231","balances(address)":"27e235e3","bonusEnds()":"40c65003","buyTokens()":"d0febe4c","decimals()":"313ce567","endSale()":"380d831b","icoEnds()":"9a8ca12c","icoStarts()":"9c3e0f3f","myAddress()":"26b85ee1","myBalance()":"c9116b69","name()":"06fdde03","symbol()":"95d89b41","totalSupply()":"18160ddd","transfer(address,uint256)":"a9059cbb","transferFrom(address,address,uint256)":"23b872dd"}},"storageLayout":{"storage":[{"astId":170,"contract":"ICO.sol:ICO","label":"name","offset":0,"slot":"0","type":"t_string_storage"},{"astId":172,"contract":"ICO.sol:ICO","label":"symbol","offset":0,"slot":"1","type":"t_string_storage"},{"astId":174,"contract":"ICO.sol:ICO","label":"decimals","offset":0,"slot":"2","type":"t_uint256"},{"astId":176,"contract":"ICO.sol:ICO","label":"bonusEnds","offset":0,"slot":"3","type":"t_uint256"},{"astId":178,"contract":"ICO.sol:ICO","label":"icoEnds","offset":0,"slot":"4","type":"t_uint256"},{"astId":180,"contract":"ICO.sol:ICO","label":"icoStarts","offset":0,"slot":"5","type":"t_uint256"},{"astId":182,"contract":"ICO.sol:ICO","label":"allContributers","offset":0,"slot":"6","type":"t_uint256"},{"astId":184,"contract":"ICO.sol:ICO","label":"allTokens","offset":0,"slot":"7","type":"t_uint256"},{"astId":186,"contract":"ICO.sol:ICO","label":"admin","offset":0,"slot":"8","type":"t_address"},{"astId":190,"contract":"ICO.sol:ICO","label":"balances","offset":0,"slot":"9","type":"t_mapping(t_address,t_uint256)"},{"astId":196,"contract":"ICO.sol:ICO","label":"allowed","offset":0,"slot":"10","type":"t_mapping(t_address,t_mapping(t_address,t_uint256))"}],"types":{"t_address":{"encoding":"inplace","label":"address","numberOfBytes":"20"},"t_mapping(t_address,t_mapping(t_address,t_uint256))":{"encoding":"mapping","key":"t_address","label":"mapping(address => mapping(address => uint256))","numberOfBytes":"32","value":"t_mapping(t_address,t_uint256)"},"t_mapping(t_address,t_uint256)":{"encoding":"mapping","key":"t_address","label":"mapping(address => uint256)","numberOfBytes":"32","value":"t_uint256"},"t_string_storage":{"encoding":"bytes","label":"string","numberOfBytes":"32"},"t_uint256":{"encoding":"inplace","label":"uint256","numberOfBytes":"32"}}},"userdoc":{"kind":"user","methods":{},"version":1}}