{"abi":[{"inputs":[],"stateMutability":"nonpayable","type":"constructor"},{"anonymous":false,"inputs":[{"indexed":true,"internalType":"address","name":"tokenOwner","type":"address"},{"indexed":true,"internalType":"address","name":"spender","type":"address"},{"indexed":false,"internalType":"uint256","name":"tokens","type":"uint256"}],"name":"Approval","type":"event"},{"anonymous":false,"inputs":[{"indexed":true,"internalType":"address","name":"from","type":"address"},{"indexed":true,"internalType":"address","name":"to","type":"address"},{"indexed":false,"internalType":"uint256","name":"tokens","type":"uint256"}],"name":"Transfer","type":"event"},{"inputs":[],"name":"allContributers","outputs":[{"internalType":"uint256","name":"","type":"uint256"}],"stateMutability":"view","type":"function"},{"inputs":[{"internalType":"address","name":"tokenOwner","type":"address"},{"internalType":"address","name":"spender","type":"address"}],"name":"allowance","outputs":[{"internalType":"uint256","name":"remaining","type":"uint256"}],"stateMutability":"view","type":"function"},{"inputs":[{"internalType":"address","name":"spender","type":"address"},{"internalType":"uint256","name":"tokens","type":"uint256"}],"name":"approve","outputs":[{"internalType":"bool","name":"success","type":"bool"}],"stateMutability":"nonpayable","type":"function"},{"inputs":[{"internalType":"address","name":"tokenOwner","type":"address"}],"name":"balanceOf","outputs":[{"internalType":"uint256","name":"balance","type":"uint256"}],"stateMutability":"view","type":"function"},{"inputs":[{"internalType":"address","name":"","type":"address"}],"name":"balances","outputs":[{"internalType":"uint256","name":"","type":"uint256"}],"stateMutability":"view","type":"function"},{"inputs":[],"name":"bonusEnds","outputs":[{"internalType":"uint256","name":"","type":"uint256"}],"stateMutability":"view","type":"function"},{"inputs":[],"name":"buyTokens","outputs":[],"stateMutability":"payable","type":"function"},{"inputs":[],"name":"decimals","outputs":[{"internalType":"uint256","name":"","type":"uint256"}],"stateMutability":"view","type":"function"},{"inputs":[],"name":"endSale","outputs":[],"stateMutability":"nonpayable","type":"function"},{"inputs":[],"name":"icoEnds","outputs":[{"internalType":"uint256","name":"","type":"uint256"}],"stateMutability":"view","type":"function"},{"inputs":[],"name":"icoStarts","outputs":[{"internalType":"uint256","name":"","type":"uint256"}],"stateMutability":"view","type":"function"},{"inputs":[],"name":"myAddress","outputs":[{"internalType":"address","name":"","type":"address"}],"stateMutability":"view","type":"function"},{"inputs":[],"name":"myBalance","outputs":[{"internalType":"uint256","name":"","type":"uint256"}],"stateMutability":"view","type":"function"},{"inputs":[],"name":"name","outputs":[{"internalType":"string","name":"","type":"string"}],"stateMutability":"view","type":"function"},{"inputs":[],"name":"symbol","outputs":[{"internalType":"string","name":"","type":"string"}],"stateMutability":"view","type":"function"},{"inputs":[],"name":"totalSupply","outputs":[{"internalType":"uint256","name":"","type":"uint256"}],"stateMutability":"view","type":"function"},{"inputs":[{"internalType":"address","name":"to","type":"address"},{"internalType":"uint256","name":"tokens","type":"uint256"}],"name":"transfer","outputs":[{"internalType":"bool","name":"success","type":"bool"}],"stateMutability":"nonpayable","type":"function"},{"inputs":[{"internalType":"address","name":"from","type":"address"},{"internalType":"address","name":"to","type":"address"},{"internalType":"uint256","name":"tokens","type":"uint256"}],"name":"transferFrom","outputs":[{"internalType":"bool","name":"success","type":"bool"}],"stateMutability":"nonpayable","type":"function"}],"devdoc":{"kind":"dev","methods":{},"version":1},"evm":{"assembly":"    /* \"ICO.sol\":1342:4219  contract ICO is ERC20Interface{... */\n  mstore(0x40, 0x80)\n    /* \"ICO.sol\":1754:2107  constructor() {... */\n  callvalue\n  dup1\n  iszero\n  tag_1\n  jumpi\n  0x00\n  dup1\n  revert\ntag_1:\n  pop\n    /* \"ICO.sol\":1779:1797  name = \"Demo Coin\" */\n  mload(0x40)\n  dup1\n  0x40\n  add\n  0x40\n  mstore\n  dup1\n  0x09\n  dup2\n  mstore\n  0x20\n  add\n  0x44656d6f20436f696e0000000000000000000000000000000000000000000000\n  dup2\n  mstore\n  pop\n    /* \"ICO.sol\":1779:1783  name */\n  0x00\n    /* \"ICO.sol\":1779:1797  name = \"Demo Coin\" */\n  swap1\n  dup1\n  mload\n  swap1\n  0x20\n  add\n  swap1\n  tag_4\n  swap3\n  swap2\n  swap1\n  tag_5\n  jump\t// in\ntag_4:\n  pop\n    /* \"ICO.sol\":1819:1821  18 */\n  0x12\n    /* \"ICO.sol\":1808:1816  decimals */\n  0x02\n    /* \"ICO.sol\":1808:1821  decimals = 18 */\n  dup2\n  swap1\n  sstore\n  pop\n    /* \"ICO.sol\":1832:1845  symbol = \"DC\" */\n  mload(0x40)\n  dup1\n  0x40\n  add\n  0x40\n  mstore\n  dup1\n  0x02\n  dup2\n  mstore\n  0x20\n  add\n  0x4443000000000000000000000000000000000000000000000000000000000000\n  dup2\n  mstore\n  pop\n    /* \"ICO.sol\":1832:1838  symbol */\n  0x01\n    /* \"ICO.sol\":1832:1845  symbol = \"DC\" */\n  swap1\n  dup1\n  mload\n  swap1\n  0x20\n  add\n  swap1\n  tag_6\n  swap3\n  swap2\n  swap1\n  tag_5\n  jump\t// in\ntag_6:\n  pop\n    /* \"ICO.sol\":1886:1893  2 weeks */\n  0x127500\n    /* \"ICO.sol\":1868:1883  block.timestamp */\n  timestamp\n    /* \"ICO.sol\":1868:1893  block.timestamp + 2 weeks */\n  tag_7\n  swap2\n  swap1\n  tag_8\n  jump\t// in\ntag_7:\n    /* \"ICO.sol\":1856:1865  bonusEnds */\n  0x03\n    /* \"ICO.sol\":1856:1893  bonusEnds = block.timestamp + 2 weeks */\n  dup2\n  swap1\n  sstore\n  pop\n    /* \"ICO.sol\":1932:1939  4 weeks */\n  0x24ea00\n    /* \"ICO.sol\":1914:1929  block.timestamp */\n  timestamp\n    /* \"ICO.sol\":1914:1939  block.timestamp + 4 weeks */\n  tag_9\n  swap2\n  swap1\n  tag_8\n  jump\t// in\ntag_9:\n    /* \"ICO.sol\":1904:1911  icoEnds */\n  0x04\n    /* \"ICO.sol\":1904:1939  icoEnds = block.timestamp + 4 weeks */\n  dup2\n  swap1\n  sstore\n  pop\n    /* \"ICO.sol\":1962:1977  block.timestamp */\n  timestamp\n    /* \"ICO.sol\":1950:1959  icoStarts */\n  0x05\n    /* \"ICO.sol\":1950:1977  icoStarts = block.timestamp */\n  dup2\n  swap1\n  sstore\n  pop\n    /* \"ICO.sol\":2000:2025  1000000000000000000 * 100 */\n  0x056bc75e2d63100000\n    /* \"ICO.sol\":1988:1997  allTokens */\n  0x07\n    /* \"ICO.sol\":1988:2025  allTokens = 1000000000000000000 * 100 */\n  dup2\n  swap1\n  sstore\n  pop\n    /* \"ICO.sol\":2045:2055  msg.sender */\n  caller\n    /* \"ICO.sol\":2036:2041  admin */\n  0x08\n  0x00\n    /* \"ICO.sol\":2036:2056  admin = (msg.sender) */\n  0x0100\n  exp\n  dup2\n  sload\n  dup2\n  0xffffffffffffffffffffffffffffffffffffffff\n  mul\n  not\n  and\n  swap1\n  dup4\n  0xffffffffffffffffffffffffffffffffffffffff\n  and\n  mul\n  or\n  swap1\n  sstore\n  pop\n    /* \"ICO.sol\":2090:2099  allTokens */\n  sload(0x07)\n    /* \"ICO.sol\":2067:2075  balances */\n  0x09\n    /* \"ICO.sol\":2067:2087  balances[msg.sender] */\n  0x00\n    /* \"ICO.sol\":2076:2086  msg.sender */\n  caller\n    /* \"ICO.sol\":2067:2087  balances[msg.sender] */\n  0xffffffffffffffffffffffffffffffffffffffff\n  and\n  0xffffffffffffffffffffffffffffffffffffffff\n  and\n  dup2\n  mstore\n  0x20\n  add\n  swap1\n  dup2\n  mstore\n  0x20\n  add\n  0x00\n  keccak256\n    /* \"ICO.sol\":2067:2099  balances[msg.sender] = allTokens */\n  dup2\n  swap1\n  sstore\n  pop\n    /* \"ICO.sol\":1342:4219  contract ICO is ERC20Interface{... */\n  jump(tag_10)\ntag_5:\n  dup3\n  dup1\n  sload\n  tag_11\n  swap1\n  tag_12\n  jump\t// in\ntag_11:\n  swap1\n  0x00\n  mstore\n  keccak256(0x00, 0x20)\n  swap1\n  0x1f\n  add\n  0x20\n  swap1\n  div\n  dup2\n  add\n  swap3\n  dup3\n  tag_14\n  jumpi\n  0x00\n  dup6\n  sstore\n  jump(tag_13)\ntag_14:\n  dup3\n  0x1f\n  lt\n  tag_15\n  jumpi\n  dup1\n  mload\n  not(0xff)\n  and\n  dup4\n  dup1\n  add\n  or\n  dup6\n  sstore\n  jump(tag_13)\ntag_15:\n  dup3\n  dup1\n  add\n  0x01\n  add\n  dup6\n  sstore\n  dup3\n  iszero\n  tag_13\n  jumpi\n  swap2\n  dup3\n  add\ntag_16:\n  dup3\n  dup2\n  gt\n  iszero\n  tag_17\n  jumpi\n  dup3\n  mload\n  dup3\n  sstore\n  swap2\n  0x20\n  add\n  swap2\n  swap1\n  0x01\n  add\n  swap1\n  jump(tag_16)\ntag_17:\ntag_13:\n  pop\n  swap1\n  pop\n  tag_18\n  swap2\n  swap1\n  tag_19\n  jump\t// in\ntag_18:\n  pop\n  swap1\n  jump\t// out\ntag_19:\ntag_20:\n  dup1\n  dup3\n  gt\n  iszero\n  tag_21\n  jumpi\n  0x00\n  dup2\n  0x00\n  swap1\n  sstore\n  pop\n  0x01\n  add\n  jump(tag_20)\ntag_21:\n  pop\n  swap1\n  jump\t// out\n    /* \"#utility.yul\":7:84   */\ntag_22:\n    /* \"#utility.yul\":44:51   */\n  0x00\n    /* \"#utility.yul\":73:78   */\n  dup2\n    /* \"#utility.yul\":62:78   */\n  swap1\n  pop\n    /* \"#utility.yul\":7:84   */\n  swap2\n  swap1\n  pop\n  jump\t// out\n    /* \"#utility.yul\":90:270   */\ntag_23:\n    /* \"#utility.yul\":138:215   */\n  0x4e487b7100000000000000000000000000000000000000000000000000000000\n    /* \"#utility.yul\":135:136   */\n  0x00\n    /* \"#utility.yul\":128:216   */\n  mstore\n    /* \"#utility.yul\":235:239   */\n  0x11\n    /* \"#utility.yul\":232:233   */\n  0x04\n    /* \"#utility.yul\":225:240   */\n  mstore\n    /* \"#utility.yul\":259:263   */\n  0x24\n    /* \"#utility.yul\":256:257   */\n  0x00\n    /* \"#utility.yul\":249:264   */\n  revert\n    /* \"#utility.yul\":276:581   */\ntag_8:\n    /* \"#utility.yul\":316:319   */\n  0x00\n    /* \"#utility.yul\":335:355   */\n  tag_29\n    /* \"#utility.yul\":353:354   */\n  dup3\n    /* \"#utility.yul\":335:355   */\n  tag_22\n  jump\t// in\ntag_29:\n    /* \"#utility.yul\":330:355   */\n  swap2\n  pop\n    /* \"#utility.yul\":369:389   */\n  tag_30\n    /* \"#utility.yul\":387:388   */\n  dup4\n    /* \"#utility.yul\":369:389   */\n  tag_22\n  jump\t// in\ntag_30:\n    /* \"#utility.yul\":364:389   */\n  swap3\n  pop\n    /* \"#utility.yul\":523:524   */\n  dup3\n    /* \"#utility.yul\":455:521   */\n  0xffffffffffffffffffffffffffffffffffffffffffffffffffffffffffffffff\n    /* \"#utility.yul\":451:525   */\n  sub\n    /* \"#utility.yul\":448:449   */\n  dup3\n    /* \"#utility.yul\":445:526   */\n  gt\n    /* \"#utility.yul\":442:549   */\n  iszero\n  tag_31\n  jumpi\n    /* \"#utility.yul\":529:547   */\n  tag_32\n  tag_23\n  jump\t// in\ntag_32:\n    /* \"#utility.yul\":442:549   */\ntag_31:\n    /* \"#utility.yul\":573:574   */\n  dup3\n    /* \"#utility.yul\":570:571   */\n  dup3\n    /* \"#utility.yul\":566:575   */\n  add\n    /* \"#utility.yul\":559:575   */\n  swap1\n  pop\n    /* \"#utility.yul\":276:581   */\n  swap3\n  swap2\n  pop\n  pop\n  jump\t// out\n    /* \"#utility.yul\":587:767   */\ntag_24:\n    /* \"#utility.yul\":635:712   */\n  0x4e487b7100000000000000000000000000000000000000000000000000000000\n    /* \"#utility.yul\":632:633   */\n  0x00\n    /* \"#utility.yul\":625:713   */\n  mstore\n    /* \"#utility.yul\":732:736   */\n  0x22\n    /* \"#utility.yul\":729:730   */\n  0x04\n    /* \"#utility.yul\":722:737   */\n  mstore\n    /* \"#utility.yul\":756:760   */\n  0x24\n    /* \"#utility.yul\":753:754   */\n  0x00\n    /* \"#utility.yul\":746:761   */\n  revert\n    /* \"#utility.yul\":773:1093   */\ntag_12:\n    /* \"#utility.yul\":817:823   */\n  0x00\n    /* \"#utility.yul\":854:855   */\n  0x02\n    /* \"#utility.yul\":848:852   */\n  dup3\n    /* \"#utility.yul\":844:856   */\n  div\n    /* \"#utility.yul\":834:856   */\n  swap1\n  pop\n    /* \"#utility.yul\":901:902   */\n  0x01\n    /* \"#utility.yul\":895:899   */\n  dup3\n    /* \"#utility.yul\":891:903   */\n  and\n    /* \"#utility.yul\":922:940   */\n  dup1\n    /* \"#utility.yul\":912:993   */\n  tag_35\n  jumpi\n    /* \"#utility.yul\":978:982   */\n  0x7f\n    /* \"#utility.yul\":970:976   */\n  dup3\n    /* \"#utility.yul\":966:983   */\n  and\n    /* \"#utility.yul\":956:983   */\n  swap2\n  pop\n    /* \"#utility.yul\":912:993   */\ntag_35:\n    /* \"#utility.yul\":1040:1042   */\n  0x20\n    /* \"#utility.yul\":1032:1038   */\n  dup3\n    /* \"#utility.yul\":1029:1043   */\n  lt\n    /* \"#utility.yul\":1009:1027   */\n  dup2\n    /* \"#utility.yul\":1006:1044   */\n  eq\n    /* \"#utility.yul\":1003:1087   */\n  iszero\n  tag_36\n  jumpi\n    /* \"#utility.yul\":1059:1077   */\n  tag_37\n  tag_24\n  jump\t// in\ntag_37:\n    /* \"#utility.yul\":1003:1087   */\ntag_36:\n    /* \"#utility.yul\":824:1093   */\n  pop\n    /* \"#utility.yul\":773:1093   */\n  swap2\n  swap1\n  pop\n  jump\t// out\n    /* \"ICO.sol\":1342:4219  contract ICO is ERC20Interface{... */\ntag_10:\n  dataSize(sub_0)\n  dup1\n  dataOffset(sub_0)\n  0x00\n  codecopy\n  0x00\n  return\nstop\n\nsub_0: assembly {\n        /* \"ICO.sol\":1342:4219  contract ICO is ERC20Interface{... */\n      mstore(0x40, 0x80)\n      jumpi(tag_1, lt(calldatasize, 0x04))\n      shr(0xe0, calldataload(0x00))\n      dup1\n      0x40c65003\n      gt\n      tag_20\n      jumpi\n      dup1\n      0x9c3e0f3f\n      gt\n      tag_21\n      jumpi\n      dup1\n      0x9c3e0f3f\n      eq\n      tag_15\n      jumpi\n      dup1\n      0xa9059cbb\n      eq\n      tag_16\n      jumpi\n      dup1\n      0xc9116b69\n      eq\n      tag_17\n      jumpi\n      dup1\n      0xd0febe4c\n      eq\n      tag_18\n      jumpi\n      dup1\n      0xdd62ed3e\n      eq\n      tag_19\n      jumpi\n      jump(tag_1)\n    tag_21:\n      dup1\n      0x40c65003\n      eq\n      tag_11\n      jumpi\n      dup1\n      0x70a08231\n      eq\n      tag_12\n      jumpi\n      dup1\n      0x95d89b41\n      eq\n      tag_13\n      jumpi\n      dup1\n      0x9a8ca12c\n      eq\n      tag_14\n      jumpi\n      jump(tag_1)\n    tag_20:\n      dup1\n      0x23b872dd\n      gt\n      tag_22\n      jumpi\n      dup1\n      0x23b872dd\n      eq\n      tag_6\n      jumpi\n      dup1\n      0x26b85ee1\n      eq\n      tag_7\n      jumpi\n      dup1\n      0x27e235e3\n      eq\n      tag_8\n      jumpi\n      dup1\n      0x313ce567\n      eq\n      tag_9\n      jumpi\n      dup1\n      0x380d831b\n      eq\n      tag_10\n      jumpi\n      jump(tag_1)\n    tag_22:\n      dup1\n      0x06fdde03\n      eq\n      tag_2\n      jumpi\n      dup1\n      0x095ea7b3\n      eq\n      tag_3\n      jumpi\n      dup1\n      0x18160ddd\n      eq\n      tag_4\n      jumpi\n      dup1\n      0x1f88cb60\n      eq\n      tag_5\n      jumpi\n    tag_1:\n      0x00\n      dup1\n      revert\n        /* \"ICO.sol\":1409:1427  string public name */\n    tag_2:\n      callvalue\n      dup1\n      iszero\n      tag_23\n      jumpi\n      0x00\n      dup1\n      revert\n    tag_23:\n      pop\n      tag_24\n      tag_25\n      jump\t// in\n    tag_24:\n      mload(0x40)\n      tag_26\n      swap2\n      swap1\n      tag_27\n      jump\t// in\n    tag_26:\n      mload(0x40)\n      dup1\n      swap2\n      sub\n      swap1\n      return\n        /* \"ICO.sol\":3103:3320  function approve(address spender, uint tokens) public override returns (bool success) {... */\n    tag_3:\n      callvalue\n      dup1\n      iszero\n      tag_28\n      jumpi\n      0x00\n      dup1\n      revert\n    tag_28:\n      pop\n      tag_29\n      0x04\n      dup1\n      calldatasize\n      sub\n      dup2\n      add\n      swap1\n      tag_30\n      swap2\n      swap1\n      tag_31\n      jump\t// in\n    tag_30:\n      tag_32\n      jump\t// in\n    tag_29:\n      mload(0x40)\n      tag_33\n      swap2\n      swap1\n      tag_34\n      jump\t// in\n    tag_33:\n      mload(0x40)\n      dup1\n      swap2\n      sub\n      swap1\n      return\n        /* \"ICO.sol\":2580:2674  function totalSupply() public view override returns (uint) {... */\n    tag_4:\n      callvalue\n      dup1\n      iszero\n      tag_35\n      jumpi\n      0x00\n      dup1\n      revert\n    tag_35:\n      pop\n      tag_36\n      tag_37\n      jump\t// in\n    tag_36:\n      mload(0x40)\n      tag_38\n      swap2\n      swap1\n      tag_39\n      jump\t// in\n    tag_38:\n      mload(0x40)\n      dup1\n      swap2\n      sub\n      swap1\n      return\n        /* \"ICO.sol\":1570:1597  uint public allContributers */\n    tag_5:\n      callvalue\n      dup1\n      iszero\n      tag_40\n      jumpi\n      0x00\n      dup1\n      revert\n    tag_40:\n      pop\n      tag_41\n      tag_42\n      jump\t// in\n    tag_41:\n      mload(0x40)\n      tag_43\n      swap2\n      swap1\n      tag_39\n      jump\t// in\n    tag_43:\n      mload(0x40)\n      dup1\n      swap2\n      sub\n      swap1\n      return\n        /* \"ICO.sol\":3328:3680  function transferFrom(address from, address to, uint tokens) public override returns (bool success) {... */\n    tag_6:\n      callvalue\n      dup1\n      iszero\n      tag_44\n      jumpi\n      0x00\n      dup1\n      revert\n    tag_44:\n      pop\n      tag_45\n      0x04\n      dup1\n      calldatasize\n      sub\n      dup2\n      add\n      swap1\n      tag_46\n      swap2\n      swap1\n      tag_47\n      jump\t// in\n    tag_46:\n      tag_48\n      jump\t// in\n    tag_45:\n      mload(0x40)\n      tag_49\n      swap2\n      swap1\n      tag_34\n      jump\t// in\n    tag_49:\n      mload(0x40)\n      dup1\n      swap2\n      sub\n      swap1\n      return\n        /* \"ICO.sol\":3957:4076  function myAddress() public view returns (address) {... */\n    tag_7:\n      callvalue\n      dup1\n      iszero\n      tag_50\n      jumpi\n      0x00\n      dup1\n      revert\n    tag_50:\n      pop\n      tag_51\n      tag_52\n      jump\t// in\n    tag_51:\n      mload(0x40)\n      tag_53\n      swap2\n      swap1\n      tag_54\n      jump\t// in\n    tag_53:\n      mload(0x40)\n      dup1\n      swap2\n      sub\n      swap1\n      return\n        /* \"ICO.sol\":1645:1686  mapping (address => uint) public balances */\n    tag_8:\n      callvalue\n      dup1\n      iszero\n      tag_55\n      jumpi\n      0x00\n      dup1\n      revert\n    tag_55:\n      pop\n      tag_56\n      0x04\n      dup1\n      calldatasize\n      sub\n      dup2\n      add\n      swap1\n      tag_57\n      swap2\n      swap1\n      tag_58\n      jump\t// in\n    tag_57:\n      tag_59\n      jump\t// in\n    tag_56:\n      mload(0x40)\n      tag_60\n      swap2\n      swap1\n      tag_39\n      jump\t// in\n    tag_60:\n      mload(0x40)\n      dup1\n      swap2\n      sub\n      swap1\n      return\n        /* \"ICO.sol\":1461:1481  uint public decimals */\n    tag_9:\n      callvalue\n      dup1\n      iszero\n      tag_61\n      jumpi\n      0x00\n      dup1\n      revert\n    tag_61:\n      pop\n      tag_62\n      tag_63\n      jump\t// in\n    tag_62:\n      mload(0x40)\n      tag_64\n      swap2\n      swap1\n      tag_39\n      jump\t// in\n    tag_64:\n      mload(0x40)\n      dup1\n      swap2\n      sub\n      swap1\n      return\n        /* \"ICO.sol\":4084:4214  function endSale() public {... */\n    tag_10:\n      callvalue\n      dup1\n      iszero\n      tag_65\n      jumpi\n      0x00\n      dup1\n      revert\n    tag_65:\n      pop\n      tag_66\n      tag_67\n      jump\t// in\n    tag_66:\n      stop\n        /* \"ICO.sol\":1488:1509  uint public bonusEnds */\n    tag_11:\n      callvalue\n      dup1\n      iszero\n      tag_68\n      jumpi\n      0x00\n      dup1\n      revert\n    tag_68:\n      pop\n      tag_69\n      tag_70\n      jump\t// in\n    tag_69:\n      mload(0x40)\n      tag_71\n      swap2\n      swap1\n      tag_39\n      jump\t// in\n    tag_71:\n      mload(0x40)\n      dup1\n      swap2\n      sub\n      swap1\n      return\n        /* \"ICO.sol\":2682:2811  function balanceOf(address tokenOwner) public view override returns (uint balance) {... */\n    tag_12:\n      callvalue\n      dup1\n      iszero\n      tag_72\n      jumpi\n      0x00\n      dup1\n      revert\n    tag_72:\n      pop\n      tag_73\n      0x04\n      dup1\n      calldatasize\n      sub\n      dup2\n      add\n      swap1\n      tag_74\n      swap2\n      swap1\n      tag_58\n      jump\t// in\n    tag_74:\n      tag_75\n      jump\t// in\n    tag_73:\n      mload(0x40)\n      tag_76\n      swap2\n      swap1\n      tag_39\n      jump\t// in\n    tag_76:\n      mload(0x40)\n      dup1\n      swap2\n      sub\n      swap1\n      return\n        /* \"ICO.sol\":1434:1454  string public symbol */\n    tag_13:\n      callvalue\n      dup1\n      iszero\n      tag_77\n      jumpi\n      0x00\n      dup1\n      revert\n    tag_77:\n      pop\n      tag_78\n      tag_79\n      jump\t// in\n    tag_78:\n      mload(0x40)\n      tag_80\n      swap2\n      swap1\n      tag_27\n      jump\t// in\n    tag_80:\n      mload(0x40)\n      dup1\n      swap2\n      sub\n      swap1\n      return\n        /* \"ICO.sol\":1516:1535  uint public icoEnds */\n    tag_14:\n      callvalue\n      dup1\n      iszero\n      tag_81\n      jumpi\n      0x00\n      dup1\n      revert\n    tag_81:\n      pop\n      tag_82\n      tag_83\n      jump\t// in\n    tag_82:\n      mload(0x40)\n      tag_84\n      swap2\n      swap1\n      tag_39\n      jump\t// in\n    tag_84:\n      mload(0x40)\n      dup1\n      swap2\n      sub\n      swap1\n      return\n        /* \"ICO.sol\":1542:1563  uint public icoStarts */\n    tag_15:\n      callvalue\n      dup1\n      iszero\n      tag_85\n      jumpi\n      0x00\n      dup1\n      revert\n    tag_85:\n      pop\n      tag_86\n      tag_87\n      jump\t// in\n    tag_86:\n      mload(0x40)\n      tag_88\n      swap2\n      swap1\n      tag_39\n      jump\t// in\n    tag_88:\n      mload(0x40)\n      dup1\n      swap2\n      sub\n      swap1\n      return\n        /* \"ICO.sol\":2819:3095  function transfer(address to, uint tokens) public override returns (bool success) {... */\n    tag_16:\n      callvalue\n      dup1\n      iszero\n      tag_89\n      jumpi\n      0x00\n      dup1\n      revert\n    tag_89:\n      pop\n      tag_90\n      0x04\n      dup1\n      calldatasize\n      sub\n      dup2\n      add\n      swap1\n      tag_91\n      swap2\n      swap1\n      tag_31\n      jump\t// in\n    tag_91:\n      tag_92\n      jump\t// in\n    tag_90:\n      mload(0x40)\n      tag_93\n      swap2\n      swap1\n      tag_34\n      jump\t// in\n    tag_93:\n      mload(0x40)\n      dup1\n      swap2\n      sub\n      swap1\n      return\n        /* \"ICO.sol\":3853:3949  function myBalance() public view returns (uint) {... */\n    tag_17:\n      callvalue\n      dup1\n      iszero\n      tag_94\n      jumpi\n      0x00\n      dup1\n      revert\n    tag_94:\n      pop\n      tag_95\n      tag_96\n      jump\t// in\n    tag_95:\n      mload(0x40)\n      tag_97\n      swap2\n      swap1\n      tag_39\n      jump\t// in\n    tag_97:\n      mload(0x40)\n      dup1\n      swap2\n      sub\n      swap1\n      return\n        /* \"ICO.sol\":2115:2572  function buyTokens() public payable {... */\n    tag_18:\n      tag_98\n      tag_99\n      jump\t// in\n    tag_98:\n      stop\n        /* \"ICO.sol\":3689:3845  function allowance(address tokenOwner, address spender) public view override returns (uint remaining) {... */\n    tag_19:\n      callvalue\n      dup1\n      iszero\n      tag_100\n      jumpi\n      0x00\n      dup1\n      revert\n    tag_100:\n      pop\n      tag_101\n      0x04\n      dup1\n      calldatasize\n      sub\n      dup2\n      add\n      swap1\n      tag_102\n      swap2\n      swap1\n      tag_103\n      jump\t// in\n    tag_102:\n      tag_104\n      jump\t// in\n    tag_101:\n      mload(0x40)\n      tag_105\n      swap2\n      swap1\n      tag_39\n      jump\t// in\n    tag_105:\n      mload(0x40)\n      dup1\n      swap2\n      sub\n      swap1\n      return\n        /* \"ICO.sol\":1409:1427  string public name */\n    tag_25:\n      0x00\n      dup1\n      sload\n      tag_106\n      swap1\n      tag_107\n      jump\t// in\n    tag_106:\n      dup1\n      0x1f\n      add\n      0x20\n      dup1\n      swap2\n      div\n      mul\n      0x20\n      add\n      mload(0x40)\n      swap1\n      dup2\n      add\n      0x40\n      mstore\n      dup1\n      swap3\n      swap2\n      swap1\n      dup2\n      dup2\n      mstore\n      0x20\n      add\n      dup3\n      dup1\n      sload\n      tag_108\n      swap1\n      tag_107\n      jump\t// in\n    tag_108:\n      dup1\n      iszero\n      tag_109\n      jumpi\n      dup1\n      0x1f\n      lt\n      tag_110\n      jumpi\n      0x0100\n      dup1\n      dup4\n      sload\n      div\n      mul\n      dup4\n      mstore\n      swap2\n      0x20\n      add\n      swap2\n      jump(tag_109)\n    tag_110:\n      dup3\n      add\n      swap2\n      swap1\n      0x00\n      mstore\n      keccak256(0x00, 0x20)\n      swap1\n    tag_111:\n      dup2\n      sload\n      dup2\n      mstore\n      swap1\n      0x01\n      add\n      swap1\n      0x20\n      add\n      dup1\n      dup4\n      gt\n      tag_111\n      jumpi\n      dup3\n      swap1\n      sub\n      0x1f\n      and\n      dup3\n      add\n      swap2\n    tag_109:\n      pop\n      pop\n      pop\n      pop\n      pop\n      dup2\n      jump\t// out\n        /* \"ICO.sol\":3103:3320  function approve(address spender, uint tokens) public override returns (bool success) {... */\n    tag_32:\n        /* \"ICO.sol\":3175:3187  bool success */\n      0x00\n        /* \"ICO.sol\":3231:3237  tokens */\n      dup2\n        /* \"ICO.sol\":3200:3207  allowed */\n      0x0a\n        /* \"ICO.sol\":3200:3219  allowed[msg.sender] */\n      0x00\n        /* \"ICO.sol\":3208:3218  msg.sender */\n      caller\n        /* \"ICO.sol\":3200:3219  allowed[msg.sender] */\n      0xffffffffffffffffffffffffffffffffffffffff\n      and\n      0xffffffffffffffffffffffffffffffffffffffff\n      and\n      dup2\n      mstore\n      0x20\n      add\n      swap1\n      dup2\n      mstore\n      0x20\n      add\n      0x00\n      keccak256\n        /* \"ICO.sol\":3200:3228  allowed[msg.sender][spender] */\n      0x00\n        /* \"ICO.sol\":3220:3227  spender */\n      dup6\n        /* \"ICO.sol\":3200:3228  allowed[msg.sender][spender] */\n      0xffffffffffffffffffffffffffffffffffffffff\n      and\n      0xffffffffffffffffffffffffffffffffffffffff\n      and\n      dup2\n      mstore\n      0x20\n      add\n      swap1\n      dup2\n      mstore\n      0x20\n      add\n      0x00\n      keccak256\n        /* \"ICO.sol\":3200:3237  allowed[msg.sender][spender] = tokens */\n      dup2\n      swap1\n      sstore\n      pop\n        /* \"ICO.sol\":3274:3281  spender */\n      dup3\n        /* \"ICO.sol\":3253:3290  Approval(msg.sender, spender, tokens) */\n      0xffffffffffffffffffffffffffffffffffffffff\n      and\n        /* \"ICO.sol\":3262:3272  msg.sender */\n      caller\n        /* \"ICO.sol\":3253:3290  Approval(msg.sender, spender, tokens) */\n      0xffffffffffffffffffffffffffffffffffffffff\n      and\n      0x8c5be1e5ebec7d5bd14f71427d1e84f3dd0314c0f7b2291e5b200ac8c7c3b925\n        /* \"ICO.sol\":3283:3289  tokens */\n      dup5\n        /* \"ICO.sol\":3253:3290  Approval(msg.sender, spender, tokens) */\n      mload(0x40)\n      tag_113\n      swap2\n      swap1\n      tag_39\n      jump\t// in\n    tag_113:\n      mload(0x40)\n      dup1\n      swap2\n      sub\n      swap1\n      log3\n        /* \"ICO.sol\":3308:3312  true */\n      0x01\n        /* \"ICO.sol\":3301:3312  return true */\n      swap1\n      pop\n        /* \"ICO.sol\":3103:3320  function approve(address spender, uint tokens) public override returns (bool success) {... */\n      swap3\n      swap2\n      pop\n      pop\n      jump\t// out\n        /* \"ICO.sol\":2580:2674  function totalSupply() public view override returns (uint) {... */\n    tag_37:\n        /* \"ICO.sol\":2633:2637  uint */\n      0x00\n        /* \"ICO.sol\":2657:2666  allTokens */\n      sload(0x07)\n        /* \"ICO.sol\":2650:2666  return allTokens */\n      swap1\n      pop\n        /* \"ICO.sol\":2580:2674  function totalSupply() public view override returns (uint) {... */\n      swap1\n      jump\t// out\n        /* \"ICO.sol\":1570:1597  uint public allContributers */\n    tag_42:\n      sload(0x06)\n      dup2\n      jump\t// out\n        /* \"ICO.sol\":3328:3680  function transferFrom(address from, address to, uint tokens) public override returns (bool success) {... */\n    tag_48:\n        /* \"ICO.sol\":3414:3426  bool success */\n      0x00\n        /* \"ICO.sol\":3456:3482  balances[from].sub(tokens) */\n      tag_116\n        /* \"ICO.sol\":3475:3481  tokens */\n      dup3\n        /* \"ICO.sol\":3456:3464  balances */\n      0x09\n        /* \"ICO.sol\":3456:3470  balances[from] */\n      0x00\n        /* \"ICO.sol\":3465:3469  from */\n      dup8\n        /* \"ICO.sol\":3456:3470  balances[from] */\n      0xffffffffffffffffffffffffffffffffffffffff\n      and\n      0xffffffffffffffffffffffffffffffffffffffff\n      and\n      dup2\n      mstore\n      0x20\n      add\n      swap1\n      dup2\n      mstore\n      0x20\n      add\n      0x00\n      keccak256\n      sload\n        /* \"ICO.sol\":3456:3474  balances[from].sub */\n      tag_117\n      swap1\n        /* \"ICO.sol\":3456:3482  balances[from].sub(tokens) */\n      swap2\n      swap1\n      0xffffffff\n      and\n      jump\t// in\n    tag_116:\n        /* \"ICO.sol\":3439:3447  balances */\n      0x09\n        /* \"ICO.sol\":3439:3453  balances[from] */\n      0x00\n        /* \"ICO.sol\":3448:3452  from */\n      dup7\n        /* \"ICO.sol\":3439:3453  balances[from] */\n      0xffffffffffffffffffffffffffffffffffffffff\n      and\n      0xffffffffffffffffffffffffffffffffffffffff\n      and\n      dup2\n      mstore\n      0x20\n      add\n      swap1\n      dup2\n      mstore\n      0x20\n      add\n      0x00\n      keccak256\n        /* \"ICO.sol\":3439:3482  balances[from] = balances[from].sub(tokens) */\n      dup2\n      swap1\n      sstore\n      pop\n        /* \"ICO.sol\":3521:3558  allowed[from][msg.sender].sub(tokens) */\n      tag_118\n        /* \"ICO.sol\":3551:3557  tokens */\n      dup3\n        /* \"ICO.sol\":3521:3528  allowed */\n      0x0a\n        /* \"ICO.sol\":3521:3534  allowed[from] */\n      0x00\n        /* \"ICO.sol\":3529:3533  from */\n      dup8\n        /* \"ICO.sol\":3521:3534  allowed[from] */\n      0xffffffffffffffffffffffffffffffffffffffff\n      and\n      0xffffffffffffffffffffffffffffffffffffffff\n      and\n      dup2\n      mstore\n      0x20\n      add\n      swap1\n      dup2\n      mstore\n      0x20\n      add\n      0x00\n      keccak256\n        /* \"ICO.sol\":3521:3546  allowed[from][msg.sender] */\n      0x00\n        /* \"ICO.sol\":3535:3545  msg.sender */\n      caller\n        /* \"ICO.sol\":3521:3546  allowed[from][msg.sender] */\n      0xffffffffffffffffffffffffffffffffffffffff\n      and\n      0xffffffffffffffffffffffffffffffffffffffff\n      and\n      dup2\n      mstore\n      0x20\n      add\n      swap1\n      dup2\n      mstore\n      0x20\n      add\n      0x00\n      keccak256\n      sload\n        /* \"ICO.sol\":3521:3550  allowed[from][msg.sender].sub */\n      tag_117\n      swap1\n        /* \"ICO.sol\":3521:3558  allowed[from][msg.sender].sub(tokens) */\n      swap2\n      swap1\n      0xffffffff\n      and\n      jump\t// in\n    tag_118:\n        /* \"ICO.sol\":3493:3500  allowed */\n      0x0a\n        /* \"ICO.sol\":3493:3506  allowed[from] */\n      0x00\n        /* \"ICO.sol\":3501:3505  from */\n      dup7\n        /* \"ICO.sol\":3493:3506  allowed[from] */\n      0xffffffffffffffffffffffffffffffffffffffff\n      and\n      0xffffffffffffffffffffffffffffffffffffffff\n      and\n      dup2\n      mstore\n      0x20\n      add\n      swap1\n      dup2\n      mstore\n      0x20\n      add\n      0x00\n      keccak256\n        /* \"ICO.sol\":3493:3518  allowed[from][msg.sender] */\n      0x00\n        /* \"ICO.sol\":3507:3517  msg.sender */\n      caller\n        /* \"ICO.sol\":3493:3518  allowed[from][msg.sender] */\n      0xffffffffffffffffffffffffffffffffffffffff\n      and\n      0xffffffffffffffffffffffffffffffffffffffff\n      and\n      dup2\n      mstore\n      0x20\n      add\n      swap1\n      dup2\n      mstore\n      0x20\n      add\n      0x00\n      keccak256\n        /* \"ICO.sol\":3493:3558  allowed[from][msg.sender] = allowed[from][msg.sender].sub(tokens) */\n      dup2\n      swap1\n      sstore\n      pop\n        /* \"ICO.sol\":3584:3608  balances[to].add(tokens) */\n      tag_119\n        /* \"ICO.sol\":3601:3607  tokens */\n      dup3\n        /* \"ICO.sol\":3584:3592  balances */\n      0x09\n        /* \"ICO.sol\":3584:3596  balances[to] */\n      0x00\n        /* \"ICO.sol\":3593:3595  to */\n      dup7\n        /* \"ICO.sol\":3584:3596  balances[to] */\n      0xffffffffffffffffffffffffffffffffffffffff\n      and\n      0xffffffffffffffffffffffffffffffffffffffff\n      and\n      dup2\n      mstore\n      0x20\n      add\n      swap1\n      dup2\n      mstore\n      0x20\n      add\n      0x00\n      keccak256\n      sload\n        /* \"ICO.sol\":3584:3600  balances[to].add */\n      tag_120\n      swap1\n        /* \"ICO.sol\":3584:3608  balances[to].add(tokens) */\n      swap2\n      swap1\n      0xffffffff\n      and\n      jump\t// in\n    tag_119:\n        /* \"ICO.sol\":3569:3577  balances */\n      0x09\n        /* \"ICO.sol\":3569:3581  balances[to] */\n      0x00\n        /* \"ICO.sol\":3578:3580  to */\n      dup6\n        /* \"ICO.sol\":3569:3581  balances[to] */\n      0xffffffffffffffffffffffffffffffffffffffff\n      and\n      0xffffffffffffffffffffffffffffffffffffffff\n      and\n      dup2\n      mstore\n      0x20\n      add\n      swap1\n      dup2\n      mstore\n      0x20\n      add\n      0x00\n      keccak256\n        /* \"ICO.sol\":3569:3608  balances[to] = balances[to].add(tokens) */\n      dup2\n      swap1\n      sstore\n      pop\n        /* \"ICO.sol\":3639:3641  to */\n      dup3\n        /* \"ICO.sol\":3624:3650  Transfer(from, to, tokens) */\n      0xffffffffffffffffffffffffffffffffffffffff\n      and\n        /* \"ICO.sol\":3633:3637  from */\n      dup5\n        /* \"ICO.sol\":3624:3650  Transfer(from, to, tokens) */\n      0xffffffffffffffffffffffffffffffffffffffff\n      and\n      0xddf252ad1be2c89b69c2b068fc378daa952ba7f163c4a11628f55a4df523b3ef\n        /* \"ICO.sol\":3643:3649  tokens */\n      dup5\n        /* \"ICO.sol\":3624:3650  Transfer(from, to, tokens) */\n      mload(0x40)\n      tag_121\n      swap2\n      swap1\n      tag_39\n      jump\t// in\n    tag_121:\n      mload(0x40)\n      dup1\n      swap2\n      sub\n      swap1\n      log3\n        /* \"ICO.sol\":3668:3672  true */\n      0x01\n        /* \"ICO.sol\":3661:3672  return true */\n      swap1\n      pop\n        /* \"ICO.sol\":3328:3680  function transferFrom(address from, address to, uint tokens) public override returns (bool success) {... */\n      swap4\n      swap3\n      pop\n      pop\n      pop\n      jump\t// out\n        /* \"ICO.sol\":3957:4076  function myAddress() public view returns (address) {... */\n    tag_52:\n        /* \"ICO.sol\":3999:4006  address */\n      0x00\n        /* \"ICO.sol\":4019:4032  address myAdr */\n      dup1\n        /* \"ICO.sol\":4035:4045  msg.sender */\n      caller\n        /* \"ICO.sol\":4019:4045  address myAdr = msg.sender */\n      swap1\n      pop\n        /* \"ICO.sol\":4063:4068  myAdr */\n      dup1\n        /* \"ICO.sol\":4056:4068  return myAdr */\n      swap2\n      pop\n      pop\n        /* \"ICO.sol\":3957:4076  function myAddress() public view returns (address) {... */\n      swap1\n      jump\t// out\n        /* \"ICO.sol\":1645:1686  mapping (address => uint) public balances */\n    tag_59:\n      mstore(0x20, 0x09)\n      dup1\n      0x00\n      mstore\n      keccak256(0x00, 0x40)\n      0x00\n      swap2\n      pop\n      swap1\n      pop\n      sload\n      dup2\n      jump\t// out\n        /* \"ICO.sol\":1461:1481  uint public decimals */\n    tag_63:\n      sload(0x02)\n      dup2\n      jump\t// out\n        /* \"ICO.sol\":4084:4214  function endSale() public {... */\n    tag_67:\n        /* \"ICO.sol\":4143:4148  admin */\n      0x08\n      0x00\n      swap1\n      sload\n      swap1\n      0x0100\n      exp\n      swap1\n      div\n      0xffffffffffffffffffffffffffffffffffffffff\n      and\n        /* \"ICO.sol\":4129:4148  msg.sender == admin */\n      0xffffffffffffffffffffffffffffffffffffffff\n      and\n        /* \"ICO.sol\":4129:4139  msg.sender */\n      caller\n        /* \"ICO.sol\":4129:4148  msg.sender == admin */\n      0xffffffffffffffffffffffffffffffffffffffff\n      and\n      eq\n        /* \"ICO.sol\":4121:4149  require(msg.sender == admin) */\n      tag_124\n      jumpi\n      0x00\n      dup1\n      revert\n    tag_124:\n        /* \"ICO.sol\":4168:4173  admin */\n      0x08\n      0x00\n      swap1\n      sload\n      swap1\n      0x0100\n      exp\n      swap1\n      div\n      0xffffffffffffffffffffffffffffffffffffffff\n      and\n        /* \"ICO.sol\":4160:4183  payable(admin).transfer */\n      0xffffffffffffffffffffffffffffffffffffffff\n      and\n        /* \"ICO.sol\":4160:4206  payable(admin).transfer(address(this).balance) */\n      0x08fc\n        /* \"ICO.sol\":4184:4205  address(this).balance */\n      selfbalance\n        /* \"ICO.sol\":4160:4206  payable(admin).transfer(address(this).balance) */\n      swap1\n      dup2\n      iszero\n      mul\n      swap1\n      mload(0x40)\n      0x00\n      mload(0x40)\n      dup1\n      dup4\n      sub\n      dup2\n      dup6\n      dup9\n      dup9\n      call\n      swap4\n      pop\n      pop\n      pop\n      pop\n      iszero\n      dup1\n      iszero\n      tag_126\n      jumpi\n      returndatasize\n      0x00\n      dup1\n      returndatacopy\n      revert(0x00, returndatasize)\n    tag_126:\n      pop\n        /* \"ICO.sol\":4084:4214  function endSale() public {... */\n      jump\t// out\n        /* \"ICO.sol\":1488:1509  uint public bonusEnds */\n    tag_70:\n      sload(0x03)\n      dup2\n      jump\t// out\n        /* \"ICO.sol\":2682:2811  function balanceOf(address tokenOwner) public view override returns (uint balance) {... */\n    tag_75:\n        /* \"ICO.sol\":2751:2763  uint balance */\n      0x00\n        /* \"ICO.sol\":2783:2791  balances */\n      0x09\n        /* \"ICO.sol\":2783:2803  balances[tokenOwner] */\n      0x00\n        /* \"ICO.sol\":2792:2802  tokenOwner */\n      dup4\n        /* \"ICO.sol\":2783:2803  balances[tokenOwner] */\n      0xffffffffffffffffffffffffffffffffffffffff\n      and\n      0xffffffffffffffffffffffffffffffffffffffff\n      and\n      dup2\n      mstore\n      0x20\n      add\n      swap1\n      dup2\n      mstore\n      0x20\n      add\n      0x00\n      keccak256\n      sload\n        /* \"ICO.sol\":2776:2803  return balances[tokenOwner] */\n      swap1\n      pop\n        /* \"ICO.sol\":2682:2811  function balanceOf(address tokenOwner) public view override returns (uint balance) {... */\n      swap2\n      swap1\n      pop\n      jump\t// out\n        /* \"ICO.sol\":1434:1454  string public symbol */\n    tag_79:\n      0x01\n      dup1\n      sload\n      tag_128\n      swap1\n      tag_107\n      jump\t// in\n    tag_128:\n      dup1\n      0x1f\n      add\n      0x20\n      dup1\n      swap2\n      div\n      mul\n      0x20\n      add\n      mload(0x40)\n      swap1\n      dup2\n      add\n      0x40\n      mstore\n      dup1\n      swap3\n      swap2\n      swap1\n      dup2\n      dup2\n      mstore\n      0x20\n      add\n      dup3\n      dup1\n      sload\n      tag_129\n      swap1\n      tag_107\n      jump\t// in\n    tag_129:\n      dup1\n      iszero\n      tag_130\n      jumpi\n      dup1\n      0x1f\n      lt\n      tag_131\n      jumpi\n      0x0100\n      dup1\n      dup4\n      sload\n      div\n      mul\n      dup4\n      mstore\n      swap2\n      0x20\n      add\n      swap2\n      jump(tag_130)\n    tag_131:\n      dup3\n      add\n      swap2\n      swap1\n      0x00\n      mstore\n      keccak256(0x00, 0x20)\n      swap1\n    tag_132:\n      dup2\n      sload\n      dup2\n      mstore\n      swap1\n      0x01\n      add\n      swap1\n      0x20\n      add\n      dup1\n      dup4\n      gt\n      tag_132\n      jumpi\n      dup3\n      swap1\n      sub\n      0x1f\n      and\n      dup3\n      add\n      swap2\n    tag_130:\n      pop\n      pop\n      pop\n      pop\n      pop\n      dup2\n      jump\t// out\n        /* \"ICO.sol\":1516:1535  uint public icoEnds */\n    tag_83:\n      sload(0x04)\n      dup2\n      jump\t// out\n        /* \"ICO.sol\":1542:1563  uint public icoStarts */\n    tag_87:\n      sload(0x05)\n      dup2\n      jump\t// out\n        /* \"ICO.sol\":2819:3095  function transfer(address to, uint tokens) public override returns (bool success) {... */\n    tag_92:\n        /* \"ICO.sol\":2887:2899  bool success */\n      0x00\n        /* \"ICO.sol\":2935:2967  balances[msg.sender].sub(tokens) */\n      tag_134\n        /* \"ICO.sol\":2960:2966  tokens */\n      dup3\n        /* \"ICO.sol\":2935:2943  balances */\n      0x09\n        /* \"ICO.sol\":2935:2955  balances[msg.sender] */\n      0x00\n        /* \"ICO.sol\":2944:2954  msg.sender */\n      caller\n        /* \"ICO.sol\":2935:2955  balances[msg.sender] */\n      0xffffffffffffffffffffffffffffffffffffffff\n      and\n      0xffffffffffffffffffffffffffffffffffffffff\n      and\n      dup2\n      mstore\n      0x20\n      add\n      swap1\n      dup2\n      mstore\n      0x20\n      add\n      0x00\n      keccak256\n      sload\n        /* \"ICO.sol\":2935:2959  balances[msg.sender].sub */\n      tag_117\n      swap1\n        /* \"ICO.sol\":2935:2967  balances[msg.sender].sub(tokens) */\n      swap2\n      swap1\n      0xffffffff\n      and\n      jump\t// in\n    tag_134:\n        /* \"ICO.sol\":2912:2920  balances */\n      0x09\n        /* \"ICO.sol\":2912:2932  balances[msg.sender] */\n      0x00\n        /* \"ICO.sol\":2921:2931  msg.sender */\n      caller\n        /* \"ICO.sol\":2912:2932  balances[msg.sender] */\n      0xffffffffffffffffffffffffffffffffffffffff\n      and\n      0xffffffffffffffffffffffffffffffffffffffff\n      and\n      dup2\n      mstore\n      0x20\n      add\n      swap1\n      dup2\n      mstore\n      0x20\n      add\n      0x00\n      keccak256\n        /* \"ICO.sol\":2912:2967  balances[msg.sender] = balances[msg.sender].sub(tokens) */\n      dup2\n      swap1\n      sstore\n      pop\n        /* \"ICO.sol\":2993:3017  balances[to].add(tokens) */\n      tag_135\n        /* \"ICO.sol\":3010:3016  tokens */\n      dup3\n        /* \"ICO.sol\":2993:3001  balances */\n      0x09\n        /* \"ICO.sol\":2993:3005  balances[to] */\n      0x00\n        /* \"ICO.sol\":3002:3004  to */\n      dup7\n        /* \"ICO.sol\":2993:3005  balances[to] */\n      0xffffffffffffffffffffffffffffffffffffffff\n      and\n      0xffffffffffffffffffffffffffffffffffffffff\n      and\n      dup2\n      mstore\n      0x20\n      add\n      swap1\n      dup2\n      mstore\n      0x20\n      add\n      0x00\n      keccak256\n      sload\n        /* \"ICO.sol\":2993:3009  balances[to].add */\n      tag_120\n      swap1\n        /* \"ICO.sol\":2993:3017  balances[to].add(tokens) */\n      swap2\n      swap1\n      0xffffffff\n      and\n      jump\t// in\n    tag_135:\n        /* \"ICO.sol\":2978:2986  balances */\n      0x09\n        /* \"ICO.sol\":2978:2990  balances[to] */\n      0x00\n        /* \"ICO.sol\":2987:2989  to */\n      dup6\n        /* \"ICO.sol\":2978:2990  balances[to] */\n      0xffffffffffffffffffffffffffffffffffffffff\n      and\n      0xffffffffffffffffffffffffffffffffffffffff\n      and\n      dup2\n      mstore\n      0x20\n      add\n      swap1\n      dup2\n      mstore\n      0x20\n      add\n      0x00\n      keccak256\n        /* \"ICO.sol\":2978:3017  balances[to] = balances[to].add(tokens) */\n      dup2\n      swap1\n      sstore\n      pop\n        /* \"ICO.sol\":3054:3056  to */\n      dup3\n        /* \"ICO.sol\":3033:3065  Transfer(msg.sender, to, tokens) */\n      0xffffffffffffffffffffffffffffffffffffffff\n      and\n        /* \"ICO.sol\":3042:3052  msg.sender */\n      caller\n        /* \"ICO.sol\":3033:3065  Transfer(msg.sender, to, tokens) */\n      0xffffffffffffffffffffffffffffffffffffffff\n      and\n      0xddf252ad1be2c89b69c2b068fc378daa952ba7f163c4a11628f55a4df523b3ef\n        /* \"ICO.sol\":3058:3064  tokens */\n      dup5\n        /* \"ICO.sol\":3033:3065  Transfer(msg.sender, to, tokens) */\n      mload(0x40)\n      tag_136\n      swap2\n      swap1\n      tag_39\n      jump\t// in\n    tag_136:\n      mload(0x40)\n      dup1\n      swap2\n      sub\n      swap1\n      log3\n        /* \"ICO.sol\":3083:3087  true */\n      0x01\n        /* \"ICO.sol\":3076:3087  return true */\n      swap1\n      pop\n        /* \"ICO.sol\":2819:3095  function transfer(address to, uint tokens) public override returns (bool success) {... */\n      swap3\n      swap2\n      pop\n      pop\n      jump\t// out\n        /* \"ICO.sol\":3853:3949  function myBalance() public view returns (uint) {... */\n    tag_96:\n        /* \"ICO.sol\":3895:3899  uint */\n      0x00\n        /* \"ICO.sol\":3920:3928  balances */\n      0x09\n        /* \"ICO.sol\":3920:3940  balances[msg.sender] */\n      0x00\n        /* \"ICO.sol\":3929:3939  msg.sender */\n      caller\n        /* \"ICO.sol\":3920:3940  balances[msg.sender] */\n      0xffffffffffffffffffffffffffffffffffffffff\n      and\n      0xffffffffffffffffffffffffffffffffffffffff\n      and\n      dup2\n      mstore\n      0x20\n      add\n      swap1\n      dup2\n      mstore\n      0x20\n      add\n      0x00\n      keccak256\n      sload\n        /* \"ICO.sol\":3912:3941  return (balances[msg.sender]) */\n      swap1\n      pop\n        /* \"ICO.sol\":3853:3949  function myBalance() public view returns (uint) {... */\n      swap1\n      jump\t// out\n        /* \"ICO.sol\":2115:2572  function buyTokens() public payable {... */\n    tag_99:\n        /* \"ICO.sol\":2162:2173  uint tokens */\n      0x00\n        /* \"ICO.sol\":2207:2216  bonusEnds */\n      sload(0x03)\n        /* \"ICO.sol\":2188:2203  block.timestamp */\n      timestamp\n        /* \"ICO.sol\":2188:2216  block.timestamp <= bonusEnds */\n      gt\n        /* \"ICO.sol\":2184:2331  if (block.timestamp <= bonusEnds) {... */\n      tag_139\n      jumpi\n        /* \"ICO.sol\":2242:2260  msg.value.mul(125) */\n      tag_140\n        /* \"ICO.sol\":2256:2259  125 */\n      0x7d\n        /* \"ICO.sol\":2242:2251  msg.value */\n      callvalue\n        /* \"ICO.sol\":2242:2255  msg.value.mul */\n      tag_141\n      swap1\n        /* \"ICO.sol\":2242:2260  msg.value.mul(125) */\n      swap2\n      swap1\n      0xffffffff\n      and\n      jump\t// in\n    tag_140:\n        /* \"ICO.sol\":2233:2260  tokens = msg.value.mul(125) */\n      swap1\n      pop\n        /* \"ICO.sol\":2184:2331  if (block.timestamp <= bonusEnds) {... */\n      jump(tag_142)\n    tag_139:\n        /* \"ICO.sol\":2301:2319  msg.value.mul(100) */\n      tag_143\n        /* \"ICO.sol\":2315:2318  100 */\n      0x64\n        /* \"ICO.sol\":2301:2310  msg.value */\n      callvalue\n        /* \"ICO.sol\":2301:2314  msg.value.mul */\n      tag_141\n      swap1\n        /* \"ICO.sol\":2301:2319  msg.value.mul(100) */\n      swap2\n      swap1\n      0xffffffff\n      and\n      jump\t// in\n    tag_143:\n        /* \"ICO.sol\":2292:2319  tokens = msg.value.mul(100) */\n      swap1\n      pop\n        /* \"ICO.sol\":2184:2331  if (block.timestamp <= bonusEnds) {... */\n    tag_142:\n        /* \"ICO.sol\":2352:2370  msg.value.mul(100) */\n      tag_144\n        /* \"ICO.sol\":2366:2369  100 */\n      0x64\n        /* \"ICO.sol\":2352:2361  msg.value */\n      callvalue\n        /* \"ICO.sol\":2352:2365  msg.value.mul */\n      tag_141\n      swap1\n        /* \"ICO.sol\":2352:2370  msg.value.mul(100) */\n      swap2\n      swap1\n      0xffffffff\n      and\n      jump\t// in\n    tag_144:\n        /* \"ICO.sol\":2343:2370  tokens = msg.value.mul(100) */\n      swap1\n      pop\n        /* \"ICO.sol\":2404:2436  balances[msg.sender].add(tokens) */\n      tag_145\n        /* \"ICO.sol\":2429:2435  tokens */\n      dup2\n        /* \"ICO.sol\":2404:2412  balances */\n      0x09\n        /* \"ICO.sol\":2404:2424  balances[msg.sender] */\n      0x00\n        /* \"ICO.sol\":2413:2423  msg.sender */\n      caller\n        /* \"ICO.sol\":2404:2424  balances[msg.sender] */\n      0xffffffffffffffffffffffffffffffffffffffff\n      and\n      0xffffffffffffffffffffffffffffffffffffffff\n      and\n      dup2\n      mstore\n      0x20\n      add\n      swap1\n      dup2\n      mstore\n      0x20\n      add\n      0x00\n      keccak256\n      sload\n        /* \"ICO.sol\":2404:2428  balances[msg.sender].add */\n      tag_120\n      swap1\n        /* \"ICO.sol\":2404:2436  balances[msg.sender].add(tokens) */\n      swap2\n      swap1\n      0xffffffff\n      and\n      jump\t// in\n    tag_145:\n        /* \"ICO.sol\":2381:2389  balances */\n      0x09\n        /* \"ICO.sol\":2381:2401  balances[msg.sender] */\n      0x00\n        /* \"ICO.sol\":2390:2400  msg.sender */\n      caller\n        /* \"ICO.sol\":2381:2401  balances[msg.sender] */\n      0xffffffffffffffffffffffffffffffffffffffff\n      and\n      0xffffffffffffffffffffffffffffffffffffffff\n      and\n      dup2\n      mstore\n      0x20\n      add\n      swap1\n      dup2\n      mstore\n      0x20\n      add\n      0x00\n      keccak256\n        /* \"ICO.sol\":2381:2436  balances[msg.sender] = balances[msg.sender].add(tokens) */\n      dup2\n      swap1\n      sstore\n      pop\n        /* \"ICO.sol\":2459:2480  allTokens.add(tokens) */\n      tag_146\n        /* \"ICO.sol\":2473:2479  tokens */\n      dup2\n        /* \"ICO.sol\":2459:2468  allTokens */\n      sload(0x07)\n        /* \"ICO.sol\":2459:2472  allTokens.add */\n      tag_120\n      swap1\n        /* \"ICO.sol\":2459:2480  allTokens.add(tokens) */\n      swap2\n      swap1\n      0xffffffff\n      and\n      jump\t// in\n    tag_146:\n        /* \"ICO.sol\":2447:2456  allTokens */\n      0x07\n        /* \"ICO.sol\":2447:2480  allTokens = allTokens.add(tokens) */\n      dup2\n      swap1\n      sstore\n      pop\n        /* \"ICO.sol\":2517:2527  msg.sender */\n      caller\n        /* \"ICO.sol\":2496:2536  Transfer(address(0), msg.sender, tokens) */\n      0xffffffffffffffffffffffffffffffffffffffff\n      and\n        /* \"ICO.sol\":2513:2514  0 */\n      0x00\n        /* \"ICO.sol\":2496:2536  Transfer(address(0), msg.sender, tokens) */\n      0xffffffffffffffffffffffffffffffffffffffff\n      and\n      0xddf252ad1be2c89b69c2b068fc378daa952ba7f163c4a11628f55a4df523b3ef\n        /* \"ICO.sol\":2529:2535  tokens */\n      dup4\n        /* \"ICO.sol\":2496:2536  Transfer(address(0), msg.sender, tokens) */\n      mload(0x40)\n      tag_147\n      swap2\n      swap1\n      tag_39\n      jump\t// in\n    tag_147:\n      mload(0x40)\n      dup1\n      swap2\n      sub\n      swap1\n      log3\n        /* \"ICO.sol\":2547:2562  allContributers */\n      0x06\n      0x00\n        /* \"ICO.sol\":2547:2564  allContributers++ */\n      dup2\n      sload\n      dup1\n      swap3\n      swap2\n      swap1\n      tag_148\n      swap1\n      tag_149\n      jump\t// in\n    tag_148:\n      swap2\n      swap1\n      pop\n      sstore\n      pop\n        /* \"ICO.sol\":2151:2572  {... */\n      pop\n        /* \"ICO.sol\":2115:2572  function buyTokens() public payable {... */\n      jump\t// out\n        /* \"ICO.sol\":3689:3845  function allowance(address tokenOwner, address spender) public view override returns (uint remaining) {... */\n    tag_104:\n        /* \"ICO.sol\":3775:3789  uint remaining */\n      0x00\n        /* \"ICO.sol\":3809:3816  allowed */\n      0x0a\n        /* \"ICO.sol\":3809:3828  allowed[tokenOwner] */\n      0x00\n        /* \"ICO.sol\":3817:3827  tokenOwner */\n      dup5\n        /* \"ICO.sol\":3809:3828  allowed[tokenOwner] */\n      0xffffffffffffffffffffffffffffffffffffffff\n      and\n      0xffffffffffffffffffffffffffffffffffffffff\n      and\n      dup2\n      mstore\n      0x20\n      add\n      swap1\n      dup2\n      mstore\n      0x20\n      add\n      0x00\n      keccak256\n        /* \"ICO.sol\":3809:3837  allowed[tokenOwner][spender] */\n      0x00\n        /* \"ICO.sol\":3829:3836  spender */\n      dup4\n        /* \"ICO.sol\":3809:3837  allowed[tokenOwner][spender] */\n      0xffffffffffffffffffffffffffffffffffffffff\n      and\n      0xffffffffffffffffffffffffffffffffffffffff\n      and\n      dup2\n      mstore\n      0x20\n      add\n      swap1\n      dup2\n      mstore\n      0x20\n      add\n      0x00\n      keccak256\n      sload\n        /* \"ICO.sol\":3802:3837  return allowed[tokenOwner][spender] */\n      swap1\n      pop\n        /* \"ICO.sol\":3689:3845  function allowance(address tokenOwner, address spender) public view override returns (uint remaining) {... */\n      swap3\n      swap2\n      pop\n      pop\n      jump\t// out\n        /* \"ICO.sol\":960:1074  function sub(uint a, uint b) internal pure returns (uint c) {... */\n    tag_117:\n        /* \"ICO.sol\":1012:1018  uint c */\n      0x00\n        /* \"ICO.sol\":1044:1045  a */\n      dup3\n        /* \"ICO.sol\":1039:1040  b */\n      dup3\n        /* \"ICO.sol\":1039:1045  b <= a */\n      gt\n      iszero\n        /* \"ICO.sol\":1031:1046  require(b <= a) */\n      tag_152\n      jumpi\n      0x00\n      dup1\n      revert\n    tag_152:\n        /* \"ICO.sol\":1065:1066  b */\n      dup2\n        /* \"ICO.sol\":1061:1062  a */\n      dup4\n        /* \"ICO.sol\":1061:1066  a - b */\n      tag_153\n      swap2\n      swap1\n      tag_154\n      jump\t// in\n    tag_153:\n        /* \"ICO.sol\":1057:1066  c = a - b */\n      swap1\n      pop\n        /* \"ICO.sol\":960:1074  function sub(uint a, uint b) internal pure returns (uint c) {... */\n      swap3\n      swap2\n      pop\n      pop\n      jump\t// out\n        /* \"ICO.sol\":837:951  function add(uint a, uint b) internal pure returns (uint c) {... */\n    tag_120:\n        /* \"ICO.sol\":889:895  uint c */\n      0x00\n        /* \"ICO.sol\":916:917  b */\n      dup2\n        /* \"ICO.sol\":912:913  a */\n      dup4\n        /* \"ICO.sol\":912:917  a + b */\n      tag_156\n      swap2\n      swap1\n      tag_157\n      jump\t// in\n    tag_156:\n        /* \"ICO.sol\":908:917  c = a + b */\n      swap1\n      pop\n        /* \"ICO.sol\":941:942  a */\n      dup3\n        /* \"ICO.sol\":936:937  c */\n      dup2\n        /* \"ICO.sol\":936:942  c >= a */\n      lt\n      iszero\n        /* \"ICO.sol\":928:943  require(c >= a) */\n      tag_158\n      jumpi\n      0x00\n      dup1\n      revert\n    tag_158:\n        /* \"ICO.sol\":837:951  function add(uint a, uint b) internal pure returns (uint c) {... */\n      swap3\n      swap2\n      pop\n      pop\n      jump\t// out\n        /* \"ICO.sol\":1083:1211  function mul(uint a, uint b) internal pure returns (uint c) {... */\n    tag_141:\n        /* \"ICO.sol\":1135:1141  uint c */\n      0x00\n        /* \"ICO.sol\":1162:1163  b */\n      dup2\n        /* \"ICO.sol\":1158:1159  a */\n      dup4\n        /* \"ICO.sol\":1158:1163  a * b */\n      tag_160\n      swap2\n      swap1\n      tag_161\n      jump\t// in\n    tag_160:\n        /* \"ICO.sol\":1154:1163  c = a * b */\n      swap1\n      pop\n        /* \"ICO.sol\":1187:1188  0 */\n      0x00\n        /* \"ICO.sol\":1182:1183  a */\n      dup4\n        /* \"ICO.sol\":1182:1188  a == 0 */\n      eq\n        /* \"ICO.sol\":1182:1202  a == 0 || c / a == b */\n      dup1\n      tag_162\n      jumpi\n      pop\n        /* \"ICO.sol\":1201:1202  b */\n      dup2\n        /* \"ICO.sol\":1196:1197  a */\n      dup4\n        /* \"ICO.sol\":1192:1193  c */\n      dup3\n        /* \"ICO.sol\":1192:1197  c / a */\n      tag_163\n      swap2\n      swap1\n      tag_164\n      jump\t// in\n    tag_163:\n        /* \"ICO.sol\":1192:1202  c / a == b */\n      eq\n        /* \"ICO.sol\":1182:1202  a == 0 || c / a == b */\n    tag_162:\n        /* \"ICO.sol\":1174:1203  require(a == 0 || c / a == b) */\n      tag_165\n      jumpi\n      0x00\n      dup1\n      revert\n    tag_165:\n        /* \"ICO.sol\":1083:1211  function mul(uint a, uint b) internal pure returns (uint c) {... */\n      swap3\n      swap2\n      pop\n      pop\n      jump\t// out\n        /* \"#utility.yul\":7:106   */\n    tag_166:\n        /* \"#utility.yul\":59:65   */\n      0x00\n        /* \"#utility.yul\":93:98   */\n      dup2\n        /* \"#utility.yul\":87:99   */\n      mload\n        /* \"#utility.yul\":77:99   */\n      swap1\n      pop\n        /* \"#utility.yul\":7:106   */\n      swap2\n      swap1\n      pop\n      jump\t// out\n        /* \"#utility.yul\":112:281   */\n    tag_167:\n        /* \"#utility.yul\":196:207   */\n      0x00\n        /* \"#utility.yul\":230:236   */\n      dup3\n        /* \"#utility.yul\":225:228   */\n      dup3\n        /* \"#utility.yul\":218:237   */\n      mstore\n        /* \"#utility.yul\":270:274   */\n      0x20\n        /* \"#utility.yul\":265:268   */\n      dup3\n        /* \"#utility.yul\":261:275   */\n      add\n        /* \"#utility.yul\":246:275   */\n      swap1\n      pop\n        /* \"#utility.yul\":112:281   */\n      swap3\n      swap2\n      pop\n      pop\n      jump\t// out\n        /* \"#utility.yul\":287:594   */\n    tag_168:\n        /* \"#utility.yul\":355:356   */\n      0x00\n        /* \"#utility.yul\":365:478   */\n    tag_192:\n        /* \"#utility.yul\":379:385   */\n      dup4\n        /* \"#utility.yul\":376:377   */\n      dup2\n        /* \"#utility.yul\":373:386   */\n      lt\n        /* \"#utility.yul\":365:478   */\n      iszero\n      tag_194\n      jumpi\n        /* \"#utility.yul\":464:465   */\n      dup1\n        /* \"#utility.yul\":459:462   */\n      dup3\n        /* \"#utility.yul\":455:466   */\n      add\n        /* \"#utility.yul\":449:467   */\n      mload\n        /* \"#utility.yul\":445:446   */\n      dup2\n        /* \"#utility.yul\":440:443   */\n      dup5\n        /* \"#utility.yul\":436:447   */\n      add\n        /* \"#utility.yul\":429:468   */\n      mstore\n        /* \"#utility.yul\":401:403   */\n      0x20\n        /* \"#utility.yul\":398:399   */\n      dup2\n        /* \"#utility.yul\":394:404   */\n      add\n        /* \"#utility.yul\":389:404   */\n      swap1\n      pop\n        /* \"#utility.yul\":365:478   */\n      jump(tag_192)\n    tag_194:\n        /* \"#utility.yul\":496:502   */\n      dup4\n        /* \"#utility.yul\":493:494   */\n      dup2\n        /* \"#utility.yul\":490:503   */\n      gt\n        /* \"#utility.yul\":487:588   */\n      iszero\n      tag_195\n      jumpi\n        /* \"#utility.yul\":576:577   */\n      0x00\n        /* \"#utility.yul\":567:573   */\n      dup5\n        /* \"#utility.yul\":562:565   */\n      dup5\n        /* \"#utility.yul\":558:574   */\n      add\n        /* \"#utility.yul\":551:578   */\n      mstore\n        /* \"#utility.yul\":487:588   */\n    tag_195:\n        /* \"#utility.yul\":336:594   */\n      pop\n        /* \"#utility.yul\":287:594   */\n      pop\n      pop\n      pop\n      jump\t// out\n        /* \"#utility.yul\":600:702   */\n    tag_169:\n        /* \"#utility.yul\":641:647   */\n      0x00\n        /* \"#utility.yul\":692:694   */\n      0x1f\n        /* \"#utility.yul\":688:695   */\n      not\n        /* \"#utility.yul\":683:685   */\n      0x1f\n        /* \"#utility.yul\":676:681   */\n      dup4\n        /* \"#utility.yul\":672:686   */\n      add\n        /* \"#utility.yul\":668:696   */\n      and\n        /* \"#utility.yul\":658:696   */\n      swap1\n      pop\n        /* \"#utility.yul\":600:702   */\n      swap2\n      swap1\n      pop\n      jump\t// out\n        /* \"#utility.yul\":708:1072   */\n    tag_170:\n        /* \"#utility.yul\":796:799   */\n      0x00\n        /* \"#utility.yul\":824:863   */\n      tag_198\n        /* \"#utility.yul\":857:862   */\n      dup3\n        /* \"#utility.yul\":824:863   */\n      tag_166\n      jump\t// in\n    tag_198:\n        /* \"#utility.yul\":879:950   */\n      tag_199\n        /* \"#utility.yul\":943:949   */\n      dup2\n        /* \"#utility.yul\":938:941   */\n      dup6\n        /* \"#utility.yul\":879:950   */\n      tag_167\n      jump\t// in\n    tag_199:\n        /* \"#utility.yul\":872:950   */\n      swap4\n      pop\n        /* \"#utility.yul\":959:1011   */\n      tag_200\n        /* \"#utility.yul\":1004:1010   */\n      dup2\n        /* \"#utility.yul\":999:1002   */\n      dup6\n        /* \"#utility.yul\":992:996   */\n      0x20\n        /* \"#utility.yul\":985:990   */\n      dup7\n        /* \"#utility.yul\":981:997   */\n      add\n        /* \"#utility.yul\":959:1011   */\n      tag_168\n      jump\t// in\n    tag_200:\n        /* \"#utility.yul\":1036:1065   */\n      tag_201\n        /* \"#utility.yul\":1058:1064   */\n      dup2\n        /* \"#utility.yul\":1036:1065   */\n      tag_169\n      jump\t// in\n    tag_201:\n        /* \"#utility.yul\":1031:1034   */\n      dup5\n        /* \"#utility.yul\":1027:1066   */\n      add\n        /* \"#utility.yul\":1020:1066   */\n      swap2\n      pop\n        /* \"#utility.yul\":800:1072   */\n      pop\n        /* \"#utility.yul\":708:1072   */\n      swap3\n      swap2\n      pop\n      pop\n      jump\t// out\n        /* \"#utility.yul\":1078:1391   */\n    tag_27:\n        /* \"#utility.yul\":1191:1195   */\n      0x00\n        /* \"#utility.yul\":1229:1231   */\n      0x20\n        /* \"#utility.yul\":1218:1227   */\n      dup3\n        /* \"#utility.yul\":1214:1232   */\n      add\n        /* \"#utility.yul\":1206:1232   */\n      swap1\n      pop\n        /* \"#utility.yul\":1278:1287   */\n      dup2\n        /* \"#utility.yul\":1272:1276   */\n      dup2\n        /* \"#utility.yul\":1268:1288   */\n      sub\n        /* \"#utility.yul\":1264:1265   */\n      0x00\n        /* \"#utility.yul\":1253:1262   */\n      dup4\n        /* \"#utility.yul\":1249:1266   */\n      add\n        /* \"#utility.yul\":1242:1289   */\n      mstore\n        /* \"#utility.yul\":1306:1384   */\n      tag_203\n        /* \"#utility.yul\":1379:1383   */\n      dup2\n        /* \"#utility.yul\":1370:1376   */\n      dup5\n        /* \"#utility.yul\":1306:1384   */\n      tag_170\n      jump\t// in\n    tag_203:\n        /* \"#utility.yul\":1298:1384   */\n      swap1\n      pop\n        /* \"#utility.yul\":1078:1391   */\n      swap3\n      swap2\n      pop\n      pop\n      jump\t// out\n        /* \"#utility.yul\":1478:1595   */\n    tag_172:\n        /* \"#utility.yul\":1587:1588   */\n      0x00\n        /* \"#utility.yul\":1584:1585   */\n      dup1\n        /* \"#utility.yul\":1577:1589   */\n      revert\n        /* \"#utility.yul\":1724:1850   */\n    tag_174:\n        /* \"#utility.yul\":1761:1768   */\n      0x00\n        /* \"#utility.yul\":1801:1843   */\n      0xffffffffffffffffffffffffffffffffffffffff\n        /* \"#utility.yul\":1794:1799   */\n      dup3\n        /* \"#utility.yul\":1790:1844   */\n      and\n        /* \"#utility.yul\":1779:1844   */\n      swap1\n      pop\n        /* \"#utility.yul\":1724:1850   */\n      swap2\n      swap1\n      pop\n      jump\t// out\n        /* \"#utility.yul\":1856:1952   */\n    tag_175:\n        /* \"#utility.yul\":1893:1900   */\n      0x00\n        /* \"#utility.yul\":1922:1946   */\n      tag_209\n        /* \"#utility.yul\":1940:1945   */\n      dup3\n        /* \"#utility.yul\":1922:1946   */\n      tag_174\n      jump\t// in\n    tag_209:\n        /* \"#utility.yul\":1911:1946   */\n      swap1\n      pop\n        /* \"#utility.yul\":1856:1952   */\n      swap2\n      swap1\n      pop\n      jump\t// out\n        /* \"#utility.yul\":1958:2080   */\n    tag_176:\n        /* \"#utility.yul\":2031:2055   */\n      tag_211\n        /* \"#utility.yul\":2049:2054   */\n      dup2\n        /* \"#utility.yul\":2031:2055   */\n      tag_175\n      jump\t// in\n    tag_211:\n        /* \"#utility.yul\":2024:2029   */\n      dup2\n        /* \"#utility.yul\":2021:2056   */\n      eq\n        /* \"#utility.yul\":2011:2074   */\n      tag_212\n      jumpi\n        /* \"#utility.yul\":2070:2071   */\n      0x00\n        /* \"#utility.yul\":2067:2068   */\n      dup1\n        /* \"#utility.yul\":2060:2072   */\n      revert\n        /* \"#utility.yul\":2011:2074   */\n    tag_212:\n        /* \"#utility.yul\":1958:2080   */\n      pop\n      jump\t// out\n        /* \"#utility.yul\":2086:2225   */\n    tag_177:\n        /* \"#utility.yul\":2132:2137   */\n      0x00\n        /* \"#utility.yul\":2170:2176   */\n      dup2\n        /* \"#utility.yul\":2157:2177   */\n      calldataload\n        /* \"#utility.yul\":2148:2177   */\n      swap1\n      pop\n        /* \"#utility.yul\":2186:2219   */\n      tag_214\n        /* \"#utility.yul\":2213:2218   */\n      dup2\n        /* \"#utility.yul\":2186:2219   */\n      tag_176\n      jump\t// in\n    tag_214:\n        /* \"#utility.yul\":2086:2225   */\n      swap3\n      swap2\n      pop\n      pop\n      jump\t// out\n        /* \"#utility.yul\":2231:2308   */\n    tag_178:\n        /* \"#utility.yul\":2268:2275   */\n      0x00\n        /* \"#utility.yul\":2297:2302   */\n      dup2\n        /* \"#utility.yul\":2286:2302   */\n      swap1\n      pop\n        /* \"#utility.yul\":2231:2308   */\n      swap2\n      swap1\n      pop\n      jump\t// out\n        /* \"#utility.yul\":2314:2436   */\n    tag_179:\n        /* \"#utility.yul\":2387:2411   */\n      tag_217\n        /* \"#utility.yul\":2405:2410   */\n      dup2\n        /* \"#utility.yul\":2387:2411   */\n      tag_178\n      jump\t// in\n    tag_217:\n        /* \"#utility.yul\":2380:2385   */\n      dup2\n        /* \"#utility.yul\":2377:2412   */\n      eq\n        /* \"#utility.yul\":2367:2430   */\n      tag_218\n      jumpi\n        /* \"#utility.yul\":2426:2427   */\n      0x00\n        /* \"#utility.yul\":2423:2424   */\n      dup1\n        /* \"#utility.yul\":2416:2428   */\n      revert\n        /* \"#utility.yul\":2367:2430   */\n    tag_218:\n        /* \"#utility.yul\":2314:2436   */\n      pop\n      jump\t// out\n        /* \"#utility.yul\":2442:2581   */\n    tag_180:\n        /* \"#utility.yul\":2488:2493   */\n      0x00\n        /* \"#utility.yul\":2526:2532   */\n      dup2\n        /* \"#utility.yul\":2513:2533   */\n      calldataload\n        /* \"#utility.yul\":2504:2533   */\n      swap1\n      pop\n        /* \"#utility.yul\":2542:2575   */\n      tag_220\n        /* \"#utility.yul\":2569:2574   */\n      dup2\n        /* \"#utility.yul\":2542:2575   */\n      tag_179\n      jump\t// in\n    tag_220:\n        /* \"#utility.yul\":2442:2581   */\n      swap3\n      swap2\n      pop\n      pop\n      jump\t// out\n        /* \"#utility.yul\":2587:3061   */\n    tag_31:\n        /* \"#utility.yul\":2655:2661   */\n      0x00\n        /* \"#utility.yul\":2663:2669   */\n      dup1\n        /* \"#utility.yul\":2712:2714   */\n      0x40\n        /* \"#utility.yul\":2700:2709   */\n      dup4\n        /* \"#utility.yul\":2691:2698   */\n      dup6\n        /* \"#utility.yul\":2687:2710   */\n      sub\n        /* \"#utility.yul\":2683:2715   */\n      slt\n        /* \"#utility.yul\":2680:2799   */\n      iszero\n      tag_222\n      jumpi\n        /* \"#utility.yul\":2718:2797   */\n      tag_223\n      tag_172\n      jump\t// in\n    tag_223:\n        /* \"#utility.yul\":2680:2799   */\n    tag_222:\n        /* \"#utility.yul\":2838:2839   */\n      0x00\n        /* \"#utility.yul\":2863:2916   */\n      tag_224\n        /* \"#utility.yul\":2908:2915   */\n      dup6\n        /* \"#utility.yul\":2899:2905   */\n      dup3\n        /* \"#utility.yul\":2888:2897   */\n      dup7\n        /* \"#utility.yul\":2884:2906   */\n      add\n        /* \"#utility.yul\":2863:2916   */\n      tag_177\n      jump\t// in\n    tag_224:\n        /* \"#utility.yul\":2853:2916   */\n      swap3\n      pop\n        /* \"#utility.yul\":2809:2926   */\n      pop\n        /* \"#utility.yul\":2965:2967   */\n      0x20\n        /* \"#utility.yul\":2991:3044   */\n      tag_225\n        /* \"#utility.yul\":3036:3043   */\n      dup6\n        /* \"#utility.yul\":3027:3033   */\n      dup3\n        /* \"#utility.yul\":3016:3025   */\n      dup7\n        /* \"#utility.yul\":3012:3034   */\n      add\n        /* \"#utility.yul\":2991:3044   */\n      tag_180\n      jump\t// in\n    tag_225:\n        /* \"#utility.yul\":2981:3044   */\n      swap2\n      pop\n        /* \"#utility.yul\":2936:3054   */\n      pop\n        /* \"#utility.yul\":2587:3061   */\n      swap3\n      pop\n      swap3\n      swap1\n      pop\n      jump\t// out\n        /* \"#utility.yul\":3067:3157   */\n    tag_181:\n        /* \"#utility.yul\":3101:3108   */\n      0x00\n        /* \"#utility.yul\":3144:3149   */\n      dup2\n        /* \"#utility.yul\":3137:3150   */\n      iszero\n        /* \"#utility.yul\":3130:3151   */\n      iszero\n        /* \"#utility.yul\":3119:3151   */\n      swap1\n      pop\n        /* \"#utility.yul\":3067:3157   */\n      swap2\n      swap1\n      pop\n      jump\t// out\n        /* \"#utility.yul\":3163:3272   */\n    tag_182:\n        /* \"#utility.yul\":3244:3265   */\n      tag_228\n        /* \"#utility.yul\":3259:3264   */\n      dup2\n        /* \"#utility.yul\":3244:3265   */\n      tag_181\n      jump\t// in\n    tag_228:\n        /* \"#utility.yul\":3239:3242   */\n      dup3\n        /* \"#utility.yul\":3232:3266   */\n      mstore\n        /* \"#utility.yul\":3163:3272   */\n      pop\n      pop\n      jump\t// out\n        /* \"#utility.yul\":3278:3488   */\n    tag_34:\n        /* \"#utility.yul\":3365:3369   */\n      0x00\n        /* \"#utility.yul\":3403:3405   */\n      0x20\n        /* \"#utility.yul\":3392:3401   */\n      dup3\n        /* \"#utility.yul\":3388:3406   */\n      add\n        /* \"#utility.yul\":3380:3406   */\n      swap1\n      pop\n        /* \"#utility.yul\":3416:3481   */\n      tag_230\n        /* \"#utility.yul\":3478:3479   */\n      0x00\n        /* \"#utility.yul\":3467:3476   */\n      dup4\n        /* \"#utility.yul\":3463:3480   */\n      add\n        /* \"#utility.yul\":3454:3460   */\n      dup5\n        /* \"#utility.yul\":3416:3481   */\n      tag_182\n      jump\t// in\n    tag_230:\n        /* \"#utility.yul\":3278:3488   */\n      swap3\n      swap2\n      pop\n      pop\n      jump\t// out\n        /* \"#utility.yul\":3494:3612   */\n    tag_183:\n        /* \"#utility.yul\":3581:3605   */\n      tag_232\n        /* \"#utility.yul\":3599:3604   */\n      dup2\n        /* \"#utility.yul\":3581:3605   */\n      tag_178\n      jump\t// in\n    tag_232:\n        /* \"#utility.yul\":3576:3579   */\n      dup3\n        /* \"#utility.yul\":3569:3606   */\n      mstore\n        /* \"#utility.yul\":3494:3612   */\n      pop\n      pop\n      jump\t// out\n        /* \"#utility.yul\":3618:3840   */\n    tag_39:\n        /* \"#utility.yul\":3711:3715   */\n      0x00\n        /* \"#utility.yul\":3749:3751   */\n      0x20\n        /* \"#utility.yul\":3738:3747   */\n      dup3\n        /* \"#utility.yul\":3734:3752   */\n      add\n        /* \"#utility.yul\":3726:3752   */\n      swap1\n      pop\n        /* \"#utility.yul\":3762:3833   */\n      tag_234\n        /* \"#utility.yul\":3830:3831   */\n      0x00\n        /* \"#utility.yul\":3819:3828   */\n      dup4\n        /* \"#utility.yul\":3815:3832   */\n      add\n        /* \"#utility.yul\":3806:3812   */\n      dup5\n        /* \"#utility.yul\":3762:3833   */\n      tag_183\n      jump\t// in\n    tag_234:\n        /* \"#utility.yul\":3618:3840   */\n      swap3\n      swap2\n      pop\n      pop\n      jump\t// out\n        /* \"#utility.yul\":3846:4465   */\n    tag_47:\n        /* \"#utility.yul\":3923:3929   */\n      0x00\n        /* \"#utility.yul\":3931:3937   */\n      dup1\n        /* \"#utility.yul\":3939:3945   */\n      0x00\n        /* \"#utility.yul\":3988:3990   */\n      0x60\n        /* \"#utility.yul\":3976:3985   */\n      dup5\n        /* \"#utility.yul\":3967:3974   */\n      dup7\n        /* \"#utility.yul\":3963:3986   */\n      sub\n        /* \"#utility.yul\":3959:3991   */\n      slt\n        /* \"#utility.yul\":3956:4075   */\n      iszero\n      tag_236\n      jumpi\n        /* \"#utility.yul\":3994:4073   */\n      tag_237\n      tag_172\n      jump\t// in\n    tag_237:\n        /* \"#utility.yul\":3956:4075   */\n    tag_236:\n        /* \"#utility.yul\":4114:4115   */\n      0x00\n        /* \"#utility.yul\":4139:4192   */\n      tag_238\n        /* \"#utility.yul\":4184:4191   */\n      dup7\n        /* \"#utility.yul\":4175:4181   */\n      dup3\n        /* \"#utility.yul\":4164:4173   */\n      dup8\n        /* \"#utility.yul\":4160:4182   */\n      add\n        /* \"#utility.yul\":4139:4192   */\n      tag_177\n      jump\t// in\n    tag_238:\n        /* \"#utility.yul\":4129:4192   */\n      swap4\n      pop\n        /* \"#utility.yul\":4085:4202   */\n      pop\n        /* \"#utility.yul\":4241:4243   */\n      0x20\n        /* \"#utility.yul\":4267:4320   */\n      tag_239\n        /* \"#utility.yul\":4312:4319   */\n      dup7\n        /* \"#utility.yul\":4303:4309   */\n      dup3\n        /* \"#utility.yul\":4292:4301   */\n      dup8\n        /* \"#utility.yul\":4288:4310   */\n      add\n        /* \"#utility.yul\":4267:4320   */\n      tag_177\n      jump\t// in\n    tag_239:\n        /* \"#utility.yul\":4257:4320   */\n      swap3\n      pop\n        /* \"#utility.yul\":4212:4330   */\n      pop\n        /* \"#utility.yul\":4369:4371   */\n      0x40\n        /* \"#utility.yul\":4395:4448   */\n      tag_240\n        /* \"#utility.yul\":4440:4447   */\n      dup7\n        /* \"#utility.yul\":4431:4437   */\n      dup3\n        /* \"#utility.yul\":4420:4429   */\n      dup8\n        /* \"#utility.yul\":4416:4438   */\n      add\n        /* \"#utility.yul\":4395:4448   */\n      tag_180\n      jump\t// in\n    tag_240:\n        /* \"#utility.yul\":4385:4448   */\n      swap2\n      pop\n        /* \"#utility.yul\":4340:4458   */\n      pop\n        /* \"#utility.yul\":3846:4465   */\n      swap3\n      pop\n      swap3\n      pop\n      swap3\n      jump\t// out\n        /* \"#utility.yul\":4471:4589   */\n    tag_184:\n        /* \"#utility.yul\":4558:4582   */\n      tag_242\n        /* \"#utility.yul\":4576:4581   */\n      dup2\n        /* \"#utility.yul\":4558:4582   */\n      tag_175\n      jump\t// in\n    tag_242:\n        /* \"#utility.yul\":4553:4556   */\n      dup3\n        /* \"#utility.yul\":4546:4583   */\n      mstore\n        /* \"#utility.yul\":4471:4589   */\n      pop\n      pop\n      jump\t// out\n        /* \"#utility.yul\":4595:4817   */\n    tag_54:\n        /* \"#utility.yul\":4688:4692   */\n      0x00\n        /* \"#utility.yul\":4726:4728   */\n      0x20\n        /* \"#utility.yul\":4715:4724   */\n      dup3\n        /* \"#utility.yul\":4711:4729   */\n      add\n        /* \"#utility.yul\":4703:4729   */\n      swap1\n      pop\n        /* \"#utility.yul\":4739:4810   */\n      tag_244\n        /* \"#utility.yul\":4807:4808   */\n      0x00\n        /* \"#utility.yul\":4796:4805   */\n      dup4\n        /* \"#utility.yul\":4792:4809   */\n      add\n        /* \"#utility.yul\":4783:4789   */\n      dup5\n        /* \"#utility.yul\":4739:4810   */\n      tag_184\n      jump\t// in\n    tag_244:\n        /* \"#utility.yul\":4595:4817   */\n      swap3\n      swap2\n      pop\n      pop\n      jump\t// out\n        /* \"#utility.yul\":4823:5152   */\n    tag_58:\n        /* \"#utility.yul\":4882:4888   */\n      0x00\n        /* \"#utility.yul\":4931:4933   */\n      0x20\n        /* \"#utility.yul\":4919:4928   */\n      dup3\n        /* \"#utility.yul\":4910:4917   */\n      dup5\n        /* \"#utility.yul\":4906:4929   */\n      sub\n        /* \"#utility.yul\":4902:4934   */\n      slt\n        /* \"#utility.yul\":4899:5018   */\n      iszero\n      tag_246\n      jumpi\n        /* \"#utility.yul\":4937:5016   */\n      tag_247\n      tag_172\n      jump\t// in\n    tag_247:\n        /* \"#utility.yul\":4899:5018   */\n    tag_246:\n        /* \"#utility.yul\":5057:5058   */\n      0x00\n        /* \"#utility.yul\":5082:5135   */\n      tag_248\n        /* \"#utility.yul\":5127:5134   */\n      dup5\n        /* \"#utility.yul\":5118:5124   */\n      dup3\n        /* \"#utility.yul\":5107:5116   */\n      dup6\n        /* \"#utility.yul\":5103:5125   */\n      add\n        /* \"#utility.yul\":5082:5135   */\n      tag_177\n      jump\t// in\n    tag_248:\n        /* \"#utility.yul\":5072:5135   */\n      swap2\n      pop\n        /* \"#utility.yul\":5028:5145   */\n      pop\n        /* \"#utility.yul\":4823:5152   */\n      swap3\n      swap2\n      pop\n      pop\n      jump\t// out\n        /* \"#utility.yul\":5158:5632   */\n    tag_103:\n        /* \"#utility.yul\":5226:5232   */\n      0x00\n        /* \"#utility.yul\":5234:5240   */\n      dup1\n        /* \"#utility.yul\":5283:5285   */\n      0x40\n        /* \"#utility.yul\":5271:5280   */\n      dup4\n        /* \"#utility.yul\":5262:5269   */\n      dup6\n        /* \"#utility.yul\":5258:5281   */\n      sub\n        /* \"#utility.yul\":5254:5286   */\n      slt\n        /* \"#utility.yul\":5251:5370   */\n      iszero\n      tag_250\n      jumpi\n        /* \"#utility.yul\":5289:5368   */\n      tag_251\n      tag_172\n      jump\t// in\n    tag_251:\n        /* \"#utility.yul\":5251:5370   */\n    tag_250:\n        /* \"#utility.yul\":5409:5410   */\n      0x00\n        /* \"#utility.yul\":5434:5487   */\n      tag_252\n        /* \"#utility.yul\":5479:5486   */\n      dup6\n        /* \"#utility.yul\":5470:5476   */\n      dup3\n        /* \"#utility.yul\":5459:5468   */\n      dup7\n        /* \"#utility.yul\":5455:5477   */\n      add\n        /* \"#utility.yul\":5434:5487   */\n      tag_177\n      jump\t// in\n    tag_252:\n        /* \"#utility.yul\":5424:5487   */\n      swap3\n      pop\n        /* \"#utility.yul\":5380:5497   */\n      pop\n        /* \"#utility.yul\":5536:5538   */\n      0x20\n        /* \"#utility.yul\":5562:5615   */\n      tag_253\n        /* \"#utility.yul\":5607:5614   */\n      dup6\n        /* \"#utility.yul\":5598:5604   */\n      dup3\n        /* \"#utility.yul\":5587:5596   */\n      dup7\n        /* \"#utility.yul\":5583:5605   */\n      add\n        /* \"#utility.yul\":5562:5615   */\n      tag_177\n      jump\t// in\n    tag_253:\n        /* \"#utility.yul\":5552:5615   */\n      swap2\n      pop\n        /* \"#utility.yul\":5507:5625   */\n      pop\n        /* \"#utility.yul\":5158:5632   */\n      swap3\n      pop\n      swap3\n      swap1\n      pop\n      jump\t// out\n        /* \"#utility.yul\":5638:5818   */\n    tag_185:\n        /* \"#utility.yul\":5686:5763   */\n      0x4e487b7100000000000000000000000000000000000000000000000000000000\n        /* \"#utility.yul\":5683:5684   */\n      0x00\n        /* \"#utility.yul\":5676:5764   */\n      mstore\n        /* \"#utility.yul\":5783:5787   */\n      0x22\n        /* \"#utility.yul\":5780:5781   */\n      0x04\n        /* \"#utility.yul\":5773:5788   */\n      mstore\n        /* \"#utility.yul\":5807:5811   */\n      0x24\n        /* \"#utility.yul\":5804:5805   */\n      0x00\n        /* \"#utility.yul\":5797:5812   */\n      revert\n        /* \"#utility.yul\":5824:6144   */\n    tag_107:\n        /* \"#utility.yul\":5868:5874   */\n      0x00\n        /* \"#utility.yul\":5905:5906   */\n      0x02\n        /* \"#utility.yul\":5899:5903   */\n      dup3\n        /* \"#utility.yul\":5895:5907   */\n      div\n        /* \"#utility.yul\":5885:5907   */\n      swap1\n      pop\n        /* \"#utility.yul\":5952:5953   */\n      0x01\n        /* \"#utility.yul\":5946:5950   */\n      dup3\n        /* \"#utility.yul\":5942:5954   */\n      and\n        /* \"#utility.yul\":5973:5991   */\n      dup1\n        /* \"#utility.yul\":5963:6044   */\n      tag_256\n      jumpi\n        /* \"#utility.yul\":6029:6033   */\n      0x7f\n        /* \"#utility.yul\":6021:6027   */\n      dup3\n        /* \"#utility.yul\":6017:6034   */\n      and\n        /* \"#utility.yul\":6007:6034   */\n      swap2\n      pop\n        /* \"#utility.yul\":5963:6044   */\n    tag_256:\n        /* \"#utility.yul\":6091:6093   */\n      0x20\n        /* \"#utility.yul\":6083:6089   */\n      dup3\n        /* \"#utility.yul\":6080:6094   */\n      lt\n        /* \"#utility.yul\":6060:6078   */\n      dup2\n        /* \"#utility.yul\":6057:6095   */\n      eq\n        /* \"#utility.yul\":6054:6138   */\n      iszero\n      tag_257\n      jumpi\n        /* \"#utility.yul\":6110:6128   */\n      tag_258\n      tag_185\n      jump\t// in\n    tag_258:\n        /* \"#utility.yul\":6054:6138   */\n    tag_257:\n        /* \"#utility.yul\":5875:6144   */\n      pop\n        /* \"#utility.yul\":5824:6144   */\n      swap2\n      swap1\n      pop\n      jump\t// out\n        /* \"#utility.yul\":6150:6330   */\n    tag_186:\n        /* \"#utility.yul\":6198:6275   */\n      0x4e487b7100000000000000000000000000000000000000000000000000000000\n        /* \"#utility.yul\":6195:6196   */\n      0x00\n        /* \"#utility.yul\":6188:6276   */\n      mstore\n        /* \"#utility.yul\":6295:6299   */\n      0x11\n        /* \"#utility.yul\":6292:6293   */\n      0x04\n        /* \"#utility.yul\":6285:6300   */\n      mstore\n        /* \"#utility.yul\":6319:6323   */\n      0x24\n        /* \"#utility.yul\":6316:6317   */\n      0x00\n        /* \"#utility.yul\":6309:6324   */\n      revert\n        /* \"#utility.yul\":6336:6569   */\n    tag_149:\n        /* \"#utility.yul\":6375:6378   */\n      0x00\n        /* \"#utility.yul\":6398:6422   */\n      tag_261\n        /* \"#utility.yul\":6416:6421   */\n      dup3\n        /* \"#utility.yul\":6398:6422   */\n      tag_178\n      jump\t// in\n    tag_261:\n        /* \"#utility.yul\":6389:6422   */\n      swap2\n      pop\n        /* \"#utility.yul\":6444:6510   */\n      0xffffffffffffffffffffffffffffffffffffffffffffffffffffffffffffffff\n        /* \"#utility.yul\":6437:6442   */\n      dup3\n        /* \"#utility.yul\":6434:6511   */\n      eq\n        /* \"#utility.yul\":6431:6534   */\n      iszero\n      tag_262\n      jumpi\n        /* \"#utility.yul\":6514:6532   */\n      tag_263\n      tag_186\n      jump\t// in\n    tag_263:\n        /* \"#utility.yul\":6431:6534   */\n    tag_262:\n        /* \"#utility.yul\":6561:6562   */\n      0x01\n        /* \"#utility.yul\":6554:6559   */\n      dup3\n        /* \"#utility.yul\":6550:6563   */\n      add\n        /* \"#utility.yul\":6543:6563   */\n      swap1\n      pop\n        /* \"#utility.yul\":6336:6569   */\n      swap2\n      swap1\n      pop\n      jump\t// out\n        /* \"#utility.yul\":6575:6766   */\n    tag_154:\n        /* \"#utility.yul\":6615:6619   */\n      0x00\n        /* \"#utility.yul\":6635:6655   */\n      tag_265\n        /* \"#utility.yul\":6653:6654   */\n      dup3\n        /* \"#utility.yul\":6635:6655   */\n      tag_178\n      jump\t// in\n    tag_265:\n        /* \"#utility.yul\":6630:6655   */\n      swap2\n      pop\n        /* \"#utility.yul\":6669:6689   */\n      tag_266\n        /* \"#utility.yul\":6687:6688   */\n      dup4\n        /* \"#utility.yul\":6669:6689   */\n      tag_178\n      jump\t// in\n    tag_266:\n        /* \"#utility.yul\":6664:6689   */\n      swap3\n      pop\n        /* \"#utility.yul\":6708:6709   */\n      dup3\n        /* \"#utility.yul\":6705:6706   */\n      dup3\n        /* \"#utility.yul\":6702:6710   */\n      lt\n        /* \"#utility.yul\":6699:6733   */\n      iszero\n      tag_267\n      jumpi\n        /* \"#utility.yul\":6713:6731   */\n      tag_268\n      tag_186\n      jump\t// in\n    tag_268:\n        /* \"#utility.yul\":6699:6733   */\n    tag_267:\n        /* \"#utility.yul\":6758:6759   */\n      dup3\n        /* \"#utility.yul\":6755:6756   */\n      dup3\n        /* \"#utility.yul\":6751:6760   */\n      sub\n        /* \"#utility.yul\":6743:6760   */\n      swap1\n      pop\n        /* \"#utility.yul\":6575:6766   */\n      swap3\n      swap2\n      pop\n      pop\n      jump\t// out\n        /* \"#utility.yul\":6772:7077   */\n    tag_157:\n        /* \"#utility.yul\":6812:6815   */\n      0x00\n        /* \"#utility.yul\":6831:6851   */\n      tag_270\n        /* \"#utility.yul\":6849:6850   */\n      dup3\n        /* \"#utility.yul\":6831:6851   */\n      tag_178\n      jump\t// in\n    tag_270:\n        /* \"#utility.yul\":6826:6851   */\n      swap2\n      pop\n        /* \"#utility.yul\":6865:6885   */\n      tag_271\n        /* \"#utility.yul\":6883:6884   */\n      dup4\n        /* \"#utility.yul\":6865:6885   */\n      tag_178\n      jump\t// in\n    tag_271:\n        /* \"#utility.yul\":6860:6885   */\n      swap3\n      pop\n        /* \"#utility.yul\":7019:7020   */\n      dup3\n        /* \"#utility.yul\":6951:7017   */\n      0xffffffffffffffffffffffffffffffffffffffffffffffffffffffffffffffff\n        /* \"#utility.yul\":6947:7021   */\n      sub\n        /* \"#utility.yul\":6944:6945   */\n      dup3\n        /* \"#utility.yul\":6941:7022   */\n      gt\n        /* \"#utility.yul\":6938:7045   */\n      iszero\n      tag_272\n      jumpi\n        /* \"#utility.yul\":7025:7043   */\n      tag_273\n      tag_186\n      jump\t// in\n    tag_273:\n        /* \"#utility.yul\":6938:7045   */\n    tag_272:\n        /* \"#utility.yul\":7069:7070   */\n      dup3\n        /* \"#utility.yul\":7066:7067   */\n      dup3\n        /* \"#utility.yul\":7062:7071   */\n      add\n        /* \"#utility.yul\":7055:7071   */\n      swap1\n      pop\n        /* \"#utility.yul\":6772:7077   */\n      swap3\n      swap2\n      pop\n      pop\n      jump\t// out\n        /* \"#utility.yul\":7083:7431   */\n    tag_161:\n        /* \"#utility.yul\":7123:7130   */\n      0x00\n        /* \"#utility.yul\":7146:7166   */\n      tag_275\n        /* \"#utility.yul\":7164:7165   */\n      dup3\n        /* \"#utility.yul\":7146:7166   */\n      tag_178\n      jump\t// in\n    tag_275:\n        /* \"#utility.yul\":7141:7166   */\n      swap2\n      pop\n        /* \"#utility.yul\":7180:7200   */\n      tag_276\n        /* \"#utility.yul\":7198:7199   */\n      dup4\n        /* \"#utility.yul\":7180:7200   */\n      tag_178\n      jump\t// in\n    tag_276:\n        /* \"#utility.yul\":7175:7200   */\n      swap3\n      pop\n        /* \"#utility.yul\":7368:7369   */\n      dup2\n        /* \"#utility.yul\":7300:7366   */\n      0xffffffffffffffffffffffffffffffffffffffffffffffffffffffffffffffff\n        /* \"#utility.yul\":7296:7370   */\n      div\n        /* \"#utility.yul\":7293:7294   */\n      dup4\n        /* \"#utility.yul\":7290:7371   */\n      gt\n        /* \"#utility.yul\":7285:7286   */\n      dup3\n        /* \"#utility.yul\":7278:7287   */\n      iszero\n        /* \"#utility.yul\":7271:7288   */\n      iszero\n        /* \"#utility.yul\":7267:7372   */\n      and\n        /* \"#utility.yul\":7264:7395   */\n      iszero\n      tag_277\n      jumpi\n        /* \"#utility.yul\":7375:7393   */\n      tag_278\n      tag_186\n      jump\t// in\n    tag_278:\n        /* \"#utility.yul\":7264:7395   */\n    tag_277:\n        /* \"#utility.yul\":7423:7424   */\n      dup3\n        /* \"#utility.yul\":7420:7421   */\n      dup3\n        /* \"#utility.yul\":7416:7425   */\n      mul\n        /* \"#utility.yul\":7405:7425   */\n      swap1\n      pop\n        /* \"#utility.yul\":7083:7431   */\n      swap3\n      swap2\n      pop\n      pop\n      jump\t// out\n        /* \"#utility.yul\":7437:7617   */\n    tag_187:\n        /* \"#utility.yul\":7485:7562   */\n      0x4e487b7100000000000000000000000000000000000000000000000000000000\n        /* \"#utility.yul\":7482:7483   */\n      0x00\n        /* \"#utility.yul\":7475:7563   */\n      mstore\n        /* \"#utility.yul\":7582:7586   */\n      0x12\n        /* \"#utility.yul\":7579:7580   */\n      0x04\n        /* \"#utility.yul\":7572:7587   */\n      mstore\n        /* \"#utility.yul\":7606:7610   */\n      0x24\n        /* \"#utility.yul\":7603:7604   */\n      0x00\n        /* \"#utility.yul\":7596:7611   */\n      revert\n        /* \"#utility.yul\":7623:7808   */\n    tag_164:\n        /* \"#utility.yul\":7663:7664   */\n      0x00\n        /* \"#utility.yul\":7680:7700   */\n      tag_281\n        /* \"#utility.yul\":7698:7699   */\n      dup3\n        /* \"#utility.yul\":7680:7700   */\n      tag_178\n      jump\t// in\n    tag_281:\n        /* \"#utility.yul\":7675:7700   */\n      swap2\n      pop\n        /* \"#utility.yul\":7714:7734   */\n      tag_282\n        /* \"#utility.yul\":7732:7733   */\n      dup4\n        /* \"#utility.yul\":7714:7734   */\n      tag_178\n      jump\t// in\n    tag_282:\n        /* \"#utility.yul\":7709:7734   */\n      swap3\n      pop\n        /* \"#utility.yul\":7753:7754   */\n      dup3\n        /* \"#utility.yul\":7743:7778   */\n      tag_283\n      jumpi\n        /* \"#utility.yul\":7758:7776   */\n      tag_284\n      tag_187\n      jump\t// in\n    tag_284:\n        /* \"#utility.yul\":7743:7778   */\n    tag_283:\n        /* \"#utility.yul\":7800:7801   */\n      dup3\n        /* \"#utility.yul\":7797:7798   */\n      dup3\n        /* \"#utility.yul\":7793:7802   */\n      div\n        /* \"#utility.yul\":7788:7802   */\n      swap1\n      pop\n        /* \"#utility.yul\":7623:7808   */\n      swap3\n      swap2\n      pop\n      pop\n      jump\t// out\n\n    auxdata: 0xa2646970667358221220dbaa1d2875f92036da7fba5a620467a8d88120c4014950a83bba3c3efb669e0c64736f6c634300080b0033\n}\n","bytecode":{"linkReferences":{},"object":"60806040523480156200001157600080fd5b506040518060400160405280600981526020017f44656d6f20436f696e0000000000000000000000000000000000000000000000815250600090805190602001906200005f92919062000188565b5060126002819055506040518060400160405280600281526020017f444300000000000000000000000000000000000000000000000000000000000081525060019080519060200190620000b592919062000188565b506212750042620000c7919062000271565b6003819055506224ea0042620000de919062000271565b6004819055504260058190555068056bc75e2d6310000060078190555033600860006101000a81548173ffffffffffffffffffffffffffffffffffffffff021916908373ffffffffffffffffffffffffffffffffffffffff160217905550600754600960003373ffffffffffffffffffffffffffffffffffffffff1673ffffffffffffffffffffffffffffffffffffffff1681526020019081526020016000208190555062000333565b8280546200019690620002fd565b90600052602060002090601f016020900481019282620001ba576000855562000206565b82601f10620001d557805160ff191683800117855562000206565b8280016001018555821562000206579182015b8281111562000205578251825591602001919060010190620001e8565b5b50905062000215919062000219565b5090565b5b80821115620002345760008160009055506001016200021a565b5090565b6000819050919050565b7f4e487b7100000000000000000000000000000000000000000000000000000000600052601160045260246000fd5b60006200027e8262000238565b91506200028b8362000238565b9250827fffffffffffffffffffffffffffffffffffffffffffffffffffffffffffffffff03821115620002c357620002c262000242565b5b828201905092915050565b7f4e487b7100000000000000000000000000000000000000000000000000000000600052602260045260246000fd5b600060028204905060018216806200031657607f821691505b602082108114156200032d576200032c620002ce565b5b50919050565b6113fb80620003436000396000f3fe6080604052600436106101095760003560e01c806340c65003116100955780639c3e0f3f116100645780639c3e0f3f14610371578063a9059cbb1461039c578063c9116b69146103d9578063d0febe4c14610404578063dd62ed3e1461040e57610109565b806340c65003146102b357806370a08231146102de57806395d89b411461031b5780639a8ca12c1461034657610109565b806323b872dd116100dc57806323b872dd146101cc57806326b85ee11461020957806327e235e314610234578063313ce56714610271578063380d831b1461029c57610109565b806306fdde031461010e578063095ea7b31461013957806318160ddd146101765780631f88cb60146101a1575b600080fd5b34801561011a57600080fd5b5061012361044b565b6040516101309190610f63565b60405180910390f35b34801561014557600080fd5b50610160600480360381019061015b919061101e565b6104d9565b60405161016d9190611079565b60405180910390f35b34801561018257600080fd5b5061018b6105cb565b60405161019891906110a3565b60405180910390f35b3480156101ad57600080fd5b506101b66105d5565b6040516101c391906110a3565b60405180910390f35b3480156101d857600080fd5b506101f360048036038101906101ee91906110be565b6105db565b6040516102009190611079565b60405180910390f35b34801561021557600080fd5b5061021e610886565b60405161022b9190611120565b60405180910390f35b34801561024057600080fd5b5061025b6004803603810190610256919061113b565b610893565b60405161026891906110a3565b60405180910390f35b34801561027d57600080fd5b506102866108ab565b60405161029391906110a3565b60405180910390f35b3480156102a857600080fd5b506102b16108b1565b005b3480156102bf57600080fd5b506102c8610976565b6040516102d591906110a3565b60405180910390f35b3480156102ea57600080fd5b506103056004803603810190610300919061113b565b61097c565b60405161031291906110a3565b60405180910390f35b34801561032757600080fd5b506103306109c5565b60405161033d9190610f63565b60405180910390f35b34801561035257600080fd5b5061035b610a53565b60405161036891906110a3565b60405180910390f35b34801561037d57600080fd5b50610386610a59565b60405161039391906110a3565b60405180910390f35b3480156103a857600080fd5b506103c360048036038101906103be919061101e565b610a5f565b6040516103d09190611079565b60405180910390f35b3480156103e557600080fd5b506103ee610bfa565b6040516103fb91906110a3565b60405180910390f35b61040c610c41565b005b34801561041a57600080fd5b5061043560048036038101906104309190611168565b610dc5565b60405161044291906110a3565b60405180910390f35b60008054610458906111d7565b80601f0160208091040260200160405190810160405280929190818152602001828054610484906111d7565b80156104d15780601f106104a6576101008083540402835291602001916104d1565b820191906000526020600020905b8154815290600101906020018083116104b457829003601f168201915b505050505081565b600081600a60003373ffffffffffffffffffffffffffffffffffffffff1673ffffffffffffffffffffffffffffffffffffffff16815260200190815260200160002060008573ffffffffffffffffffffffffffffffffffffffff1673ffffffffffffffffffffffffffffffffffffffff168152602001908152602001600020819055508273ffffffffffffffffffffffffffffffffffffffff163373ffffffffffffffffffffffffffffffffffffffff167f8c5be1e5ebec7d5bd14f71427d1e84f3dd0314c0f7b2291e5b200ac8c7c3b925846040516105b991906110a3565b60405180910390a36001905092915050565b6000600754905090565b60065481565b600061062f82600960008773ffffffffffffffffffffffffffffffffffffffff1673ffffffffffffffffffffffffffffffffffffffff16815260200190815260200160002054610e4c90919063ffffffff16565b600960008673ffffffffffffffffffffffffffffffffffffffff1673ffffffffffffffffffffffffffffffffffffffff1681526020019081526020016000208190555061070182600a60008773ffffffffffffffffffffffffffffffffffffffff1673ffffffffffffffffffffffffffffffffffffffff16815260200190815260200160002060003373ffffffffffffffffffffffffffffffffffffffff1673ffffffffffffffffffffffffffffffffffffffff16815260200190815260200160002054610e4c90919063ffffffff16565b600a60008673ffffffffffffffffffffffffffffffffffffffff1673ffffffffffffffffffffffffffffffffffffffff16815260200190815260200160002060003373ffffffffffffffffffffffffffffffffffffffff1673ffffffffffffffffffffffffffffffffffffffff168152602001908152602001600020819055506107d382600960008673ffffffffffffffffffffffffffffffffffffffff1673ffffffffffffffffffffffffffffffffffffffff16815260200190815260200160002054610e6f90919063ffffffff16565b600960008573ffffffffffffffffffffffffffffffffffffffff1673ffffffffffffffffffffffffffffffffffffffff168152602001908152602001600020819055508273ffffffffffffffffffffffffffffffffffffffff168473ffffffffffffffffffffffffffffffffffffffff167fddf252ad1be2c89b69c2b068fc378daa952ba7f163c4a11628f55a4df523b3ef8460405161087391906110a3565b60405180910390a3600190509392505050565b6000803390508091505090565b60096020528060005260406000206000915090505481565b60025481565b600860009054906101000a900473ffffffffffffffffffffffffffffffffffffffff1673ffffffffffffffffffffffffffffffffffffffff163373ffffffffffffffffffffffffffffffffffffffff161461090b57600080fd5b600860009054906101000a900473ffffffffffffffffffffffffffffffffffffffff1673ffffffffffffffffffffffffffffffffffffffff166108fc479081150290604051600060405180830381858888f19350505050158015610973573d6000803e3d6000fd5b50565b60035481565b6000600960008373ffffffffffffffffffffffffffffffffffffffff1673ffffffffffffffffffffffffffffffffffffffff168152602001908152602001600020549050919050565b600180546109d2906111d7565b80601f01602080910402602001604051908101604052809291908181526020018280546109fe906111d7565b8015610a4b5780601f10610a2057610100808354040283529160200191610a4b565b820191906000526020600020905b815481529060010190602001808311610a2e57829003601f168201915b505050505081565b60045481565b60055481565b6000610ab382600960003373ffffffffffffffffffffffffffffffffffffffff1673ffffffffffffffffffffffffffffffffffffffff16815260200190815260200160002054610e4c90919063ffffffff16565b600960003373ffffffffffffffffffffffffffffffffffffffff1673ffffffffffffffffffffffffffffffffffffffff16815260200190815260200160002081905550610b4882600960008673ffffffffffffffffffffffffffffffffffffffff1673ffffffffffffffffffffffffffffffffffffffff16815260200190815260200160002054610e6f90919063ffffffff16565b600960008573ffffffffffffffffffffffffffffffffffffffff1673ffffffffffffffffffffffffffffffffffffffff168152602001908152602001600020819055508273ffffffffffffffffffffffffffffffffffffffff163373ffffffffffffffffffffffffffffffffffffffff167fddf252ad1be2c89b69c2b068fc378daa952ba7f163c4a11628f55a4df523b3ef84604051610be891906110a3565b60405180910390a36001905092915050565b6000600960003373ffffffffffffffffffffffffffffffffffffffff1673ffffffffffffffffffffffffffffffffffffffff16815260200190815260200160002054905090565b60006003544211610c6757610c60607d34610e9290919063ffffffff16565b9050610c7e565b610c7b606434610e9290919063ffffffff16565b90505b610c92606434610e9290919063ffffffff16565b9050610ce681600960003373ffffffffffffffffffffffffffffffffffffffff1673ffffffffffffffffffffffffffffffffffffffff16815260200190815260200160002054610e6f90919063ffffffff16565b600960003373ffffffffffffffffffffffffffffffffffffffff1673ffffffffffffffffffffffffffffffffffffffff16815260200190815260200160002081905550610d3e81600754610e6f90919063ffffffff16565b6007819055503373ffffffffffffffffffffffffffffffffffffffff16600073ffffffffffffffffffffffffffffffffffffffff167fddf252ad1be2c89b69c2b068fc378daa952ba7f163c4a11628f55a4df523b3ef83604051610da291906110a3565b60405180910390a360066000815480929190610dbd90611238565b919050555050565b6000600a60008473ffffffffffffffffffffffffffffffffffffffff1673ffffffffffffffffffffffffffffffffffffffff16815260200190815260200160002060008373ffffffffffffffffffffffffffffffffffffffff1673ffffffffffffffffffffffffffffffffffffffff16815260200190815260200160002054905092915050565b600082821115610e5b57600080fd5b8183610e679190611281565b905092915050565b60008183610e7d91906112b5565b905082811015610e8c57600080fd5b92915050565b60008183610ea0919061130b565b90506000831480610ebb5750818382610eb99190611394565b145b610ec457600080fd5b92915050565b600081519050919050565b600082825260208201905092915050565b60005b83811015610f04578082015181840152602081019050610ee9565b83811115610f13576000848401525b50505050565b6000601f19601f8301169050919050565b6000610f3582610eca565b610f3f8185610ed5565b9350610f4f818560208601610ee6565b610f5881610f19565b840191505092915050565b60006020820190508181036000830152610f7d8184610f2a565b905092915050565b600080fd5b600073ffffffffffffffffffffffffffffffffffffffff82169050919050565b6000610fb582610f8a565b9050919050565b610fc581610faa565b8114610fd057600080fd5b50565b600081359050610fe281610fbc565b92915050565b6000819050919050565b610ffb81610fe8565b811461100657600080fd5b50565b60008135905061101881610ff2565b92915050565b6000806040838503121561103557611034610f85565b5b600061104385828601610fd3565b925050602061105485828601611009565b9150509250929050565b60008115159050919050565b6110738161105e565b82525050565b600060208201905061108e600083018461106a565b92915050565b61109d81610fe8565b82525050565b60006020820190506110b86000830184611094565b92915050565b6000806000606084860312156110d7576110d6610f85565b5b60006110e586828701610fd3565b93505060206110f686828701610fd3565b925050604061110786828701611009565b9150509250925092565b61111a81610faa565b82525050565b60006020820190506111356000830184611111565b92915050565b60006020828403121561115157611150610f85565b5b600061115f84828501610fd3565b91505092915050565b6000806040838503121561117f5761117e610f85565b5b600061118d85828601610fd3565b925050602061119e85828601610fd3565b9150509250929050565b7f4e487b7100000000000000000000000000000000000000000000000000000000600052602260045260246000fd5b600060028204905060018216806111ef57607f821691505b60208210811415611203576112026111a8565b5b50919050565b7f4e487b7100000000000000000000000000000000000000000000000000000000600052601160045260246000fd5b600061124382610fe8565b91507fffffffffffffffffffffffffffffffffffffffffffffffffffffffffffffffff82141561127657611275611209565b5b600182019050919050565b600061128c82610fe8565b915061129783610fe8565b9250828210156112aa576112a9611209565b5b828203905092915050565b60006112c082610fe8565b91506112cb83610fe8565b9250827fffffffffffffffffffffffffffffffffffffffffffffffffffffffffffffffff03821115611300576112ff611209565b5b828201905092915050565b600061131682610fe8565b915061132183610fe8565b9250817fffffffffffffffffffffffffffffffffffffffffffffffffffffffffffffffff048311821515161561135a57611359611209565b5b828202905092915050565b7f4e487b7100000000000000000000000000000000000000000000000000000000600052601260045260246000fd5b600061139f82610fe8565b91506113aa83610fe8565b9250826113ba576113b9611365565b5b82820490509291505056fea2646970667358221220dbaa1d2875f92036da7fba5a620467a8d88120c4014950a83bba3c3efb669e0c64736f6c634300080b0033","opcodes":"PUSH1 0x80 PUSH1 0x40 MSTORE CALLVALUE DUP1 ISZERO PUSH3 0x11 JUMPI PUSH1 0x0 DUP1 REVERT JUMPDEST POP PUSH1 0x40 MLOAD DUP1 PUSH1 0x40 ADD PUSH1 0x40 MSTORE DUP1 PUSH1 0x9 DUP2 MSTORE PUSH1 0x20 ADD PUSH32 0x44656D6F20436F696E0000000000000000000000000000000000000000000000 DUP2 MSTORE POP PUSH1 0x0 SWAP1 DUP1 MLOAD SWAP1 PUSH1 0x20 ADD SWAP1 PUSH3 0x5F SWAP3 SWAP2 SWAP1 PUSH3 0x188 JUMP JUMPDEST POP PUSH1 0x12 PUSH1 0x2 DUP2 SWAP1 SSTORE POP PUSH1 0x40 MLOAD DUP1 PUSH1 0x40 ADD PUSH1 0x40 MSTORE DUP1 PUSH1 0x2 DUP2 MSTORE PUSH1 0x20 ADD PUSH32 0x4443000000000000000000000000000000000000000000000000000000000000 DUP2 MSTORE POP PUSH1 0x1 SWAP1 DUP1 MLOAD SWAP1 PUSH1 0x20 ADD SWAP1 PUSH3 0xB5 SWAP3 SWAP2 SWAP1 PUSH3 0x188 JUMP JUMPDEST POP PUSH3 0x127500 TIMESTAMP PUSH3 0xC7 SWAP2 SWAP1 PUSH3 0x271 JUMP JUMPDEST PUSH1 0x3 DUP2 SWAP1 SSTORE POP PUSH3 0x24EA00 TIMESTAMP PUSH3 0xDE SWAP2 SWAP1 PUSH3 0x271 JUMP JUMPDEST PUSH1 0x4 DUP2 SWAP1 SSTORE POP TIMESTAMP PUSH1 0x5 DUP2 SWAP1 SSTORE POP PUSH9 0x56BC75E2D63100000 PUSH1 0x7 DUP2 SWAP1 SSTORE POP CALLER PUSH1 0x8 PUSH1 0x0 PUSH2 0x100 EXP DUP2 SLOAD DUP2 PUSH20 0xFFFFFFFFFFFFFFFFFFFFFFFFFFFFFFFFFFFFFFFF MUL NOT AND SWAP1 DUP4 PUSH20 0xFFFFFFFFFFFFFFFFFFFFFFFFFFFFFFFFFFFFFFFF AND MUL OR SWAP1 SSTORE POP PUSH1 0x7 SLOAD PUSH1 0x9 PUSH1 0x0 CALLER PUSH20 0xFFFFFFFFFFFFFFFFFFFFFFFFFFFFFFFFFFFFFFFF AND PUSH20 0xFFFFFFFFFFFFFFFFFFFFFFFFFFFFFFFFFFFFFFFF AND DUP2 MSTORE PUSH1 0x20 ADD SWAP1 DUP2 MSTORE PUSH1 0x20 ADD PUSH1 0x0 KECCAK256 DUP2 SWAP1 SSTORE POP PUSH3 0x333 JUMP JUMPDEST DUP3 DUP1 SLOAD PUSH3 0x196 SWAP1 PUSH3 0x2FD JUMP JUMPDEST SWAP1 PUSH1 0x0 MSTORE PUSH1 0x20 PUSH1 0x0 KECCAK256 SWAP1 PUSH1 0x1F ADD PUSH1 0x20 SWAP1 DIV DUP2 ADD SWAP3 DUP3 PUSH3 0x1BA JUMPI PUSH1 0x0 DUP6 SSTORE PUSH3 0x206 JUMP JUMPDEST DUP3 PUSH1 0x1F LT PUSH3 0x1D5 JUMPI DUP1 MLOAD PUSH1 0xFF NOT AND DUP4 DUP1 ADD OR DUP6 SSTORE PUSH3 0x206 JUMP JUMPDEST DUP3 DUP1 ADD PUSH1 0x1 ADD DUP6 SSTORE DUP3 ISZERO PUSH3 0x206 JUMPI SWAP2 DUP3 ADD JUMPDEST DUP3 DUP2 GT ISZERO PUSH3 0x205 JUMPI DUP3 MLOAD DUP3 SSTORE SWAP2 PUSH1 0x20 ADD SWAP2 SWAP1 PUSH1 0x1 ADD SWAP1 PUSH3 0x1E8 JUMP JUMPDEST JUMPDEST POP SWAP1 POP PUSH3 0x215 SWAP2 SWAP1 PUSH3 0x219 JUMP JUMPDEST POP SWAP1 JUMP JUMPDEST JUMPDEST DUP1 DUP3 GT ISZERO PUSH3 0x234 JUMPI PUSH1 0x0 DUP2 PUSH1 0x0 SWAP1 SSTORE POP PUSH1 0x1 ADD PUSH3 0x21A JUMP JUMPDEST POP SWAP1 JUMP JUMPDEST PUSH1 0x0 DUP2 SWAP1 POP SWAP2 SWAP1 POP JUMP JUMPDEST PUSH32 0x4E487B7100000000000000000000000000000000000000000000000000000000 PUSH1 0x0 MSTORE PUSH1 0x11 PUSH1 0x4 MSTORE PUSH1 0x24 PUSH1 0x0 REVERT JUMPDEST PUSH1 0x0 PUSH3 0x27E DUP3 PUSH3 0x238 JUMP JUMPDEST SWAP2 POP PUSH3 0x28B DUP4 PUSH3 0x238 JUMP JUMPDEST SWAP3 POP DUP3 PUSH32 0xFFFFFFFFFFFFFFFFFFFFFFFFFFFFFFFFFFFFFFFFFFFFFFFFFFFFFFFFFFFFFFFF SUB DUP3 GT ISZERO PUSH3 0x2C3 JUMPI PUSH3 0x2C2 PUSH3 0x242 JUMP JUMPDEST JUMPDEST DUP3 DUP3 ADD SWAP1 POP SWAP3 SWAP2 POP POP JUMP JUMPDEST PUSH32 0x4E487B7100000000000000000000000000000000000000000000000000000000 PUSH1 0x0 MSTORE PUSH1 0x22 PUSH1 0x4 MSTORE PUSH1 0x24 PUSH1 0x0 REVERT JUMPDEST PUSH1 0x0 PUSH1 0x2 DUP3 DIV SWAP1 POP PUSH1 0x1 DUP3 AND DUP1 PUSH3 0x316 JUMPI PUSH1 0x7F DUP3 AND SWAP2 POP JUMPDEST PUSH1 0x20 DUP3 LT DUP2 EQ ISZERO PUSH3 0x32D JUMPI PUSH3 0x32C PUSH3 0x2CE JUMP JUMPDEST JUMPDEST POP SWAP2 SWAP1 POP JUMP JUMPDEST PUSH2 0x13FB DUP1 PUSH3 0x343 PUSH1 0x0 CODECOPY PUSH1 0x0 RETURN INVALID PUSH1 0x80 PUSH1 0x40 MSTORE PUSH1 0x4 CALLDATASIZE LT PUSH2 0x109 JUMPI PUSH1 0x0 CALLDATALOAD PUSH1 0xE0 SHR DUP1 PUSH4 0x40C65003 GT PUSH2 0x95 JUMPI DUP1 PUSH4 0x9C3E0F3F GT PUSH2 0x64 JUMPI DUP1 PUSH4 0x9C3E0F3F EQ PUSH2 0x371 JUMPI DUP1 PUSH4 0xA9059CBB EQ PUSH2 0x39C JUMPI DUP1 PUSH4 0xC9116B69 EQ PUSH2 0x3D9 JUMPI DUP1 PUSH4 0xD0FEBE4C EQ PUSH2 0x404 JUMPI DUP1 PUSH4 0xDD62ED3E EQ PUSH2 0x40E JUMPI PUSH2 0x109 JUMP JUMPDEST DUP1 PUSH4 0x40C65003 EQ PUSH2 0x2B3 JUMPI DUP1 PUSH4 0x70A08231 EQ PUSH2 0x2DE JUMPI DUP1 PUSH4 0x95D89B41 EQ PUSH2 0x31B JUMPI DUP1 PUSH4 0x9A8CA12C EQ PUSH2 0x346 JUMPI PUSH2 0x109 JUMP JUMPDEST DUP1 PUSH4 0x23B872DD GT PUSH2 0xDC JUMPI DUP1 PUSH4 0x23B872DD EQ PUSH2 0x1CC JUMPI DUP1 PUSH4 0x26B85EE1 EQ PUSH2 0x209 JUMPI DUP1 PUSH4 0x27E235E3 EQ PUSH2 0x234 JUMPI DUP1 PUSH4 0x313CE567 EQ PUSH2 0x271 JUMPI DUP1 PUSH4 0x380D831B EQ PUSH2 0x29C JUMPI PUSH2 0x109 JUMP JUMPDEST DUP1 PUSH4 0x6FDDE03 EQ PUSH2 0x10E JUMPI DUP1 PUSH4 0x95EA7B3 EQ PUSH2 0x139 JUMPI DUP1 PUSH4 0x18160DDD EQ PUSH2 0x176 JUMPI DUP1 PUSH4 0x1F88CB60 EQ PUSH2 0x1A1 JUMPI JUMPDEST PUSH1 0x0 DUP1 REVERT JUMPDEST CALLVALUE DUP1 ISZERO PUSH2 0x11A JUMPI PUSH1 0x0 DUP1 REVERT JUMPDEST POP PUSH2 0x123 PUSH2 0x44B JUMP JUMPDEST PUSH1 0x40 MLOAD PUSH2 0x130 SWAP2 SWAP1 PUSH2 0xF63 JUMP JUMPDEST PUSH1 0x40 MLOAD DUP1 SWAP2 SUB SWAP1 RETURN JUMPDEST CALLVALUE DUP1 ISZERO PUSH2 0x145 JUMPI PUSH1 0x0 DUP1 REVERT JUMPDEST POP PUSH2 0x160 PUSH1 0x4 DUP1 CALLDATASIZE SUB DUP2 ADD SWAP1 PUSH2 0x15B SWAP2 SWAP1 PUSH2 0x101E JUMP JUMPDEST PUSH2 0x4D9 JUMP JUMPDEST PUSH1 0x40 MLOAD PUSH2 0x16D SWAP2 SWAP1 PUSH2 0x1079 JUMP JUMPDEST PUSH1 0x40 MLOAD DUP1 SWAP2 SUB SWAP1 RETURN JUMPDEST CALLVALUE DUP1 ISZERO PUSH2 0x182 JUMPI PUSH1 0x0 DUP1 REVERT JUMPDEST POP PUSH2 0x18B PUSH2 0x5CB JUMP JUMPDEST PUSH1 0x40 MLOAD PUSH2 0x198 SWAP2 SWAP1 PUSH2 0x10A3 JUMP JUMPDEST PUSH1 0x40 MLOAD DUP1 SWAP2 SUB SWAP1 RETURN JUMPDEST CALLVALUE DUP1 ISZERO PUSH2 0x1AD JUMPI PUSH1 0x0 DUP1 REVERT JUMPDEST POP PUSH2 0x1B6 PUSH2 0x5D5 JUMP JUMPDEST PUSH1 0x40 MLOAD PUSH2 0x1C3 SWAP2 SWAP1 PUSH2 0x10A3 JUMP JUMPDEST PUSH1 0x40 MLOAD DUP1 SWAP2 SUB SWAP1 RETURN JUMPDEST CALLVALUE DUP1 ISZERO PUSH2 0x1D8 JUMPI PUSH1 0x0 DUP1 REVERT JUMPDEST POP PUSH2 0x1F3 PUSH1 0x4 DUP1 CALLDATASIZE SUB DUP2 ADD SWAP1 PUSH2 0x1EE SWAP2 SWAP1 PUSH2 0x10BE JUMP JUMPDEST PUSH2 0x5DB JUMP JUMPDEST PUSH1 0x40 MLOAD PUSH2 0x200 SWAP2 SWAP1 PUSH2 0x1079 JUMP JUMPDEST PUSH1 0x40 MLOAD DUP1 SWAP2 SUB SWAP1 RETURN JUMPDEST CALLVALUE DUP1 ISZERO PUSH2 0x215 JUMPI PUSH1 0x0 DUP1 REVERT JUMPDEST POP PUSH2 0x21E PUSH2 0x886 JUMP JUMPDEST PUSH1 0x40 MLOAD PUSH2 0x22B SWAP2 SWAP1 PUSH2 0x1120 JUMP JUMPDEST PUSH1 0x40 MLOAD DUP1 SWAP2 SUB SWAP1 RETURN JUMPDEST CALLVALUE DUP1 ISZERO PUSH2 0x240 JUMPI PUSH1 0x0 DUP1 REVERT JUMPDEST POP PUSH2 0x25B PUSH1 0x4 DUP1 CALLDATASIZE SUB DUP2 ADD SWAP1 PUSH2 0x256 SWAP2 SWAP1 PUSH2 0x113B JUMP JUMPDEST PUSH2 0x893 JUMP JUMPDEST PUSH1 0x40 MLOAD PUSH2 0x268 SWAP2 SWAP1 PUSH2 0x10A3 JUMP JUMPDEST PUSH1 0x40 MLOAD DUP1 SWAP2 SUB SWAP1 RETURN JUMPDEST CALLVALUE DUP1 ISZERO PUSH2 0x27D JUMPI PUSH1 0x0 DUP1 REVERT JUMPDEST POP PUSH2 0x286 PUSH2 0x8AB JUMP JUMPDEST PUSH1 0x40 MLOAD PUSH2 0x293 SWAP2 SWAP1 PUSH2 0x10A3 JUMP JUMPDEST PUSH1 0x40 MLOAD DUP1 SWAP2 SUB SWAP1 RETURN JUMPDEST CALLVALUE DUP1 ISZERO PUSH2 0x2A8 JUMPI PUSH1 0x0 DUP1 REVERT JUMPDEST POP PUSH2 0x2B1 PUSH2 0x8B1 JUMP JUMPDEST STOP JUMPDEST CALLVALUE DUP1 ISZERO PUSH2 0x2BF JUMPI PUSH1 0x0 DUP1 REVERT JUMPDEST POP PUSH2 0x2C8 PUSH2 0x976 JUMP JUMPDEST PUSH1 0x40 MLOAD PUSH2 0x2D5 SWAP2 SWAP1 PUSH2 0x10A3 JUMP JUMPDEST PUSH1 0x40 MLOAD DUP1 SWAP2 SUB SWAP1 RETURN JUMPDEST CALLVALUE DUP1 ISZERO PUSH2 0x2EA JUMPI PUSH1 0x0 DUP1 REVERT JUMPDEST POP PUSH2 0x305 PUSH1 0x4 DUP1 CALLDATASIZE SUB DUP2 ADD SWAP1 PUSH2 0x300 SWAP2 SWAP1 PUSH2 0x113B JUMP JUMPDEST PUSH2 0x97C JUMP JUMPDEST PUSH1 0x40 MLOAD PUSH2 0x312 SWAP2 SWAP1 PUSH2 0x10A3 JUMP JUMPDEST PUSH1 0x40 MLOAD DUP1 SWAP2 SUB SWAP1 RETURN JUMPDEST CALLVALUE DUP1 ISZERO PUSH2 0x327 JUMPI PUSH1 0x0 DUP1 REVERT JUMPDEST POP PUSH2 0x330 PUSH2 0x9C5 JUMP JUMPDEST PUSH1 0x40 MLOAD PUSH2 0x33D SWAP2 SWAP1 PUSH2 0xF63 JUMP JUMPDEST PUSH1 0x40 MLOAD DUP1 SWAP2 SUB SWAP1 RETURN JUMPDEST CALLVALUE DUP1 ISZERO PUSH2 0x352 JUMPI PUSH1 0x0 DUP1 REVERT JUMPDEST POP PUSH2 0x35B PUSH2 0xA53 JUMP JUMPDEST PUSH1 0x40 MLOAD PUSH2 0x368 SWAP2 SWAP1 PUSH2 0x10A3 JUMP JUMPDEST PUSH1 0x40 MLOAD DUP1 SWAP2 SUB SWAP1 RETURN JUMPDEST CALLVALUE DUP1 ISZERO PUSH2 0x37D JUMPI PUSH1 0x0 DUP1 REVERT JUMPDEST POP PUSH2 0x386 PUSH2 0xA59 JUMP JUMPDEST PUSH1 0x40 MLOAD PUSH2 0x393 SWAP2 SWAP1 PUSH2 0x10A3 JUMP JUMPDEST PUSH1 0x40 MLOAD DUP1 SWAP2 SUB SWAP1 RETURN JUMPDEST CALLVALUE DUP1 ISZERO PUSH2 0x3A8 JUMPI PUSH1 0x0 DUP1 REVERT JUMPDEST POP PUSH2 0x3C3 PUSH1 0x4 DUP1 CALLDATASIZE SUB DUP2 ADD SWAP1 PUSH2 0x3BE SWAP2 SWAP1 PUSH2 0x101E JUMP JUMPDEST PUSH2 0xA5F JUMP JUMPDEST PUSH1 0x40 MLOAD PUSH2 0x3D0 SWAP2 SWAP1 PUSH2 0x1079 JUMP JUMPDEST PUSH1 0x40 MLOAD DUP1 SWAP2 SUB SWAP1 RETURN JUMPDEST CALLVALUE DUP1 ISZERO PUSH2 0x3E5 JUMPI PUSH1 0x0 DUP1 REVERT JUMPDEST POP PUSH2 0x3EE PUSH2 0xBFA JUMP JUMPDEST PUSH1 0x40 MLOAD PUSH2 0x3FB SWAP2 SWAP1 PUSH2 0x10A3 JUMP JUMPDEST PUSH1 0x40 MLOAD DUP1 SWAP2 SUB SWAP1 RETURN JUMPDEST PUSH2 0x40C PUSH2 0xC41 JUMP JUMPDEST STOP JUMPDEST CALLVALUE DUP1 ISZERO PUSH2 0x41A JUMPI PUSH1 0x0 DUP1 REVERT JUMPDEST POP PUSH2 0x435 PUSH1 0x4 DUP1 CALLDATASIZE SUB DUP2 ADD SWAP1 PUSH2 0x430 SWAP2 SWAP1 PUSH2 0x1168 JUMP JUMPDEST PUSH2 0xDC5 JUMP JUMPDEST PUSH1 0x40 MLOAD PUSH2 0x442 SWAP2 SWAP1 PUSH2 0x10A3 JUMP JUMPDEST PUSH1 0x40 MLOAD DUP1 SWAP2 SUB SWAP1 RETURN JUMPDEST PUSH1 0x0 DUP1 SLOAD PUSH2 0x458 SWAP1 PUSH2 0x11D7 JUMP JUMPDEST DUP1 PUSH1 0x1F ADD PUSH1 0x20 DUP1 SWAP2 DIV MUL PUSH1 0x20 ADD PUSH1 0x40 MLOAD SWAP1 DUP2 ADD PUSH1 0x40 MSTORE DUP1 SWAP3 SWAP2 SWAP1 DUP2 DUP2 MSTORE PUSH1 0x20 ADD DUP3 DUP1 SLOAD PUSH2 0x484 SWAP1 PUSH2 0x11D7 JUMP JUMPDEST DUP1 ISZERO PUSH2 0x4D1 JUMPI DUP1 PUSH1 0x1F LT PUSH2 0x4A6 JUMPI PUSH2 0x100 DUP1 DUP4 SLOAD DIV MUL DUP4 MSTORE SWAP2 PUSH1 0x20 ADD SWAP2 PUSH2 0x4D1 JUMP JUMPDEST DUP3 ADD SWAP2 SWAP1 PUSH1 0x0 MSTORE PUSH1 0x20 PUSH1 0x0 KECCAK256 SWAP1 JUMPDEST DUP2 SLOAD DUP2 MSTORE SWAP1 PUSH1 0x1 ADD SWAP1 PUSH1 0x20 ADD DUP1 DUP4 GT PUSH2 0x4B4 JUMPI DUP3 SWAP1 SUB PUSH1 0x1F AND DUP3 ADD SWAP2 JUMPDEST POP POP POP POP POP DUP2 JUMP JUMPDEST PUSH1 0x0 DUP2 PUSH1 0xA PUSH1 0x0 CALLER PUSH20 0xFFFFFFFFFFFFFFFFFFFFFFFFFFFFFFFFFFFFFFFF AND PUSH20 0xFFFFFFFFFFFFFFFFFFFFFFFFFFFFFFFFFFFFFFFF AND DUP2 MSTORE PUSH1 0x20 ADD SWAP1 DUP2 MSTORE PUSH1 0x20 ADD PUSH1 0x0 KECCAK256 PUSH1 0x0 DUP6 PUSH20 0xFFFFFFFFFFFFFFFFFFFFFFFFFFFFFFFFFFFFFFFF AND PUSH20 0xFFFFFFFFFFFFFFFFFFFFFFFFFFFFFFFFFFFFFFFF AND DUP2 MSTORE PUSH1 0x20 ADD SWAP1 DUP2 MSTORE PUSH1 0x20 ADD PUSH1 0x0 KECCAK256 DUP2 SWAP1 SSTORE POP DUP3 PUSH20 0xFFFFFFFFFFFFFFFFFFFFFFFFFFFFFFFFFFFFFFFF AND CALLER PUSH20 0xFFFFFFFFFFFFFFFFFFFFFFFFFFFFFFFFFFFFFFFF AND PUSH32 0x8C5BE1E5EBEC7D5BD14F71427D1E84F3DD0314C0F7B2291E5B200AC8C7C3B925 DUP5 PUSH1 0x40 MLOAD PUSH2 0x5B9 SWAP2 SWAP1 PUSH2 0x10A3 JUMP JUMPDEST PUSH1 0x40 MLOAD DUP1 SWAP2 SUB SWAP1 LOG3 PUSH1 0x1 SWAP1 POP SWAP3 SWAP2 POP POP JUMP JUMPDEST PUSH1 0x0 PUSH1 0x7 SLOAD SWAP1 POP SWAP1 JUMP JUMPDEST PUSH1 0x6 SLOAD DUP2 JUMP JUMPDEST PUSH1 0x0 PUSH2 0x62F DUP3 PUSH1 0x9 PUSH1 0x0 DUP8 PUSH20 0xFFFFFFFFFFFFFFFFFFFFFFFFFFFFFFFFFFFFFFFF AND PUSH20 0xFFFFFFFFFFFFFFFFFFFFFFFFFFFFFFFFFFFFFFFF AND DUP2 MSTORE PUSH1 0x20 ADD SWAP1 DUP2 MSTORE PUSH1 0x20 ADD PUSH1 0x0 KECCAK256 SLOAD PUSH2 0xE4C SWAP1 SWAP2 SWAP1 PUSH4 0xFFFFFFFF AND JUMP JUMPDEST PUSH1 0x9 PUSH1 0x0 DUP7 PUSH20 0xFFFFFFFFFFFFFFFFFFFFFFFFFFFFFFFFFFFFFFFF AND PUSH20 0xFFFFFFFFFFFFFFFFFFFFFFFFFFFFFFFFFFFFFFFF AND DUP2 MSTORE PUSH1 0x20 ADD SWAP1 DUP2 MSTORE PUSH1 0x20 ADD PUSH1 0x0 KECCAK256 DUP2 SWAP1 SSTORE POP PUSH2 0x701 DUP3 PUSH1 0xA PUSH1 0x0 DUP8 PUSH20 0xFFFFFFFFFFFFFFFFFFFFFFFFFFFFFFFFFFFFFFFF AND PUSH20 0xFFFFFFFFFFFFFFFFFFFFFFFFFFFFFFFFFFFFFFFF AND DUP2 MSTORE PUSH1 0x20 ADD SWAP1 DUP2 MSTORE PUSH1 0x20 ADD PUSH1 0x0 KECCAK256 PUSH1 0x0 CALLER PUSH20 0xFFFFFFFFFFFFFFFFFFFFFFFFFFFFFFFFFFFFFFFF AND PUSH20 0xFFFFFFFFFFFFFFFFFFFFFFFFFFFFFFFFFFFFFFFF AND DUP2 MSTORE PUSH1 0x20 ADD SWAP1 DUP2 MSTORE PUSH1 0x20 ADD PUSH1 0x0 KECCAK256 SLOAD PUSH2 0xE4C SWAP1 SWAP2 SWAP1 PUSH4 0xFFFFFFFF AND JUMP JUMPDEST PUSH1 0xA PUSH1 0x0 DUP7 PUSH20 0xFFFFFFFFFFFFFFFFFFFFFFFFFFFFFFFFFFFFFFFF AND PUSH20 0xFFFFFFFFFFFFFFFFFFFFFFFFFFFFFFFFFFFFFFFF AND DUP2 MSTORE PUSH1 0x20 ADD SWAP1 DUP2 MSTORE PUSH1 0x20 ADD PUSH1 0x0 KECCAK256 PUSH1 0x0 CALLER PUSH20 0xFFFFFFFFFFFFFFFFFFFFFFFFFFFFFFFFFFFFFFFF AND PUSH20 0xFFFFFFFFFFFFFFFFFFFFFFFFFFFFFFFFFFFFFFFF AND DUP2 MSTORE PUSH1 0x20 ADD SWAP1 DUP2 MSTORE PUSH1 0x20 ADD PUSH1 0x0 KECCAK256 DUP2 SWAP1 SSTORE POP PUSH2 0x7D3 DUP3 PUSH1 0x9 PUSH1 0x0 DUP7 PUSH20 0xFFFFFFFFFFFFFFFFFFFFFFFFFFFFFFFFFFFFFFFF AND PUSH20 0xFFFFFFFFFFFFFFFFFFFFFFFFFFFFFFFFFFFFFFFF AND DUP2 MSTORE PUSH1 0x20 ADD SWAP1 DUP2 MSTORE PUSH1 0x20 ADD PUSH1 0x0 KECCAK256 SLOAD PUSH2 0xE6F SWAP1 SWAP2 SWAP1 PUSH4 0xFFFFFFFF AND JUMP JUMPDEST PUSH1 0x9 PUSH1 0x0 DUP6 PUSH20 0xFFFFFFFFFFFFFFFFFFFFFFFFFFFFFFFFFFFFFFFF AND PUSH20 0xFFFFFFFFFFFFFFFFFFFFFFFFFFFFFFFFFFFFFFFF AND DUP2 MSTORE PUSH1 0x20 ADD SWAP1 DUP2 MSTORE PUSH1 0x20 ADD PUSH1 0x0 KECCAK256 DUP2 SWAP1 SSTORE POP DUP3 PUSH20 0xFFFFFFFFFFFFFFFFFFFFFFFFFFFFFFFFFFFFFFFF AND DUP5 PUSH20 0xFFFFFFFFFFFFFFFFFFFFFFFFFFFFFFFFFFFFFFFF AND PUSH32 0xDDF252AD1BE2C89B69C2B068FC378DAA952BA7F163C4A11628F55A4DF523B3EF DUP5 PUSH1 0x40 MLOAD PUSH2 0x873 SWAP2 SWAP1 PUSH2 0x10A3 JUMP JUMPDEST PUSH1 0x40 MLOAD DUP1 SWAP2 SUB SWAP1 LOG3 PUSH1 0x1 SWAP1 POP SWAP4 SWAP3 POP POP POP JUMP JUMPDEST PUSH1 0x0 DUP1 CALLER SWAP1 POP DUP1 SWAP2 POP POP SWAP1 JUMP JUMPDEST PUSH1 0x9 PUSH1 0x20 MSTORE DUP1 PUSH1 0x0 MSTORE PUSH1 0x40 PUSH1 0x0 KECCAK256 PUSH1 0x0 SWAP2 POP SWAP1 POP SLOAD DUP2 JUMP JUMPDEST PUSH1 0x2 SLOAD DUP2 JUMP JUMPDEST PUSH1 0x8 PUSH1 0x0 SWAP1 SLOAD SWAP1 PUSH2 0x100 EXP SWAP1 DIV PUSH20 0xFFFFFFFFFFFFFFFFFFFFFFFFFFFFFFFFFFFFFFFF AND PUSH20 0xFFFFFFFFFFFFFFFFFFFFFFFFFFFFFFFFFFFFFFFF AND CALLER PUSH20 0xFFFFFFFFFFFFFFFFFFFFFFFFFFFFFFFFFFFFFFFF AND EQ PUSH2 0x90B JUMPI PUSH1 0x0 DUP1 REVERT JUMPDEST PUSH1 0x8 PUSH1 0x0 SWAP1 SLOAD SWAP1 PUSH2 0x100 EXP SWAP1 DIV PUSH20 0xFFFFFFFFFFFFFFFFFFFFFFFFFFFFFFFFFFFFFFFF AND PUSH20 0xFFFFFFFFFFFFFFFFFFFFFFFFFFFFFFFFFFFFFFFF AND PUSH2 0x8FC SELFBALANCE SWAP1 DUP2 ISZERO MUL SWAP1 PUSH1 0x40 MLOAD PUSH1 0x0 PUSH1 0x40 MLOAD DUP1 DUP4 SUB DUP2 DUP6 DUP9 DUP9 CALL SWAP4 POP POP POP POP ISZERO DUP1 ISZERO PUSH2 0x973 JUMPI RETURNDATASIZE PUSH1 0x0 DUP1 RETURNDATACOPY RETURNDATASIZE PUSH1 0x0 REVERT JUMPDEST POP JUMP JUMPDEST PUSH1 0x3 SLOAD DUP2 JUMP JUMPDEST PUSH1 0x0 PUSH1 0x9 PUSH1 0x0 DUP4 PUSH20 0xFFFFFFFFFFFFFFFFFFFFFFFFFFFFFFFFFFFFFFFF AND PUSH20 0xFFFFFFFFFFFFFFFFFFFFFFFFFFFFFFFFFFFFFFFF AND DUP2 MSTORE PUSH1 0x20 ADD SWAP1 DUP2 MSTORE PUSH1 0x20 ADD PUSH1 0x0 KECCAK256 SLOAD SWAP1 POP SWAP2 SWAP1 POP JUMP JUMPDEST PUSH1 0x1 DUP1 SLOAD PUSH2 0x9D2 SWAP1 PUSH2 0x11D7 JUMP JUMPDEST DUP1 PUSH1 0x1F ADD PUSH1 0x20 DUP1 SWAP2 DIV MUL PUSH1 0x20 ADD PUSH1 0x40 MLOAD SWAP1 DUP2 ADD PUSH1 0x40 MSTORE DUP1 SWAP3 SWAP2 SWAP1 DUP2 DUP2 MSTORE PUSH1 0x20 ADD DUP3 DUP1 SLOAD PUSH2 0x9FE SWAP1 PUSH2 0x11D7 JUMP JUMPDEST DUP1 ISZERO PUSH2 0xA4B JUMPI DUP1 PUSH1 0x1F LT PUSH2 0xA20 JUMPI PUSH2 0x100 DUP1 DUP4 SLOAD DIV MUL DUP4 MSTORE SWAP2 PUSH1 0x20 ADD SWAP2 PUSH2 0xA4B JUMP JUMPDEST DUP3 ADD SWAP2 SWAP1 PUSH1 0x0 MSTORE PUSH1 0x20 PUSH1 0x0 KECCAK256 SWAP1 JUMPDEST DUP2 SLOAD DUP2 MSTORE SWAP1 PUSH1 0x1 ADD SWAP1 PUSH1 0x20 ADD DUP1 DUP4 GT PUSH2 0xA2E JUMPI DUP3 SWAP1 SUB PUSH1 0x1F AND DUP3 ADD SWAP2 JUMPDEST POP POP POP POP POP DUP2 JUMP JUMPDEST PUSH1 0x4 SLOAD DUP2 JUMP JUMPDEST PUSH1 0x5 SLOAD DUP2 JUMP JUMPDEST PUSH1 0x0 PUSH2 0xAB3 DUP3 PUSH1 0x9 PUSH1 0x0 CALLER PUSH20 0xFFFFFFFFFFFFFFFFFFFFFFFFFFFFFFFFFFFFFFFF AND PUSH20 0xFFFFFFFFFFFFFFFFFFFFFFFFFFFFFFFFFFFFFFFF AND DUP2 MSTORE PUSH1 0x20 ADD SWAP1 DUP2 MSTORE PUSH1 0x20 ADD PUSH1 0x0 KECCAK256 SLOAD PUSH2 0xE4C SWAP1 SWAP2 SWAP1 PUSH4 0xFFFFFFFF AND JUMP JUMPDEST PUSH1 0x9 PUSH1 0x0 CALLER PUSH20 0xFFFFFFFFFFFFFFFFFFFFFFFFFFFFFFFFFFFFFFFF AND PUSH20 0xFFFFFFFFFFFFFFFFFFFFFFFFFFFFFFFFFFFFFFFF AND DUP2 MSTORE PUSH1 0x20 ADD SWAP1 DUP2 MSTORE PUSH1 0x20 ADD PUSH1 0x0 KECCAK256 DUP2 SWAP1 SSTORE POP PUSH2 0xB48 DUP3 PUSH1 0x9 PUSH1 0x0 DUP7 PUSH20 0xFFFFFFFFFFFFFFFFFFFFFFFFFFFFFFFFFFFFFFFF AND PUSH20 0xFFFFFFFFFFFFFFFFFFFFFFFFFFFFFFFFFFFFFFFF AND DUP2 MSTORE PUSH1 0x20 ADD SWAP1 DUP2 MSTORE PUSH1 0x20 ADD PUSH1 0x0 KECCAK256 SLOAD PUSH2 0xE6F SWAP1 SWAP2 SWAP1 PUSH4 0xFFFFFFFF AND JUMP JUMPDEST PUSH1 0x9 PUSH1 0x0 DUP6 PUSH20 0xFFFFFFFFFFFFFFFFFFFFFFFFFFFFFFFFFFFFFFFF AND PUSH20 0xFFFFFFFFFFFFFFFFFFFFFFFFFFFFFFFFFFFFFFFF AND DUP2 MSTORE PUSH1 0x20 ADD SWAP1 DUP2 MSTORE PUSH1 0x20 ADD PUSH1 0x0 KECCAK256 DUP2 SWAP1 SSTORE POP DUP3 PUSH20 0xFFFFFFFFFFFFFFFFFFFFFFFFFFFFFFFFFFFFFFFF AND CALLER PUSH20 0xFFFFFFFFFFFFFFFFFFFFFFFFFFFFFFFFFFFFFFFF AND PUSH32 0xDDF252AD1BE2C89B69C2B068FC378DAA952BA7F163C4A11628F55A4DF523B3EF DUP5 PUSH1 0x40 MLOAD PUSH2 0xBE8 SWAP2 SWAP1 PUSH2 0x10A3 JUMP JUMPDEST PUSH1 0x40 MLOAD DUP1 SWAP2 SUB SWAP1 LOG3 PUSH1 0x1 SWAP1 POP SWAP3 SWAP2 POP POP JUMP JUMPDEST PUSH1 0x0 PUSH1 0x9 PUSH1 0x0 CALLER PUSH20 0xFFFFFFFFFFFFFFFFFFFFFFFFFFFFFFFFFFFFFFFF AND PUSH20 0xFFFFFFFFFFFFFFFFFFFFFFFFFFFFFFFFFFFFFFFF AND DUP2 MSTORE PUSH1 0x20 ADD SWAP1 DUP2 MSTORE PUSH1 0x20 ADD PUSH1 0x0 KECCAK256 SLOAD SWAP1 POP SWAP1 JUMP JUMPDEST PUSH1 0x0 PUSH1 0x3 SLOAD TIMESTAMP GT PUSH2 0xC67 JUMPI PUSH2 0xC60 PUSH1 0x7D CALLVALUE PUSH2 0xE92 SWAP1 SWAP2 SWAP1 PUSH4 0xFFFFFFFF AND JUMP JUMPDEST SWAP1 POP PUSH2 0xC7E JUMP JUMPDEST PUSH2 0xC7B PUSH1 0x64 CALLVALUE PUSH2 0xE92 SWAP1 SWAP2 SWAP1 PUSH4 0xFFFFFFFF AND JUMP JUMPDEST SWAP1 POP JUMPDEST PUSH2 0xC92 PUSH1 0x64 CALLVALUE PUSH2 0xE92 SWAP1 SWAP2 SWAP1 PUSH4 0xFFFFFFFF AND JUMP JUMPDEST SWAP1 POP PUSH2 0xCE6 DUP2 PUSH1 0x9 PUSH1 0x0 CALLER PUSH20 0xFFFFFFFFFFFFFFFFFFFFFFFFFFFFFFFFFFFFFFFF AND PUSH20 0xFFFFFFFFFFFFFFFFFFFFFFFFFFFFFFFFFFFFFFFF AND DUP2 MSTORE PUSH1 0x20 ADD SWAP1 DUP2 MSTORE PUSH1 0x20 ADD PUSH1 0x0 KECCAK256 SLOAD PUSH2 0xE6F SWAP1 SWAP2 SWAP1 PUSH4 0xFFFFFFFF AND JUMP JUMPDEST PUSH1 0x9 PUSH1 0x0 CALLER PUSH20 0xFFFFFFFFFFFFFFFFFFFFFFFFFFFFFFFFFFFFFFFF AND PUSH20 0xFFFFFFFFFFFFFFFFFFFFFFFFFFFFFFFFFFFFFFFF AND DUP2 MSTORE PUSH1 0x20 ADD SWAP1 DUP2 MSTORE PUSH1 0x20 ADD PUSH1 0x0 KECCAK256 DUP2 SWAP1 SSTORE POP PUSH2 0xD3E DUP2 PUSH1 0x7 SLOAD PUSH2 0xE6F SWAP1 SWAP2 SWAP1 PUSH4 0xFFFFFFFF AND JUMP JUMPDEST PUSH1 0x7 DUP2 SWAP1 SSTORE POP CALLER PUSH20 0xFFFFFFFFFFFFFFFFFFFFFFFFFFFFFFFFFFFFFFFF AND PUSH1 0x0 PUSH20 0xFFFFFFFFFFFFFFFFFFFFFFFFFFFFFFFFFFFFFFFF AND PUSH32 0xDDF252AD1BE2C89B69C2B068FC378DAA952BA7F163C4A11628F55A4DF523B3EF DUP4 PUSH1 0x40 MLOAD PUSH2 0xDA2 SWAP2 SWAP1 PUSH2 0x10A3 JUMP JUMPDEST PUSH1 0x40 MLOAD DUP1 SWAP2 SUB SWAP1 LOG3 PUSH1 0x6 PUSH1 0x0 DUP2 SLOAD DUP1 SWAP3 SWAP2 SWAP1 PUSH2 0xDBD SWAP1 PUSH2 0x1238 JUMP JUMPDEST SWAP2 SWAP1 POP SSTORE POP POP JUMP JUMPDEST PUSH1 0x0 PUSH1 0xA PUSH1 0x0 DUP5 PUSH20 0xFFFFFFFFFFFFFFFFFFFFFFFFFFFFFFFFFFFFFFFF AND PUSH20 0xFFFFFFFFFFFFFFFFFFFFFFFFFFFFFFFFFFFFFFFF AND DUP2 MSTORE PUSH1 0x20 ADD SWAP1 DUP2 MSTORE PUSH1 0x20 ADD PUSH1 0x0 KECCAK256 PUSH1 0x0 DUP4 PUSH20 0xFFFFFFFFFFFFFFFFFFFFFFFFFFFFFFFFFFFFFFFF AND PUSH20 0xFFFFFFFFFFFFFFFFFFFFFFFFFFFFFFFFFFFFFFFF AND DUP2 MSTORE PUSH1 0x20 ADD SWAP1 DUP2 MSTORE PUSH1 0x20 ADD PUSH1 0x0 KECCAK256 SLOAD SWAP1 POP SWAP3 SWAP2 POP POP JUMP JUMPDEST PUSH1 0x0 DUP3 DUP3 GT ISZERO PUSH2 0xE5B JUMPI PUSH1 0x0 DUP1 REVERT JUMPDEST DUP2 DUP4 PUSH2 0xE67 SWAP2 SWAP1 PUSH2 0x1281 JUMP JUMPDEST SWAP1 POP SWAP3 SWAP2 POP POP JUMP JUMPDEST PUSH1 0x0 DUP2 DUP4 PUSH2 0xE7D SWAP2 SWAP1 PUSH2 0x12B5 JUMP JUMPDEST SWAP1 POP DUP3 DUP2 LT ISZERO PUSH2 0xE8C JUMPI PUSH1 0x0 DUP1 REVERT JUMPDEST SWAP3 SWAP2 POP POP JUMP JUMPDEST PUSH1 0x0 DUP2 DUP4 PUSH2 0xEA0 SWAP2 SWAP1 PUSH2 0x130B JUMP JUMPDEST SWAP1 POP PUSH1 0x0 DUP4 EQ DUP1 PUSH2 0xEBB JUMPI POP DUP2 DUP4 DUP3 PUSH2 0xEB9 SWAP2 SWAP1 PUSH2 0x1394 JUMP JUMPDEST EQ JUMPDEST PUSH2 0xEC4 JUMPI PUSH1 0x0 DUP1 REVERT JUMPDEST SWAP3 SWAP2 POP POP JUMP JUMPDEST PUSH1 0x0 DUP2 MLOAD SWAP1 POP SWAP2 SWAP1 POP JUMP JUMPDEST PUSH1 0x0 DUP3 DUP3 MSTORE PUSH1 0x20 DUP3 ADD SWAP1 POP SWAP3 SWAP2 POP POP JUMP JUMPDEST PUSH1 0x0 JUMPDEST DUP4 DUP2 LT ISZERO PUSH2 0xF04 JUMPI DUP1 DUP3 ADD MLOAD DUP2 DUP5 ADD MSTORE PUSH1 0x20 DUP2 ADD SWAP1 POP PUSH2 0xEE9 JUMP JUMPDEST DUP4 DUP2 GT ISZERO PUSH2 0xF13 JUMPI PUSH1 0x0 DUP5 DUP5 ADD MSTORE JUMPDEST POP POP POP POP JUMP JUMPDEST PUSH1 0x0 PUSH1 0x1F NOT PUSH1 0x1F DUP4 ADD AND SWAP1 POP SWAP2 SWAP1 POP JUMP JUMPDEST PUSH1 0x0 PUSH2 0xF35 DUP3 PUSH2 0xECA JUMP JUMPDEST PUSH2 0xF3F DUP2 DUP6 PUSH2 0xED5 JUMP JUMPDEST SWAP4 POP PUSH2 0xF4F DUP2 DUP6 PUSH1 0x20 DUP7 ADD PUSH2 0xEE6 JUMP JUMPDEST PUSH2 0xF58 DUP2 PUSH2 0xF19 JUMP JUMPDEST DUP5 ADD SWAP2 POP POP SWAP3 SWAP2 POP POP JUMP JUMPDEST PUSH1 0x0 PUSH1 0x20 DUP3 ADD SWAP1 POP DUP2 DUP2 SUB PUSH1 0x0 DUP4 ADD MSTORE PUSH2 0xF7D DUP2 DUP5 PUSH2 0xF2A JUMP JUMPDEST SWAP1 POP SWAP3 SWAP2 POP POP JUMP JUMPDEST PUSH1 0x0 DUP1 REVERT JUMPDEST PUSH1 0x0 PUSH20 0xFFFFFFFFFFFFFFFFFFFFFFFFFFFFFFFFFFFFFFFF DUP3 AND SWAP1 POP SWAP2 SWAP1 POP JUMP JUMPDEST PUSH1 0x0 PUSH2 0xFB5 DUP3 PUSH2 0xF8A JUMP JUMPDEST SWAP1 POP SWAP2 SWAP1 POP JUMP JUMPDEST PUSH2 0xFC5 DUP2 PUSH2 0xFAA JUMP JUMPDEST DUP2 EQ PUSH2 0xFD0 JUMPI PUSH1 0x0 DUP1 REVERT JUMPDEST POP JUMP JUMPDEST PUSH1 0x0 DUP2 CALLDATALOAD SWAP1 POP PUSH2 0xFE2 DUP2 PUSH2 0xFBC JUMP JUMPDEST SWAP3 SWAP2 POP POP JUMP JUMPDEST PUSH1 0x0 DUP2 SWAP1 POP SWAP2 SWAP1 POP JUMP JUMPDEST PUSH2 0xFFB DUP2 PUSH2 0xFE8 JUMP JUMPDEST DUP2 EQ PUSH2 0x1006 JUMPI PUSH1 0x0 DUP1 REVERT JUMPDEST POP JUMP JUMPDEST PUSH1 0x0 DUP2 CALLDATALOAD SWAP1 POP PUSH2 0x1018 DUP2 PUSH2 0xFF2 JUMP JUMPDEST SWAP3 SWAP2 POP POP JUMP JUMPDEST PUSH1 0x0 DUP1 PUSH1 0x40 DUP4 DUP6 SUB SLT ISZERO PUSH2 0x1035 JUMPI PUSH2 0x1034 PUSH2 0xF85 JUMP JUMPDEST JUMPDEST PUSH1 0x0 PUSH2 0x1043 DUP6 DUP3 DUP7 ADD PUSH2 0xFD3 JUMP JUMPDEST SWAP3 POP POP PUSH1 0x20 PUSH2 0x1054 DUP6 DUP3 DUP7 ADD PUSH2 0x1009 JUMP JUMPDEST SWAP2 POP POP SWAP3 POP SWAP3 SWAP1 POP JUMP JUMPDEST PUSH1 0x0 DUP2 ISZERO ISZERO SWAP1 POP SWAP2 SWAP1 POP JUMP JUMPDEST PUSH2 0x1073 DUP2 PUSH2 0x105E JUMP JUMPDEST DUP3 MSTORE POP POP JUMP JUMPDEST PUSH1 0x0 PUSH1 0x20 DUP3 ADD SWAP1 POP PUSH2 0x108E PUSH1 0x0 DUP4 ADD DUP5 PUSH2 0x106A JUMP JUMPDEST SWAP3 SWAP2 POP POP JUMP JUMPDEST PUSH2 0x109D DUP2 PUSH2 0xFE8 JUMP JUMPDEST DUP3 MSTORE POP POP JUMP JUMPDEST PUSH1 0x0 PUSH1 0x20 DUP3 ADD SWAP1 POP PUSH2 0x10B8 PUSH1 0x0 DUP4 ADD DUP5 PUSH2 0x1094 JUMP JUMPDEST SWAP3 SWAP2 POP POP JUMP JUMPDEST PUSH1 0x0 DUP1 PUSH1 0x0 PUSH1 0x60 DUP5 DUP7 SUB SLT ISZERO PUSH2 0x10D7 JUMPI PUSH2 0x10D6 PUSH2 0xF85 JUMP JUMPDEST JUMPDEST PUSH1 0x0 PUSH2 0x10E5 DUP7 DUP3 DUP8 ADD PUSH2 0xFD3 JUMP JUMPDEST SWAP4 POP POP PUSH1 0x20 PUSH2 0x10F6 DUP7 DUP3 DUP8 ADD PUSH2 0xFD3 JUMP JUMPDEST SWAP3 POP POP PUSH1 0x40 PUSH2 0x1107 DUP7 DUP3 DUP8 ADD PUSH2 0x1009 JUMP JUMPDEST SWAP2 POP POP SWAP3 POP SWAP3 POP SWAP3 JUMP JUMPDEST PUSH2 0x111A DUP2 PUSH2 0xFAA JUMP JUMPDEST DUP3 MSTORE POP POP JUMP JUMPDEST PUSH1 0x0 PUSH1 0x20 DUP3 ADD SWAP1 POP PUSH2 0x1135 PUSH1 0x0 DUP4 ADD DUP5 PUSH2 0x1111 JUMP JUMPDEST SWAP3 SWAP2 POP POP JUMP JUMPDEST PUSH1 0x0 PUSH1 0x20 DUP3 DUP5 SUB SLT ISZERO PUSH2 0x1151 JUMPI PUSH2 0x1150 PUSH2 0xF85 JUMP JUMPDEST JUMPDEST PUSH1 0x0 PUSH2 0x115F DUP5 DUP3 DUP6 ADD PUSH2 0xFD3 JUMP JUMPDEST SWAP2 POP POP SWAP3 SWAP2 POP POP JUMP JUMPDEST PUSH1 0x0 DUP1 PUSH1 0x40 DUP4 DUP6 SUB SLT ISZERO PUSH2 0x117F JUMPI PUSH2 0x117E PUSH2 0xF85 JUMP JUMPDEST JUMPDEST PUSH1 0x0 PUSH2 0x118D DUP6 DUP3 DUP7 ADD PUSH2 0xFD3 JUMP JUMPDEST SWAP3 POP POP PUSH1 0x20 PUSH2 0x119E DUP6 DUP3 DUP7 ADD PUSH2 0xFD3 JUMP JUMPDEST SWAP2 POP POP SWAP3 POP SWAP3 SWAP1 POP JUMP JUMPDEST PUSH32 0x4E487B7100000000000000000000000000000000000000000000000000000000 PUSH1 0x0 MSTORE PUSH1 0x22 PUSH1 0x4 MSTORE PUSH1 0x24 PUSH1 0x0 REVERT JUMPDEST PUSH1 0x0 PUSH1 0x2 DUP3 DIV SWAP1 POP PUSH1 0x1 DUP3 AND DUP1 PUSH2 0x11EF JUMPI PUSH1 0x7F DUP3 AND SWAP2 POP JUMPDEST PUSH1 0x20 DUP3 LT DUP2 EQ ISZERO PUSH2 0x1203 JUMPI PUSH2 0x1202 PUSH2 0x11A8 JUMP JUMPDEST JUMPDEST POP SWAP2 SWAP1 POP JUMP JUMPDEST PUSH32 0x4E487B7100000000000000000000000000000000000000000000000000000000 PUSH1 0x0 MSTORE PUSH1 0x11 PUSH1 0x4 MSTORE PUSH1 0x24 PUSH1 0x0 REVERT JUMPDEST PUSH1 0x0 PUSH2 0x1243 DUP3 PUSH2 0xFE8 JUMP JUMPDEST SWAP2 POP PUSH32 0xFFFFFFFFFFFFFFFFFFFFFFFFFFFFFFFFFFFFFFFFFFFFFFFFFFFFFFFFFFFFFFFF DUP3 EQ ISZERO PUSH2 0x1276 JUMPI PUSH2 0x1275 PUSH2 0x1209 JUMP JUMPDEST JUMPDEST PUSH1 0x1 DUP3 ADD SWAP1 POP SWAP2 SWAP1 POP JUMP JUMPDEST PUSH1 0x0 PUSH2 0x128C DUP3 PUSH2 0xFE8 JUMP JUMPDEST SWAP2 POP PUSH2 0x1297 DUP4 PUSH2 0xFE8 JUMP JUMPDEST SWAP3 POP DUP3 DUP3 LT ISZERO PUSH2 0x12AA JUMPI PUSH2 0x12A9 PUSH2 0x1209 JUMP JUMPDEST JUMPDEST DUP3 DUP3 SUB SWAP1 POP SWAP3 SWAP2 POP POP JUMP JUMPDEST PUSH1 0x0 PUSH2 0x12C0 DUP3 PUSH2 0xFE8 JUMP JUMPDEST SWAP2 POP PUSH2 0x12CB DUP4 PUSH2 0xFE8 JUMP JUMPDEST SWAP3 POP DUP3 PUSH32 0xFFFFFFFFFFFFFFFFFFFFFFFFFFFFFFFFFFFFFFFFFFFFFFFFFFFFFFFFFFFFFFFF SUB DUP3 GT ISZERO PUSH2 0x1300 JUMPI PUSH2 0x12FF PUSH2 0x1209 JUMP JUMPDEST JUMPDEST DUP3 DUP3 ADD SWAP1 POP SWAP3 SWAP2 POP POP JUMP JUMPDEST PUSH1 0x0 PUSH2 0x1316 DUP3 PUSH2 0xFE8 JUMP JUMPDEST SWAP2 POP PUSH2 0x1321 DUP4 PUSH2 0xFE8 JUMP JUMPDEST SWAP3 POP DUP2 PUSH32 0xFFFFFFFFFFFFFFFFFFFFFFFFFFFFFFFFFFFFFFFFFFFFFFFFFFFFFFFFFFFFFFFF DIV DUP4 GT DUP3 ISZERO ISZERO AND ISZERO PUSH2 0x135A JUMPI PUSH2 0x1359 PUSH2 0x1209 JUMP JUMPDEST JUMPDEST DUP3 DUP3 MUL SWAP1 POP SWAP3 SWAP2 POP POP JUMP JUMPDEST PUSH32 0x4E487B7100000000000000000000000000000000000000000000000000000000 PUSH1 0x0 MSTORE PUSH1 0x12 PUSH1 0x4 MSTORE PUSH1 0x24 PUSH1 0x0 REVERT JUMPDEST PUSH1 0x0 PUSH2 0x139F DUP3 PUSH2 0xFE8 JUMP JUMPDEST SWAP2 POP PUSH2 0x13AA DUP4 PUSH2 0xFE8 JUMP JUMPDEST SWAP3 POP DUP3 PUSH2 0x13BA JUMPI PUSH2 0x13B9 PUSH2 0x1365 JUMP JUMPDEST JUMPDEST DUP3 DUP3 DIV SWAP1 POP SWAP3 SWAP2 POP POP JUMP INVALID LOG2 PUSH5 0x6970667358 0x22 SLT KECCAK256 0xDB 0xAA SAR 0x28 PUSH22 0xF92036DA7FBA5A620467A8D88120C4014950A83BBA3C RETURNDATACOPY 0xFB PUSH7 0x9E0C64736F6C63 NUMBER STOP ADDMOD SIGNEXTEND STOP CALLER "},"gasEstimates":{"creation":{"codeDepositCost":"1023000","executionCost":"infinite","totalCost":"infinite"},"external":{"allContributers()":"2519","allowance(address,address)":"infinite","approve(address,uint256)":"infinite","balanceOf(address)":"2886","balances(address)":"2881","bonusEnds()":"2452","buyTokens()":"infinite","decimals()":"2518","endSale()":"infinite","icoEnds()":"2518","icoStarts()":"2451","myAddress()":"443","myBalance()":"2592","name()":"infinite","symbol()":"infinite","totalSupply()":"2505","transfer(address,uint256)":"infinite","transferFrom(address,address,uint256)":"infinite"}},"methodIdentifiers":{"allContributers()":"1f88cb60","allowance(address,address)":"dd62ed3e","approve(address,uint256)":"095ea7b3","balanceOf(address)":"70a08231","balances(address)":"27e235e3","bonusEnds()":"40c65003","buyTokens()":"d0febe4c","decimals()":"313ce567","endSale()":"380d831b","icoEnds()":"9a8ca12c","icoStarts()":"9c3e0f3f","myAddress()":"26b85ee1","myBalance()":"c9116b69","name()":"06fdde03","symbol()":"95d89b41","totalSupply()":"18160ddd","transfer(address,uint256)":"a9059cbb","transferFrom(address,address,uint256)":"23b872dd"}},"storageLayout":{"storage":[{"astId":170,"contract":"ICO.sol:ICO","label":"name","offset":0,"slot":"0","type":"t_string_storage"},{"astId":172,"contract":"ICO.sol:ICO","label":"symbol","offset":0,"slot":"1","type":"t_string_storage"},{"astId":174,"contract":"ICO.sol:ICO","label":"decimals","offset":0,"slot":"2","type":"t_uint256"},{"astId":176,"contract":"ICO.sol:ICO","label":"bonusEnds","offset":0,"slot":"3","type":"t_uint256"},{"astId":178,"contract":"ICO.sol:ICO","label":"icoEnds","offset":0,"slot":"4","type":"t_uint256"},{"astId":180,"contract":"ICO.sol:ICO","label":"icoStarts","offset":0,"slot":"5","type":"t_uint256"},{"astId":182,"contract":"ICO.sol:ICO","label":"allContributers","offset":0,"slot":"6","type":"t_uint256"},{"astId":184,"contract":"ICO.sol:ICO","label":"allTokens","offset":0,"slot":"7","type":"t_uint256"},{"astId":186,"contract":"ICO.sol:ICO","label":"admin","offset":0,"slot":"8","type":"t_address"},{"astId":190,"contract":"ICO.sol:ICO","label":"balances","offset":0,"slot":"9","type":"t_mapping(t_address,t_uint256)"},{"astId":196,"contract":"ICO.sol:ICO","label":"allowed","offset":0,"slot":"10","type":"t_mapping(t_address,t_mapping(t_address,t_uint256))"}],"types":{"t_address":{"encoding":"inplace","label":"address","numberOfBytes":"20"},"t_mapping(t_address,t_mapping(t_address,t_uint256))":{"encoding":"mapping","key":"t_address","label":"mapping(address => mapping(address => uint256))","numberOfBytes":"32","value":"t_mapping(t_address,t_uint256)"},"t_mapping(t_address,t_uint256)":{"encoding":"mapping","key":"t_address","label":"mapping(address => uint256)","numberOfBytes":"32","value":"t_uint256"},"t_string_storage":{"encoding":"bytes","label":"string","numberOfBytes":"32"},"t_uint256":{"encoding":"inplace","label":"uint256","numberOfBytes":"32"}}},"userdoc":{"kind":"user","methods":{},"version":1}}